:100000000C9472000C9493000C9493000C94930045
:100010000C9493000C9493000C9493000C94930014
:100020000C9493000C9493000C9493000C94220471
:100030000C9493000C9493000C9493000C949300F4
:100040000C9493000C9493000C9493000C949300E4
:100050000C9493000C9493000C9493000C949300D4
:100060000C9493000C94FA050C94C9050C9493001D
:100070000C9493000C9493000C9493000C946003E4
:100080000C9493000C943F030C9493000C949300F5
:100090000C9493000C9493000C9493000C94930094
:1000A0000C9493000C9493000C9493000C94930084
:1000B0000C9493000C9483010C9493000C94930083
:1000C0000C9493000C9493000C9493000C94930064
:1000D0000C9493000C9493000C9493000C94930054
:1000E0000C94930011241FBECFEFD1E2DEBFCDBF31
:1000F00000E00CBF13E0A0E0B2E0E8E6F9E100E0C8
:100100000BBF02C007900D92AA30B107D9F713E0D8
:10011000AAE0B3E001C01D92A035B107E1F70E944B
:1001200080060C94B20C0C940000809124039091F2
:100130002503459760F08091280390912903459706
:1001400030F08091260390912703459720F4809109
:1001500072008E7F03C08091720081608093720074
:10016000089580912003909121030B97F0F4109251
:100170000B0310920A0310920D0310920C030E94BD
:10018000080180E197E220E931E0F9013197F1F7C8
:100190000197D9F70E940E0180E197E220E931E052
:1001A000F9013197F1F70197D9F7809122039091E6
:1001B00023030B97A8F410920B0310920A031092DA
:1001C0000D0310920C030E94080180E197E220E9E0
:1001D00031E0F9013197F1F70197D9F70E940E014B
:1001E0000895EAE0F1E080818860808381E880936F
:1001F0002001E1E2F1E08081846080838081886079
:10020000808380EC90E090932901809328010895E9
:10021000E0E2F1E08081806880830895E0E2F1E02F
:1002200080818F7780830895F894E0EAF0E010826F
:10023000A1EAB0E01C9286E090E09093A500809344
:10024000A4008081826080838C9183608C93E2E73C
:10025000F0E0808181608083789408951F930197F6
:1002600009F04BC0809118032091190330911A03B3
:1002700040911B0360911C03E0911D03A0911E039C
:1002800010911F03B82FBF5F91E0B81708F090E0FE
:10029000F92FF20F81E0F21708F080E0782F730F4A
:1002A00081E0731708F080E0582F540F81E0541755
:1002B00008F080E0382F360F81E0361708F080E034
:1002C000282F2E0F81E02E1708F080E0982F9A0F2C
:1002D00081E09A1708F080E0810FB0931803F09343
:1002E000190370931A0350931B0330931C0320933C
:1002F0001D0390931E0380931F0380911803909118
:1003000019031F9108951F920F920FB60F920BB60B
:100310000F9211241F932F933F934F935F936F93EB
:100320007F938F939F93AF93BF93EF93FF9386E059
:1003300090E09093A5008093A400809118032091F1
:10034000190330911A0340911B0360911C03E09143
:100350001D03A0911E0310911F03B82FBF5F91E0F2
:10036000B81708F090E0F92FF20F81E0F21708F0CB
:1003700080E0782F730F81E0731708F080E0582F2A
:10038000540F81E0541708F080E0382F360F81E0D9
:10039000361708F080E0282F2E0F81E02E1708F086
:1003A00080E0982F9A0F81E09A1708F080E0810F83
:1003B000B0931803F093190370931A0350931B031F
:1003C00030931C0320931D0390931E0380931F03FF
:1003D00020910A0330910B034091160350911703AB
:1003E000420F531F509317034093160380910E033F
:1003F00090910F03820F931F90930F0380930E032E
:1004000020910C0330910D0360911403709115033A
:10041000620F731F70931503609314038091100390
:1004200090911103820F931F9093110380931003F7
:100430008FEF4F3F580739F487E090E09093170310
:100440008093160307C04830510521F4109217031A
:10045000109216038FEF6F3F780739F487E090E032
:10046000909315038093140307C06830710521F43D
:1004700010921503109214038091160390911703A4
:1004800084309105F9F0853091054CF48230910566
:10049000A9F083309105A4F40197F1F40CC08630E3
:1004A0009105A1F0863091057CF08730910581F0AF
:1004B000089791F40FC085E088B90EC084E00BC0A6
:1004C00084E109C080E107C080E505C080E403C085
:1004D00081E401C081E082B98091140390911503F9
:1004E00084309105F9F0853091054CF48230910506
:1004F000A9F083309105A4F40197F1F40CC0863083
:100500009105A1F0863091057CF08730910581F04E
:10051000089791F40FC08AE088B90EC082E00BC042
:1005200082E809C080E807C080EA05C080E203C015
:1005300088E201C088E082B9FF91EF91BF91AF914D
:100540009F918F917F916F915F914F913F912F91EB
:100550001F910F900BBE0F900FBE0F901F9018951C
:100560008130910579F410920F0310920E031092CE
:10057000110310921003909313038093120381E0F0
:1005800090E008950895EAE0F1E080818F7E808315
:1005900080818F7B8083808181608083229A209AF2
:1005A00008958091090184FD03C020E030E00FC070
:1005B00080E69AEE0197F1F780910901282F30E04B
:1005C00084E0369527958A95E1F721703070C9014E
:1005D00008958091090186FD03C020E030E00FC03E
:1005E00080E69AEE0197F1F780910901282F30E01B
:1005F00096E0369527959A95E1F721703070C901FC
:100600000895EBE0F1E08081816080830895EBE064
:10061000F1E080818E7F808308952A9A08952A9838
:100620000895289A089528980895F894E0E9F0E04C
:10063000808182688083E1E9F0E080818A61808343
:1006400080E090E8909397008093960084E190E09A
:10065000909399008093980084E991E190939B0096
:1006600080939A006B9AE1E7F0E080818462808356
:10067000E8E6F0E0808184608083789408951F929A
:100680000F920FB60F9211248F9380910002880F62
:100690008093000280910002803419F482E08093FC
:1006A00000028091000280936D008091710084604F
:1006B000809371008F910F900FBE0F901F9018952F
:1006C0001F920F920FB60F920BB60F9211242F9319
:1006D0003F934F935F936F937F938F939F93AF93CA
:1006E000BF93EF93FF93809100028230D9F4609121
:1006F000960070919700665671417695679576954C
:10070000679580E090E00E940D0A28E23EE74CE009
:100710005DE30E948F080E94B906709323036093E3
:1007200022037BC0809100028430D9F4609196004E
:1007300070919700665671417695679576956795A5
:1007400080E090E00E940D0A28E23EE74CE05DE385
:100750000E948F080E94B9067093210360932003C2
:100760005CC0809100028830D9F46091960070914D
:10077000970066567141769567957695679580E006
:1007800090E00E940D0A28E23EE74CE05DE30E9403
:100790008F080E94B90670932903609328033DC017
:1007A000809100028031D9F4609196007091970099
:1007B00066567141769567957695679580E090E0ED
:1007C0000E940D0A28E23EE74CE05DE30E948F089C
:1007D0000E94B90670932703609326031EC0809180
:1007E00000028032D1F460919600709197006656B5
:1007F0007141769567957695679580E090E00E94C7
:100800000D0A28E23EE74CE05DE30E948F080E945B
:10081000B906709325036093240310926D00FF9135
:10082000EF91BF91AF919F918F917F916F915F9168
:100830004F913F912F910F900BBE0F900FBE0F90D5
:100840001F9018951F920F920FB60F920BB60F9232
:1008500011242F933F934F935F936F937F938F93C5
:100860009F93AF93BF93EF93FF93809100028230E9
:10087000E1F460919400709195006656714176950F
:1008800067957695679580E090E00E940D0A28E2D2
:100890003EE74CE05DE30E948F080E94B90670932A
:1008A00023036093220310987FC08091000284305C
:1008B000E1F46091940070919500665671417695CF
:1008C00067957695679580E090E00E940D0A28E292
:1008D0003EE74CE05DE30E948F080E94B9067093EA
:1008E00021036093200311985FC08091000288303B
:1008F000E1F460919400709195006656714176958F
:1009000067957695679580E090E00E940D0A28E251
:100910003EE74CE05DE30E948F080E94B9067093A9
:1009200029036093280312983FC080910002803110
:10093000E1F460919400709195006656714176954E
:1009400067957695679580E090E00E940D0A28E211
:100950003EE74CE05DE30E948F080E94B906709369
:1009600027036093260313981FC0809100028032F2
:10097000D9F4609194007091950066567141769516
:1009800067957695679580E090E00E940D0A28E2D1
:100990003EE74CE05DE30E948F080E94B906709329
:1009A0002503609324031498809171008F7D8093B8
:1009B000710010926D00FF91EF91BF91AF919F91E7
:1009C0008F917F916F915F914F913F912F910F90F8
:1009D0000BBE0F900FBE0F901F90189580912403AF
:1009E00090912503459738F410920B0310920A0357
:1009F00081E090E01DC080912803909129034597E4
:100A000058F481E090E090930B0380930A031092D6
:100A10000D0310920C0308958091260390912703F3
:100A2000459758F481E090E090930B0380930A037C
:100A300090930D0380930C03089510920B03109272
:100A40000A0310920D0310920C0308959C01883341
:100A500091057CF16833710564F180912A039091CE
:100A60002B03892B51F410920F0310920E0381E097
:100A700090E090932B0380932A0380910E03909132
:100A80000F0304975CF481E090E090930B03809354
:100A90000A0310920D0310920C0367C081E090E0EE
:100AA00090930B0380930A0390930D0380930C03A0
:100AB0005CC02D323105D4F46D327105BCF48091E7
:100AC0002C0390912D03892B51F410921103109255
:100AD000100381E090E090932D0380932C0380918C
:100AE000100390911103049724F421C026173707AF
:100AF00039F481E090E090930B0380930A031DC0CA
:100B00006217730774F422333105DCF081E090E062
:100B100090930B0380930A0310920D0310920C0321
:100B200010C0261737076CF42233310554F41092A5
:100B30000B0310920A0381E090E090930D038093E1
:100B40000C03283331051CF06833710574F41092DE
:100B50000F0310920E0310922B0310922A032D32D2
:100B600031051CF46D32710544F01092110310929E
:100B7000100310922D0310922C03089581E090E051
:100B800090930B0380930A0390930D0380930C03BF
:100B900008951F920F920FB60F920BB60F92112469
:100BA0008F939F93EF93FF9390913B03E92FF0E096
:100BB000EA5BFC4F80818093C60080818F3F11F0FB
:100BC0009A3050F010923B038091C1008F7D80934A
:100BD000C10010922F0303C09F5F90933B03FF91CE
:100BE000EF919F918F910F900BBE0F900FBE0F90C2
:100BF0001F9018951F920F920FB60F920BB60F927F
:100C000011248F939F93AF93BF93EF93FF93DF9341
:100C1000CF930F92CDB7DEB78091C60089838981CB
:100C20008E3F41F42D9889818093310381E0809338
:100C3000300329C08981909130038F3FD1F489819D
:100C4000E92FF0E0EF5CFC4F80839AE09150E92FB0
:100C5000F0E0DF01AF5CBC4F8C91E45CFC4F808323
:100C60009923A1F71092300381E080932E032C98F2
:100C70000AC08981E92FF0E0EF5CFC4F80839F5F21
:100C8000909330032E980F90CF91DF91FF91EF91C9
:100C9000BF91AF919F918F910F900BBE0F900FBEA0
:100CA0000F901F901895F8941092C50087E68093D6
:100CB000C400E1ECF0E0808188698083E2ECF0E040
:100CC00080818660808378940895AC0180912F03A1
:100CD0008823A9F481E080932F032AE02150E22F9A
:100CE000F0E0DA01AE0FBF1F8C91EA5BFC4F80830E
:100CF0002223A1F78091C10080628093C1000895F2
:100D0000EF92FF920F931F93DF93CF9300D0CDB755
:100D1000DEB70E9453060E94F1000E9415030E9454
:100D2000080180E197E220E931E0F9013197F1F71C
:100D30000197D9F70E940E0180E197E220E931E0A6
:100D4000F9013197F1F70197D9F78EEFE82EFF24DB
:100D5000FA948E010F5F1F4F809120039091210321
:100D6000E9828A83FB820E94B100C8010E94650665
:100D7000F3CFEF92FF920F931F937B018C0120E042
:100D800030E040E05FE40E94890988238CF0C801CC
:100D9000B70120E030E040E05FE40E9431080E94AB
:100DA000B9099B01AC01205030404040504806C07A
:100DB000C801B7010E94B9099B01AC01B901CA0180
:100DC0001F910F91FF90EF900895A0E0B0E0EBEE3F
:100DD000F6E00C947B0CDC012B01FA019C91923023
:100DE00008F439C1EB018881823008F433C19430B2
:100DF00069F4843009F02FC111969C911197898173
:100E0000981709F428C1A1E0B2E025C1843009F4A3
:100E100021C18230A9F4923009F01DC19A01AD01BF
:100E200088E0EA010990AE01E90109929E01815032
:100E3000C1F7E201898111969C918923818308C1C0
:100E4000923009F407C112962D903C901397EB0154
:100E50008A819B811496AD90BD90CD90DC901797C0
:100E6000EC80FD800E811F819101281B390BB90197
:100E700037FF04C066277727621B730B603271054A
:100E80000CF061C0121613066CF537014801062EEE
:100E900004C096948794779467940A94D2F721E0DB
:100EA00030E040E050E004C0220F331F441F551FC4
:100EB0006A95D2F721503040404050402E213F21CA
:100EC00040235123211531054105510521F021E031
:100ED00030E040E050E079018A01E628F72808294F
:100EE00019293CC0232BD1F1260E371E35014601AE
:100EF000062E04C096948794779467940A94D2F748
:100F000021E030E040E050E004C0220F331F441FD6
:100F1000551F6A95D2F721503040404050402A2159
:100F20003B214C215D21211531054105510521F061
:100F300021E030E040E050E059016A01A628B728DE
:100F4000C828D9280BC0821593052CF01C01AA24AF
:100F5000BB24650103C0EE24FF24870111969C91F8
:100F6000D20111968C91981709F445C0992339F054
:100F7000A80197012A193B094C095D0906C0A60181
:100F800095012E193F09400B510B57FD08C01182E6
:100F90003382228224833583468357831DC081E0B8
:100FA00081833382228288279927DC01821B930B5D
:100FB000A40BB50B84839583A683B7830DC0220F42
:100FC000331F441F551F24833583468357838281F3
:100FD0009381019793838283248135814681578150
:100FE000DA01C9010197A109B1098F5F9F4FAF4F86
:100FF000BF4328F30BC0918333822282EA0CFB1C8F
:101000000C1D1D1DE482F5820683178383E0808317
:10101000248135814681578157FF1AC0C901AA270B
:1010200097FDA095BA2F81709070A070B070569502
:10103000479537952795822B932BA42BB52B84832B
:101040009583A683B783828193810196938382835C
:10105000DF0101C0D201CD01CDB7DEB7E2E10C94D2
:10106000970CA0E2B0E0E7E3F8E00C94870C69830A
:101070007A838B839C832D833E834F835887E9E05B
:10108000EE2EF12CEC0EFD1ECE010196B7010E9452
:10109000AA0B8E010F5E1F4FCE010596B8010E946C
:1010A000AA0B8A8991E089278A8BC701B801AE0112
:1010B000475E5F4F0E94E5060E94D50AA096E6E0D3
:1010C0000C94A30CA0E2B0E0E8E6F8E00C94870CE6
:1010D00069837A838B839C832D833E834F835887D8
:1010E000F9E0EF2EF12CEC0EFD1ECE010196B701BA
:1010F0000E94AA0B8E010F5E1F4FCE010596B8010C
:101100000E94AA0BC701B801AE01475E5F4F0E9463
:10111000E5060E94D50AA096E6E00C94A30CA0E296
:10112000B0E0E5E9F8E00C947B0C69837A838B836B
:101130009C832D833E834F835887CE010196BE0149
:10114000675F7F4F0E94AA0BCE010596BE016F5EBE
:101150007F4F0E94AA0B9985923088F0898982304E
:10116000C8F0943019F4823051F404C0843029F46A
:10117000923081F481E092E0C6C0923049F420E0E0
:101180009A858A89981321E02A87CE010996BBC0E7
:10119000823049F420E09A858A89981321E02A8BCD
:1011A000CE014196B0C02D843E844F8458886D880E
:1011B0007E888F88988CEE24FF248701AA24BB2484
:1011C000650140E050E060E070E0E0E0F0E0C10187
:1011D00081709070892BE9F0E60CF71C081D191D31
:1011E0009A01AB012A0D3B1D4C1D5D1D80E090E076
:1011F000A0E0B0E0E614F7040805190520F481E04A
:1012000090E0A0E0B0E0BA01A901480F591F6A1FA1
:101210007B1FAA0CBB1CCC1CDD1C97FE08C081E008
:1012200090E0A0E0B0E0A82AB92ACA2ADB2A3196C9
:10123000E032F10549F0660C771C881C991C569425
:10124000479437942794C3CFFA85EA892B893C8940
:101250008B859C85280F391F2E5F3F4F17C0CA0111
:1012600081709070892B61F016950795F794E7943B
:1012700080E090E0A0E0B0E8E82AF92A0A2B1B2BD6
:1012800076956795579547952F5F3F4F77FDE7CF49
:101290000CC0440F551F661F771F17FD4160EE0CF1
:1012A000FF1C001F111F21503040403090E05907B3
:1012B00090E0690790E4790760F32B8F3C8FDB01A6
:1012C000CA018F779070A070B07080349105A1052D
:1012D000B10561F447FD0AC0E114F10401051105EF
:1012E00029F0405C5F4F6F4F7F4F40781A8EFE179A
:1012F00011F081E08A8F4D8F5E8F6F8F78A383E02E
:10130000898FCE0149960E94D50AA096E2E10C94FD
:10131000970CA8E1B0E0EFE8F9E00C94870C698342
:101320007A838B839C832D833E834F83588789E008
:10133000E82EF12CEC0EFD1ECE010196B7010E94A5
:10134000AA0B8E010F5E1F4FCE010596B8010E94B9
:10135000AA0B8985823040F08989823028F0C70144
:10136000B8010E94220C01C08FEF6896E6E00C9451
:10137000A30CACE0B0E0EFEBF9E00C948B0C6983CC
:101380007A838B839C83CE010196BE016B5F7F4F76
:101390000E94AA0B8D81823061F1823050F184303D
:1013A00021F48E81882351F12EC02F81388537FD9D
:1013B00020C06E812F3131051CF06623F9F023C067
:1013C0008EE190E0821B930B29853A854B855C85E5
:1013D00004C056954795379527958A95D2F7662389
:1013E000B1F050954095309521953F4F4F4F5F4F4D
:1013F0000EC020E030E040E050E009C02FEF3FEFAA
:101400004FEF5FE704C020E030E040E050E8B90172
:10141000CA012C96E2E00C94A70CA8E0B0E0E3E14E
:10142000FAE00C94830C7B018C0161157105810538
:10143000910519F482E0898360C083E089838EE19D
:10144000C82ED12CDC82CB82ED82FE820F831887DE
:10145000C801B7010E94860AFC013197F7FF3BC023
:10146000222733272E1B3F0B57016801022E04C091
:10147000D694C794B794A7940A94D2F740E050E06A
:1014800060E070E081E090E0A0E0B0E004C0880F90
:10149000991FAA1FBB1F2A95D2F70197A109B1096D
:1014A0008E219F21A023B1230097A105B10521F032
:1014B00041E050E060E070E04A295B296C297D2919
:1014C0004D835E836F8378878EE190E08E1B9F0B48
:1014D0009C838B8312C0309781F00E2E04C0EE0CDB
:1014E000FF1C001F111F0A94D2F7ED82FE820F83AA
:1014F0001887CE1ADF0ADC82CB821A82CE010196CF
:101500000E94D50A2896EAE00C949F0CEF92FF9275
:101510000F931F937B018C0180E0E81680E0F806B2
:1015200081E0080780E0180788F48FEFE816F104DF
:101530000105110531F028F088E090E0A0E0B0E06E
:1015400017C080E090E0A0E0B0E012C080E0E816B4
:1015500080E0F80680E0080781E0180728F088E1BD
:1015600090E0A0E0B0E004C080E190E0A0E0B0E056
:1015700020E230E040E050E0281B390B4A0B5B0BC7
:1015800004C016950795F794E7948A95D2F7F7016A
:10159000E75FFD4F8081281B310941095109C901CD
:1015A0001F910F91FF90EF900895DF92EF92FF92BD
:1015B0000F931F93FC01E480F58006811781D18091
:1015C0008081823048F480E090E0A0E1B0E0E82A39
:1015D000F92A0A2B1B2BA5C0843009F49FC0823046
:1015E00021F4EE24FF24870105C0E114F104010574
:1015F000110519F4E0E0F0E096C0628173819FEF7D
:10160000623879070CF05BC022E83FEF261B370BEE
:101610002A3131052CF020E030E040E050E02AC0D3
:10162000B801A701022E04C0769567955795479596
:101630000A94D2F781E090E0A0E0B0E004C0880F07
:10164000991FAA1FBB1F2A95D2F70197A109B109BB
:101650008E219F21A023B1230097A105B10521F080
:1016600081E090E0A0E0B0E09A01AB01282B392B9B
:101670004A2B5B2BDA01C9018F779070A070B07094
:1016800080349105A105B10539F427FF09C0205C1C
:101690003F4F4F4F5F4F04C0215C3F4F4F4F5F4F55
:1016A000E0E0F0E02030A0E03A07A0E04A07A0E444
:1016B0005A0710F0E1E0F0E079018A0127C06038B4
:1016C000710564F5FB01E158FF4FD801C7018F7721
:1016D0009070A070B07080349105A105B10539F407
:1016E000E7FE0DC080E490E0A0E0B0E004C08FE32E
:1016F00090E0A0E0B0E0E80EF91E0A1F1B1F17FFE4
:1017000005C016950795F794E794319687E01695EE
:101710000795F794E7948A95D1F705C0EE24FF2446
:101720008701EFEFF0E06E2F679566276795902FA2
:101730009F77D794DD24D7948E2F8695492F462BFB
:10174000582F5D29B701CA011F910F91FF90EF90AB
:10175000DF900895FC01DB01408151812281622FDD
:101760006F7770E0221F2227221F9381892F880F15
:10177000822B282F30E0991F9927991F11969C934F
:10178000119721153105A9F541155105610571051F
:1017900011F482E037C082E89FEF13969C938E93FA
:1017A00012979A01AB0167E0220F331F441F551FA8
:1017B0006A95D1F783E08C930DC0220F331F441F2D
:1017C000551F12968D919C911397019713969C9398
:1017D0008E931297203080E0380780E0480780E43D
:1017E000580758F314962D933D934D935C93179798
:1017F00008952F3F310579F44115510561057105B3
:1018000019F484E08C93089564FF03C081E08C9305
:1018100012C01C9210C02F57304013963C932E9349
:10182000129783E08C9387E0440F551F661F771F44
:101830008A95D1F7706414964D935D936D937C9364
:10184000179708951F93DC01FB019C91923008F4D7
:1018500047C08081823008F443C0943051F411961F
:101860001C91843099F58181682F70E0611B7109AA
:101870003FC0843021F0923031F48230B9F181815F
:10188000882389F12DC011961C9111978230F1F0B7
:1018900081811817D9F412962D913C91139782816A
:1018A00093818217930794F028173907BCF0149698
:1018B0008D919D910D90BC91A02D24813581468103
:1018C0005781281739074A075B0718F4112341F09D
:1018D0000AC082179307A407B50740F4112319F033
:1018E00061E070E005C06FEF7FEF02C060E070E084
:1018F000CB011F9108952F923F924F925F926F926A
:101900007F928F929F92AF92BF92CF92DF92EF928F
:10191000FF920F931F93CF93DF93CDB7DEB7CA1B10
:10192000DB0B0FB6F894DEBF0FBECDBF19942A882B
:10193000398848885F846E847D848C849B84AA84E3
:10194000B984C884DF80EE80FD800C811B81AA8170
:10195000B981CE0FD11D0FB6F894DEBF0FBECDBF3B
:08196000ED010895F894FFCF9A
:10196800020000000000000000000102020303035F
:101978000304040404040404040505050505050519
:1019880005050505050505050506060606060606F8
:1019980006060606060606060606060606060606DF
:1019A80006060606060606060607070707070707C8
:1019B80007070707070707070707070707070707AF
:1019C800070707070707070707070707070707079F
:1019D800070707070707070707070707070707078F
:1019E8000707070707070707070808080808080878
:1019F800080808080808080808080808080808085F
:101A0800080808080808080808080808080808084E
:101A1800080808080808080808080808080808083E
:101A2800080808080808080808080808080808082E
:101A3800080808080808080808080808080808081E
:101A4800080808080808080808080808080808080E
:101A580008080808080808080808080808080808FE
:0A1A6800080808080808080808002C
:00000001FF
