:100000000C9472000C9493000C9493000C94930045
:100010000C9493000C9493000C9493000C94930014
:100020000C9493000C9493000C9493000C94DD01B9
:100030000C9493000C9493000C9493000C949300F4
:100040000C9493000C9493000C9493000C949300E4
:100050000C9493000C9493000C9493000C949300D4
:100060000C9493000C9493000C9493000C949300C4
:100070000C9493000C9493000C9493000C944901FD
:100080000C9493000C94EB000C9493000C9493004C
:100090000C9493000C9493000C9493000C94930094
:1000A0000C9493000C9493000C9493000C94930084
:1000B0000C9493000C9493000C9493000C94930074
:1000C0000C9493000C9493000C9493000C94930064
:1000D0000C9493000C9493000C9493000C94930054
:1000E0000C94930011241FBECFEFD1E2DEBFCDBF31
:1000F00000E00CBF12E0A0E0B2E0E8E5F5E000E0CF
:100100000BBF02C007900D92A230B107D9F722E0D1
:10011000A2E0B2E001C01D92AC30B207E1F70E944C
:10012000A4020C94AA020C940000CF93DF93CDB7E5
:10013000DEB7F89484E290E020EEFC01208381E2B7
:1001400090E02FEFFC01208380E990E0FC0120810A
:1001500080E990E02268FC01208381E990E0FC01C5
:10016000208181E990E02A61FC01208386E990E00A
:1001700020E030E8FC013183208388E990E024E12D
:1001800030E0FC01318320838AE990E028E833E104
:10019000FC01318320838DE290E0FC0120818DE21F
:1001A00090E02860FC01208381E790E0FC01208141
:1001B00081E790E02462FC01208388E690E0FC0166
:1001C000208188E690E02460FC0120837894000080
:1001D000DF91CF9108951F920F920FB60F921124C5
:1001E0000BB60F922F938F939F93EF93FF93CF9321
:1001F000DF93CDB7DEB785E290E0FC01208185E298
:1002000090E02064FC01208385E290E0FC012081E5
:1002100085E290E02F7BFC01208380910002880F13
:100220008093000280910002803261F481E080932B
:10023000000282E290E0FC01808182E290E02FEFF8
:10024000FC0120838DE690E020910002FC012083D8
:100250008BE390E0FC0120818BE390E02460FC01C3
:10026000208388E390E0FC01208188E390E0206215
:10027000FC0120830000DF91CF91FF91EF919F91CE
:100280008F912F910F900BBE0F900FBE0F901F906C
:1002900018951F920F920FB60F9211240BB60F9262
:1002A0002F933F938F939F93EF93FF93CF93DF937E
:1002B000CDB7DEB785E290E0FC01208185E290E0D9
:1002C0002062FC01208385E290E0FC01208185E230
:1002D00090E02F7DFC01208380910002882F90E028
:1002E0009C012095309582E290E0FC018081982F5E
:1002F000822F292F282382E290E0FC012083809125
:100300000002813051F486E990E0FC018081918106
:10031000909303028093020237C0809100028230E2
:1003200051F486E990E0FC0180819181909305026F
:100330008093040229C080910002843051F486E940
:1003400090E0FC01808191819093070280930602E6
:100350001BC080910002883051F486E990E0FC01D6
:100360008081918190930902809308020DC0809151
:100370000002803149F486E990E0FC01808191819E
:1003800090930B0280930A028BE390E0FC012081A2
:100390008BE390E02B7FFC0120830000DF91CF9165
:1003A000FF91EF919F918F913F912F910F900BBEF5
:1003B0000F900FBE0F901F9018951F920F920FB6BF
:1003C0000F9211240BB60F922F938F939F93EF935D
:1003D000FF93CF93DF93CDB7DEB785E290E0FC01CA
:1003E000208185E290E02068FC01208385E290E096
:1003F000FC01208185E290E02F77FC012083809131
:100400000002813099F484E990E0FC0180819181BF
:10041000909303028093020282E290E0FC0120812B
:1004200082E290E02E7FFC0120835BC0809100027D
:10043000823099F484E990E0FC018081918190936D
:1004400005028093040282E290E0FC01208182E2B6
:1004500090E02D7FFC01208344C080910002843015
:1004600099F484E990E0FC018081918190930702E6
:100470008093060282E290E0FC01208182E290E01B
:100480002B7FFC0120832DC080910002883099F4DD
:1004900084E990E0FC01808191819093090280932E
:1004A000080282E290E0FC01208182E290E0277F56
:1004B000FC01208316C080910002803191F484E910
:1004C00090E0FC018081918190930B0280930A025D
:1004D00082E290E0FC01208182E290E02F7EFC012C
:1004E000208388E390E0FC01208188E390E02F7D69
:1004F000FC0120838BE390E0FC0120818BE390E002
:100500002B7FFC0120830000DF91CF91FF91EF91C1
:100510009F918F912F910F900BBE0F900FBE0F9058
:100520001F901895CF93DF9300D00F92CDB7DEB711
:100530009A8389837C836B8300000F900F900F90C8
:100540000F90DF91CF910895CF93DF93CDB7DEB7B2
:080550000000FECFF894FFCF7C
:020558000100A0
:00000001FF
