:100000000C9472000C9493000C9493000C94930045
:100010000C9493000C9493000C9493000C94930014
:100020000C9493000C9493000C9493000C9446074A
:100030000C9493000C9493000C9493000C949300F4
:100040000C9493000C9493000C9493000C949300E4
:100050000C9493000C9493000C9493000C949300D4
:100060000C9493000C9493000C9493000C949300C4
:100070000C9493000C9493000C9493000C94B2068F
:100080000C9493000C945D060C9493000C949300D4
:100090000C9493000C9493000C9493000C94930094
:1000A0000C9493000C9493000C9493000C94930084
:1000B0000C9493000C947C040C9493000C94930087
:1000C0000C9493000C9493000C9493000C94930064
:1000D0000C9493000C9493000C9493000C94930054
:1000E0000C94930011241FBECFEFD1E2DEBFCDBF31
:1000F00000E00CBF12E0A0E0B2E0E0E1FAE100E0D5
:100100000BBF02C007900D92A230B107D9F722E0D1
:10011000A2E0B2E001C01D92A632B207E1F70E9450
:10012000730A0C94060D0C940000CF93DF93CDB7A7
:10013000DEB7C656D1090FB6F894DEBF0FBECDBFED
:1001400080911802909119028A30910511F008F0FF
:1001500044C1109203021092020210920502109202
:1001600004020E94100380E090E0AAE7B4E48F87C5
:10017000988BA98BBA8B20E030E04AE755E46F8575
:10018000788989899A890E94710C6FAB78AF89AFA1
:100190009AAF8FA998ADA9ADBAAD8B8B9C8BAD8B67
:1001A000BE8B20E030E040E85FE36B897C898D897D
:1001B0009E890E94AE0B88232CF481E090E0988FFA
:1001C0008F8B5EC020E03FEF4FE757E46B897C895F
:1001D0008D899E890E946C0C882309F00CF43EC026
:1001E00020E030E040E251E46F85788989899A897E
:1001F0000E94710C6BAF7CAF8DAF9EAF8BAD9CAD91
:10020000ADADBEAD8FA798ABA9ABBAAB6FA578A9C2
:1002100089A99AA90E94B30B23966CAF7DAF8EAFCC
:100220009FAF23972196AEADBFAD2197B88FAF8B0F
:1002300010C080E991E09A8F898F898D9A8D0197FE
:10024000F1F79A8F898F00008F89988D0197988F89
:100250008F8B8F89988D009761F71DC06B897C8982
:100260008D899E890E94B30B27966CAF7DAF8EAFB0
:100270009FAF279725968EAD9FAD2597988F8F8B33
:100280008F89988D9C8F8B8F8B8D9C8D0197F1F72B
:100290009C8F8B8F00000E94210380E090E0AAE7F2
:1002A000B4E489839A83AB83BC8320E030E04AE7DF
:1002B00055E469817A818B819C810E94710C2B9617
:1002C0006CAF7DAF8EAF9FAF2B972B968CAD9DAD56
:1002D000AEADBFAD2B978D839E83AF83B88720E0F3
:1002E00030E040E85FE36D817E818F8198850E94D8
:1002F000AE0B88232CF481E090E09A87898762C056
:1003000020E03FEF4FE757E46D817E818F81988534
:100310000E946C0C882309F00CF442C020E030E00D
:1003200040E251E469817A818B819C810E94710C49
:100330002F966CAF7DAF8EAF9FAF2F972F968CAD62
:100340009DADAEADBFAD2F978BA79CA7ADA7BEA7A8
:100350006BA57CA58DA59EA50E94B30B63966CAF83
:100360007DAF8EAF9FAF63976196AEADBFAD619726
:10037000BA87A98710C080E991E09C878B878B851D
:100380009C850197F1F79C878B87000089859A856A
:1003900001979A87898789859A85009761F71DC09B
:1003A0006D817E818F8198850E94B30B67966CAFBB
:1003B0007DAF8EAF9FAF679765968EAD9FAD65970A
:1003C0009A87898789859A859E878D878D859E8561
:1003D0000197F1F79E878D87000080911A02909116
:1003E0001B028A30910511F008F0ACC01092030294
:1003F0001092020210920502109204020E94100351
:1004000080E090E0AAE7B4E48D8F9E8FAF8FB8A311
:1004100020E030E04AE755E46D8D7E8D8F8D98A108
:100420000E94710C6B966CAF7DAF8EAF9FAF6B97D8
:100430006B968CAD9DADAEADBFAD6B9789A39AA306
:10044000ABA3BCA320E030E040E85FE369A17AA160
:100450008BA19CA10E94AE0B88232CF481E090E03C
:100460009EA38DA362C020E03FEF4FE757E469A150
:100470007AA18BA19CA10E946C0C882309F00CF43A
:1004800042C020E030E040E251E46D8D7E8D8F8DE2
:1004900098A10E94710C6F966CAF7DAF8EAF9FAF2D
:1004A0006F976F968CAD9DADAEADBFAD6F978BABBB
:1004B0009CABADABBEAB6BA97CA98DA99EA90E94DC
:1004C000B30BA3966CAF7DAF8EAF9FAFA397A196F2
:1004D000AEADBFADA197BEA3ADA310C080E991E0C2
:1004E00098A78FA38FA198A50197F1F798A78FA33D
:1004F00000008DA19EA101979EA38DA38DA19EA119
:10050000009761F71DC069A17AA18BA19CA10E94EF
:10051000B30BA7966CAF7DAF8EAF9FAFA797A59695
:100520008EAD9FADA5979EA38DA38DA19EA19AA7E9
:1005300089A789A59AA50197F1F79AA789A700002D
:100540000E9421030000CA59DF4F0FB6F894DEBFA6
:100550000FBECDBFDF91CF910895CF93DF93CDB77D
:10056000DEB780911C0290911D028431910589F0C3
:1005700080F080912002909121028431910549F010
:1005800040F080911E0290911F028431910509F084
:1005900050F482E790E0FC01208182E790E02E7F1A
:1005A000FC0120830AC082E790E0FC01208182E701
:1005B00090E02160FC01208300000000DF91CF91DA
:1005C0000895CF93DF93CDB7DEB78AE091E0FC01C9
:1005D00020818AE091E02860FC01208380E291E0A4
:1005E00021E8FC01208381E291E0FC01208181E28D
:1005F00091E02460FC01208381E291E0FC012081F4
:1006000081E291E02860FC01208388E291E020EC07
:1006100030E0FC01318320830000DF91CF91089509
:10062000CF93DF93CDB7DEB780E291E0FC0120816C
:1006300080E291E02068FC0120830000DF91CF91EF
:100640000895CF93DF93CDB7DEB780E291E0FC0150
:10065000208180E291E02F77FC0120830000DF9170
:10066000CF910895DF93CF93CDB7DEB7F894E0EA4A
:10067000F0E01082E1EAF0E01082E4EAF0E086E0E7
:1006800090E091838083A0EAB0E0E0EAF0E080812E
:1006900082608C93A1EAB0E0E1EAF0E080818360BF
:1006A0008C93A2E7B0E0E2E7F0E0808181608C9378
:1006B0007894CF91DF910895DF93CF93CDB7DEB7D4
:1006C000AD970FB6F894DEBF0FBECDBF9A83898376
:1006D00089819A818130910509F0F4C080910A02E4
:1006E0008B8390910B029C8380910C028D8390915F
:1006F0000D029E8380910E028F8390910F02988746
:10070000809110028987909111029A8781E08B87EE
:100710001C861D861E861F86188A198A1A8A9B8146
:100720008B85980F9B8B91E09B8F8B899B81891781
:1007300008F01B8E8C819C85890F8C8B81E08C8FBF
:100740009C898C81981708F01C8E9B8D8C89980F42
:100750009D8F91E09E8F8D8D9C89891708F01E8E4C
:100760008C8D9E8D892B8C8F8D8D8C8B9D818D8515
:10077000980F9D8B91E09F8F8D899D81891708F03F
:100780001F8E8C8D9D89890F88A381E089A398A1F4
:100790008D89981708F019A29F8D89A1982B9F8F9A
:1007A00098A19D8B8E819E85890F8E8B81E08AA377
:1007B0009E898E81981708F01AA29F8D8E89980FB6
:1007C0009BA391E09CA38BA19E89891708F01CA292
:1007D0008AA19CA1892B8AA38BA18E8B9F818F8557
:1007E000980F9F8B91E09DA38F899F81891708F0B7
:1007F0001DA28AA19F89890F8EA381E08FA39EA14C
:100800008F89981708F01FA29DA18FA1982B9DA3F7
:100810009EA19F8B88859889890F888F81E088A702
:10082000988D8885981708F018A69DA1888D980F37
:1008300099A791E09AA789A5988D891708F01AA61B
:1008400088A59AA5892B88A789A5888F99858989E4
:10085000980F998F91E09BA7898D9985891708F04A
:100860001BA688A5998D890F8CA781E08DA79CA5D3
:10087000898D981708F01DA69BA58DA5982B9BA781
:100880009CA5998F8A859A89890F8A8F8BA59A8DC5
:10089000890F8A8F2B893C894D895E896F89788D74
:1008A000898D9A8D20930A0230930B0240930C029B
:1008B00050930D0260930E0270930F02809310020A
:1008C0009093110220910A0230910B0240910C0288
:1008D00050910D0260910E0270910F0280911002F2
:1008E00090911102C901AD960FB6F894DEBF0FBE0C
:1008F000CDBFCF91DF9108951F920F920FB60F9247
:1009000000905B000F9211242F933F934F935F93BE
:100910006F937F938F939F93AF93BF93EF93FF93C7
:10092000DF93CF9300D00F92CDB7DEB7E4EAF0E0CB
:1009300086E090E09183808381E090E00E945C03F8
:1009400020911402309115028091020290910302CD
:10095000820F931F90931502809314022091060238
:10096000309107028091020290910302820F931F3F
:100970009093070280930602209112023091130295
:100980008091040290910502820F931F90931302AD
:100990008093120220910802309109028091040292
:1009A00090910502820F931F909309028093080291
:1009B00080911402909115022FEF8F3F920739F426
:1009C00087E090E090931502809314020BC0809111
:1009D0001402909115028830910521F410921502AD
:1009E0001092140280911202909113022FEF8F3F08
:1009F000920739F487E090E09093130280931202FB
:100A00000BC080911202909113028830910521F45D
:100A1000109213021092120280911402909115020A
:100A20009C838B838B819C8184309105C9F18B8160
:100A30009C818530910584F48B819C818230910565
:100A400029F18B819C81833091052CF58B819C81D0
:100A500081309105B1F03CC08B819C81863091053D
:100A600049F18B819C8186309105FCF08B819C81C2
:100A70008730910521F18B819C818830910521F18E
:100A800027C0E8E2F0E085E0808322C0E2E2F0E007
:100A900084E080831DC0E2E2F0E084E1808318C03E
:100AA000E2E2F0E080E1808313C0E2E2F0E080E582
:100AB00080830EC0E2E2F0E080E4808309C0E2E2DD
:100AC000F0E081E4808304C0E2E2F0E081E0808332
:100AD00080911202909113029A83898389819A816D
:100AE00084309105C9F189819A818530910584F41A
:100AF00089819A818230910529F189819A81833097
:100B000091052CF589819A8181309105B1F03CC025
:100B100089819A818630910549F189819A8186304F
:100B20009105FCF089819A818730910521F18981B5
:100B30009A818830910521F127C0E8E2F0E08AE04F
:100B4000808322C0E2E2F0E082E080831DC0E2E226
:100B5000F0E082E8808318C0E2E2F0E080E8808381
:100B600013C0E2E2F0E080EA80830EC0E2E2F0E04F
:100B700080E2808309C0E2E2F0E088E2808304C082
:100B8000E2E2F0E088E080830F900F900F900F90EA
:100B9000CF91DF91FF91EF91BF91AF919F918F9195
:100BA0007F916F915F914F913F912F910F900092A4
:100BB0005B000F900FBE0F901F901895DF93CF939F
:100BC00000D00F92CDB7DEB79A83898389819A814D
:100BD00081309105A9F4109207021092060210923A
:100BE00009021092080281E090E09093170280932E
:100BF000160281E090E09C838B838B819C8100C0F6
:100C00000F900F900F900F90CF91DF910895CF9399
:100C1000DF93CDB7DEB7F89484E290E020EEFC01DC
:100C2000208381E290E02FEFFC01208380E990E0B7
:100C3000FC01208180E990E02268FC01208381E9A9
:100C400090E0FC01208181E990E02A61FC01208391
:100C500086E990E020E030E8FC013183208388E9D8
:100C600090E024E130E0FC01318320838AE990E0C8
:100C700028E833E1FC01318320838DE290E0FC0120
:100C800020818DE290E02860FC01208381E790E0E4
:100C9000FC01208181E790E02462FC01208388E64A
:100CA00090E0FC01208188E690E02460FC01208334
:100CB00078940000DF91CF9108951F920F920FB6A4
:100CC0000F9211240BB60F922F938F939F93EF9354
:100CD000FF93CF93DF93CDB7DEB785E290E0FC01C1
:100CE000208185E290E02064FC01208385E290E091
:100CF000FC01208185E290E02F7BFC012083809124
:100D00000002880F8093000280910002803419F461
:100D100082E0809300028DE690E020910002FC01C9
:100D200020838BE390E0FC0120818BE390E0246042
:100D3000FC01208388E390E0FC01208188E390E0BF
:100D40002062FC0120830000DF91CF91FF91EF91A1
:100D50009F918F912F910F900BBE0F900FBE0F9010
:100D60001F9018951F920F920FB60F9211240BB679
:100D70000F922F933F938F939F93EF93FF93CF9374
:100D8000DF93CDB7DEB785E290E0FC01208185E2FC
:100D900090E02062FC01208385E290E0FC0120814C
:100DA00085E290E02F7DFC01208380910002882F56
:100DB00090E09C012095309582E290E0FC018081DA
:100DC000982F822F292F282382E290E0FC01208394
:100DD00080910002823051F486E990E0FC0180812C
:100DE000918190931B0280931A0237C08091000278
:100DF000843051F486E990E0FC01808191819093E8
:100E000019028093180229C080910002883051F4A1
:100E100086E990E0FC01808191819093210280938A
:100E200020021BC080910002803151F486E990E0DD
:100E3000FC018081918190931F0280931E020DC05E
:100E400080910002803249F486E990E0FC018081C3
:100E5000918190931D0280931C028BE390E0FC0132
:100E600020818BE390E02B7FFC0120830000DF9149
:100E7000CF91FF91EF919F918F913F912F910F9083
:100E80000BBE0F900FBE0F901F9018951F920F92E0
:100E90000FB60F9211240BB60F922F933F934F93DF
:100EA0005F936F937F938F939F93AF93BF93EF93D2
:100EB000FF93CF93DF93CDB7DEB7C456D109DEBF22
:100EC000CDBF80910002823009F04CC084E990E0EF
:100ED000DC018D919C9186569141969587959695CA
:100EE00087959C0140E050E029A73AA74BA75CA753
:100EF00069A57AA58BA59CA50E94E20B69837A83DC
:100F00008B839C8328E23EE74CE05DE369817A8134
:100F10008B819C810E94710C6DA77EA78FA798ABD7
:100F20008DA59EA5AFA5B8A98D839E83AF83B887F5
:100F30006D817E818F8198850E94B30B69AB7AABFE
:100F40008BAB9CAB89A99AA990931B0280931A0240
:100F500082E290E0DC012C9182E290E02E7FFC01A5
:100F6000208369C180910002843009F04EC084E979
:100F700090E0DC018D919C918656914196958795E4
:100F8000969587959C0140E050E02DAB3EAB4FAB72
:100F900058AF6DA97EA98FA998AD0E94E20B698711
:100FA0007A878B879C8728E23EE74CE05DE3698582
:100FB0007A858B859C850E94710C69AF7AAF8BAF67
:100FC0009CAF89AD9AADABADBCAD8D879E87AF8729
:100FD000B88B6D857E858F8598890E94B30B21968D
:100FE0006CAF7DAF8EAF9FAF21978DAD9EAD9093CF
:100FF00019028093180282E290E0DC012C9182E2D7
:1010000090E02D7FFC01208316C180910002883082
:1010100009F058C084E990E0DC018D919C918656DE
:10102000914196958795969587959C0140E050E073
:1010300025962CAF3DAF4EAF5FAF259725966CAD93
:101040007DAD8EAD9FAD25970E94E20B698B7A8BAB
:101050008B8B9C8B28E23EE74CE05DE369897A89C3
:101060008B899C890E94710C29966CAF7DAF8EAFE5
:101070009FAF299729968CAD9DADAEADBFAD299799
:101080008D8B9E8BAF8BB88F6D897E898F89988D64
:101090000E94B30B2D966CAF7DAF8EAF9FAF2D9797
:1010A0002B968EAD9FAD2B979093210280932002BB
:1010B00082E290E0DC012C9182E290E02B7FFC0147
:1010C0002083B9C080910002803109F058C084E9C2
:1010D00090E0DC018D919C91865691419695879583
:1010E000969587959C0140E050E061962CAF3DAF0E
:1010F0004EAF5FAF619761966CAD7DAD8EAD9FAD2C
:1011000061970E94E20B698F7A8F8B8F9C8F28E208
:101110003EE74CE05DE3698D7A8D8B8D9C8D0E945E
:10112000710C65966CAF7DAF8EAF9FAF659765967E
:101130008CAD9DADAEADBFAD65978D8F9E8FAF8FE2
:10114000B8A36D8D7E8D8F8D98A10E94B30B69968B
:101150006CAF7DAF8EAF9FAF699767968EAD9FAD39
:10116000679790931F0280931E0282E290E0DC0159
:101170002C9182E290E0277FFC0120835CC080916B
:101180000002803209F057C084E990E0DC018D91C3
:101190009C918656914196958795969587959C0149
:1011A00040E050E06D962CAF3DAF4EAF5FAF6D9716
:1011B0006D966CAD7DAD8EAD9FAD6D970E94E20BCF
:1011C00069A37AA38BA39CA328E23EE74CE05DE3EE
:1011D00069A17AA18BA19CA10E94710CA1966CAF10
:1011E0007DAF8EAF9FAFA197A1968CAD9DADAEADFB
:1011F000BFADA1978DA39EA3AFA3B8A76DA17EA1FC
:101200008FA198A50E94B30BA5966CAF7DAF8EAF52
:101210009FAFA597A3968EAD9FADA39790931D0208
:1012200080931C0282E290E0DC012C9182E290E04B
:101230002F7EFC01208388E390E0DC012C9188E381
:1012400090E02F7DFC0120838BE390E0DC012C916A
:101250008BE390E02B7FFC0120830000CC59DF4F13
:101260000FB6F894DEBF0FBECDBFDF91CF91FF91D7
:10127000EF91BF91AF919F918F917F916F915F910E
:101280004F913F912F910F900BBE0F900FBE0F907B
:101290001F901895CF93DF93CDB7DEB780911C02D6
:1012A00090911D028431910509F058F410920302C7
:1012B0001092020281E090E0909305028093040274
:1012C00030C080912002909121028431910509F073
:1012D00058F481E090E09093030280930202109210
:1012E0000502109204021DC080911E0290911F02FF
:1012F0008431910509F068F481E090E09093030255
:101300008093020281E090E09093050280930402B2
:1013100008C010920302109202021092050210926D
:1013200004020000DF91CF910895DF93CF9300D0A6
:101330000F92CDB7DEB79A8389837C836B838981D3
:101340009A81883391059CF18B819C81883391052A
:1013500074F18091220290912302009751F410922F
:1013600007021092060281E090E09093230280939E
:1013700022028091060290910702843091055CF46C
:1013800081E090E0909303028093020210920502A4
:10139000109204020CC081E090E0909303028093CD
:1013A000020281E090E0909305028093040289811B
:1013B0009A81883391052CF08B819C81883391052B
:1013C0004CF410920702109206021092230210921F
:1013D000220233C08B819C818D32910574F58091FE
:1013E000240290912502009751F410920902109264
:1013F000080281E090E0909325028093240280917E
:10140000080290910902843091055CF41092030265
:101410001092020281E090E0909305028093040212
:101420000CC081E090E0909303028093020281E07F
:1014300090E090930502809304028B819C818D3211
:1014400091054CF0109209021092080210922502A8
:101450001092240241C029813A818B819C812817F6
:10146000390769F481E090E09093030280930202CF
:1014700081E090E090930502809304022DC02981C1
:101480003A818B819C818217930784F489819A81A8
:10149000823391050CF181E090E0909303028093F8
:1014A0000202109205021092040216C029813A81AC
:1014B0008B819C81281739077CF489819A8182333A
:1014C000910554F4109203021092020281E090E020
:1014D00090930502809304020F900F900F900F904D
:1014E000CF91DF910895CF93DF93CDB7DEB7C4548A
:1014F000D1090FB6F894DEBF0FBECDBF0E94E10246
:101500000E9407060E94100380E090E0AAE7B4E47E
:101510008F87988BA98BBA8B20E030E04AE755E49F
:101520006F85788989899A890E94710C6DA37EA341
:101530008FA398A78DA19EA1AFA1B8A58B8B9C8BE3
:10154000AD8BBE8B20E030E040E85FE36B897C89A7
:101550008D899E890E94AE0B88232CF481E090E057
:10156000988F8F8B55C020E03FEF4FE757E46B8992
:101570007C898D899E890E946C0C8823D9F1D4F1D5
:1015800020E030E040E251E46F85788989899A89CA
:101590000E94710C69A77AA78BA79CA789A59AA519
:1015A000ABA5BCA589A39AA3ABA3BCA369A17AA14F
:1015B0008BA19CA10E94B30B6DA77EA78FA798ABB0
:1015C000ADA5BEA5B88FAF8B10C080E991E09A8F12
:1015D000898F898D9A8D0197F1F79A8F898F0000F5
:1015E0008F89988D0197988F8F8B8F89988D009711
:1015F00061F719C06B897C898D899E890E94B30B24
:1016000069AB7AAB8BAB9CAB89A99AA9988F8F8B6E
:101610008F89988D9C8F8B8F8B8D9C8D0197F1F787
:101620009C8F8B8F00000E94210380E090E0AAE74E
:10163000B4E489839A83AB83BC8320E030E04AE73B
:1016400055E469817A818B819C810E94710C6DAB1C
:101650007EAB8FAB98AF8DA99EA9AFA9B8AD8D8396
:101660009E83AF83B88720E030E040E85FE36D8180
:101670007E818F8198850E94AE0B88232CF481E0B7
:1016800090E09A8789875CC020E03FEF4FE757E4FE
:101690006D817E818F8198850E946C0C882309F072
:1016A0000CF43CC020E030E040E251E469817A81F2
:1016B0008B819C810E94710C69AF7AAF8BAF9CAF1C
:1016C00089AD9AADABADBCAD8D8F9E8FAF8FB8A3FA
:1016D0006D8D7E8D8F8D98A10E94B30B21966CAF7E
:1016E0007DAF8EAF9FAF2197ADADBEADBA87A98755
:1016F00010C080E991E09C878B878B859C85019742
:10170000F1F79C878B87000089859A8501979A87D6
:10171000898789859A85009761F71DC06D817E81D3
:101720008F8198850E94B30B25966CAF7DAF8EAFED
:101730009FAF259723968EAD9FAD23979A87898774
:1017400089859A859E878D878D859E850197F1F77E
:101750009E878D8700000E949500FDCF0E941F0C80
:1017600008F481E008950E944B0C88F09F5798F090
:10177000B92F9927B751B0F0E1F0660F771F881F96
:10178000991F1AF0BA95C9F714C0B13091F00E94B0
:10179000650CB1E008950C94650C672F782F8827AD
:1017A000B85F39F0B93FCCF3869577956795B395D7
:1017B000D9F73EF490958095709561957F4F8F4F46
:1017C0009F4F0895E89409C097FB3EF4909580954B
:1017D000709561957F4F8F4F9F4F9923A9F0F92FF7
:1017E00096E9BB279395F695879577956795B79575
:1017F000F111F8CFFAF4BB0F11F460FF1BC06F5F5B
:101800007F4F8F4F9F4F16C0882311F096E911C06C
:10181000772321F09EE8872F762F05C0662371F08D
:1018200096E8862F70E060E02AF09A95660F771FA1
:10183000881FDAF7880F9695879597F90895990F7D
:101840000008550FAA0BE0E8FEEF16161706E8078A
:10185000F907C0F012161306E407F50798F0621BAB
:10186000730B840B950B39F40A2661F0232B242B80
:10187000252B21F408950A2609F4A140A6958FEF9F
:10188000811D811D089557FD9058440F551F59F033
:101890005F3F71F04795880F97FB991F61F09F3F5D
:1018A00079F087950895121613061406551FF2CF86
:1018B0004695F1DF08C0161617061806991FF1CFD6
:1018C00086957105610508940895E894BB276627FD
:1018D0007727CB0197F908950E941F0C08F48FEF2A
:1018E00008950E94840C0C94F50C0E94E70C38F0CB
:1018F0000E94EE0C20F0952311F00C94DE0C0C9459
:10190000E40C11240C94660C0E94430C70F3959F18
:10191000C1F3950F50E0551F629FF001729FBB27E6
:10192000F00DB11D639FAA27F00DB11DAA1F649F82
:101930006627B00DA11D661F829F2227B00DA11D35
:10194000621F739FB00DA11D621F839FA00D611DBB
:10195000221F749F3327A00D611D231F849F600DDC
:10196000211D822F762F6A2F11249F5750409AF005
:10197000F1F088234AF0EE0FFF1FBB1F661F771F91
:10198000881F91505040A9F79E3F510580F00C945C
:10199000DE0C0C94660C5F3FE4F3983ED4F386951E
:1019A00077956795B795F795E7959F5FC1F7FE2BFC
:1019B000880F911D9695879597F9089597F99F67D8
:1019C00080E870E060E008959FEF80EC08950024C7
:1019D0000A941616170618060906089500240A9494
:1019E00012161306140605060895092E0394000C1A
:1019F00011F4882352F0BB0F40F4BF2B11F460FFA9
:101A000004C06F5F7F4F8F4F9F4F0895F894FFCFB3
:021A10000200D2
:00000001FF
