:100000000C9492000C94B3000C94B3000C94B300C5
:100010000C94B3000C94B3000C94B3000C94B30094
:100020000C94B3000C94B3000C94B3000C94D70858
:100030000C94B3000C94B3000C94B3000C94B30074
:100040000C94B3000C94B3000C94B3000C94B30064
:100050000C94B3000C94B3000C94B3000C94B30054
:100060000C94B3000C94B3000C94B3000C94B30044
:100070000C94B3000C94B3000C94B3000C940E07D2
:100080000C94B3000C94D4060C94B3000C94B300FD
:100090000C94B3000C94B3000C94B3000C94B30014
:1000A0000C94B3000C94B3000C94B3000C94B30004
:1000B0000C94B3000C94B0040C94B3000C94B300F3
:1000C0000C94B3000C94B3000C94B3000C94B300E4
:1000D0000C94B3000C94B3000C94B3000C94B300D4
:1000E0000C94B3000C9454050C94C0050C94780542
:1000F0000C94AE050C94A8050C9460050C949C051A
:100100000C94C6050C946C050C9472050C945A055D
:100110000C9466050C94BA050C94A2050C94B405D5
:100120000C947E0511241FBECFEFD1E2DEBFCDBF00
:1001300000E00CBF12E0A0E0B2E0E4E6FBE100E08A
:100140000BBF02C007900D92A230B107D9F722E091
:10015000A2E0B2E001C01D92A432B207E1F70E9412
:100160002B0C0C94A00D0C940000CF93DF93CDB713
:10017000DEB7C858D1090FB6F894DEBF0FBECDBFA9
:1001800080911602909117028A30910511F008F0C3
:1001900050C11092030210920202109205021092B6
:1001A00004020E94F00380E090E0A8ECB3E48F87A3
:1001B000988BA98BBA8B20E030E04AE755E46F8535
:1001C000788989899A890E940B0D2D966CAF7DAF35
:1001D0008EAF9FAF2D972D968CAD9DADAEADBFADC3
:1001E0002D978B8B9C8BAD8BBE8B20E030E040E855
:1001F0005FE36B897C898D899E890E94480C8823E6
:100200002CF481E090E0988F8F8B66C020E03FEF68
:100210004FE757E46B897C898D899E890E94060D82
:10022000882309F00CF446C020E030E040E251E4BD
:100230006F85788989899A890E940B0D61966CAFC8
:100240007DAF8EAF9FAF619761968CAD9DADAEAD2A
:10025000BFAD619721968CAF9DAFAEAFBFAF219779
:1002600021966CAD7DAD8EAD9FAD21970E944D0C5A
:1002700065966CAF7DAF8EAF9FAF65976396AEAD61
:10028000BFAD6397B88FAF8B10C080E991E09A8FB4
:10029000898F898D9A8D0197F1F79A8F898F000048
:1002A0008F89988D0197988F8F8B8F89988D009764
:1002B00061F71DC06B897C898D899E890E944D0CD8
:1002C00069966CAF7DAF8EAF9FAF699767968EAD25
:1002D0009FAD6797988F8F8B8F89988D9C8F8B8F11
:1002E0008B8D9C8D0197F1F79C8F8B8F00000E9466
:1002F000010480E090E0AAE7B4E489839A83AB83A9
:10030000BC8320E030E04AE755E469817A818B8143
:100310009C810E940B0D6D966CAF7DAF8EAF9FAF31
:100320006D976D968CAD9DADAEADBFAD6D978D8368
:100330009E83AF83B88720E030E040E85FE36D81C3
:100340007E818F8198850E94480C88232CF481E05F
:1003500090E09A87898762C020E03FEF4FE757E43B
:100360006D817E818F8198850E94060D882309F01A
:100370000CF442C020E030E040E251E469817A812F
:100380008B819C810E940B0DA1966CAF7DAF8EAFCF
:100390009FAFA197A1968CAD9DADAEADBFADA1971E
:1003A00089AF9AAFABAFBCAF69AD7AAD8BAD9CAD49
:1003B0000E944D0CA5966CAF7DAF8EAF9FAFA597F9
:1003C000A396AEADBFADA397BA87A98710C080E949
:1003D00091E09C878B878B859C850197F1F79C87A3
:1003E0008B87000089859A8501979A8789878985F7
:1003F0009A85009761F71DC06D817E818F819885F8
:100400000E944D0CA9966CAF7DAF8EAF9FAFA997A0
:10041000A7968EAD9FADA7979A87898789859A857C
:100420009E878D878D859E850197F1F79E878D87A5
:10043000000080911802909119028A30910511F004
:1004400008F060C11092030210920202109205029D
:10045000109204020E94F00380E090E0A8ECB3E464
:100460008BA79CA7ADA7BEA720E030E04AE755E4E4
:100470006BA57CA58DA59EA50E940B0DAD966CAFBE
:100480007DAF8EAF9FAFAD97AD968CAD9DADAEAD50
:10049000BFADAD978FA798ABA9ABBAAB20E030E06A
:1004A00040E85FE36FA578A989A99AA90E94480C42
:1004B00088232CF481E090E09CAB8BAB66C020E0FD
:1004C0003FEF4FE757E46FA578A989A99AA90E9441
:1004D000060D882309F00CF446C020E030E040E22D
:1004E00051E46BA57CA58DA59EA50E940B0DE19600
:1004F0006CAF7DAF8EAF9FAFE197E1968CAD9DADB8
:10050000AEADBFADE19729968CAF9DAFAEAFBFAF9B
:10051000299729966CAD7DAD8EAD9FAD29970E9430
:100520004D0CE5966CAF7DAF8EAF9FAFE597E39630
:10053000AEADBFADE397BCABABAB10C080E991E013
:100540009EAB8DAB8DA99EA90197F1F79EAB8DABAC
:1005500000008BA99CA901979CAB8BAB8BA99CA994
:10056000009761F71DC06FA578A989A99AA90E9473
:100570004D0CE9966CAF7DAF8EAF9FAFE997E796D4
:100580008EAD9FADE7979CAB8BAB8BA99CA998AF29
:100590008FAB8FA998AD0197F1F798AF8FAB0000A3
:1005A0000E94010480E090E0AAE7B4E48D8F9E8F62
:1005B000AF8FB8A320E030E04AE755E46D8D7E8D23
:1005C0008F8D98A10E940B0DED966CAF7DAF8EAF15
:1005D0009FAFED97ED968CAD9DADAEADBFADED97F8
:1005E00089A39AA3ABA3BCA320E030E040E85FE37B
:1005F00069A17AA18BA19CA10E94480C88232CF4AC
:1006000081E090E09EA38DA372C020E03FEF4FE712
:1006100057E469A17AA18BA19CA10E94060D8823B1
:1006200009F00CF44EC020E030E040E251E46D8D62
:100630007E8D8F8D98A10E940B0DC358DF4F68836C
:1006400079838A839B83CD57D040C358DF4F8881FD
:100650009981AA81BB81CD57D04025968CAF9DAFA3
:10066000AEAFBFAF259725966CAD7DAD8EAD9FAD7E
:1006700025970E944D0CCF57DF4F688379838A837B
:100680009B83C158D040CF57DF4FA881B981C15853
:10069000D040BEA3ADA310C080E991E098A78FA37E
:1006A0008FA198A50197F1F798A78FA300008DA1BE
:1006B0009EA101979EA38DA38DA19EA1009761F796
:1006C00021C069A17AA18BA19CA10E944D0CCB579E
:1006D000DF4F688379838A839B83C558D040CB578B
:1006E000DF4F88819981C558D0409EA38DA38DA1ED
:1006F0009EA19AA789A789A59AA50197F1F79AA71C
:1007000089A700000000C857DF4F0FB6F894DEBF7E
:100710000FBECDBFDF91CF910895CF93DF93CDB7BB
:10072000DEB780911A0290911B028730910589F003
:1007300080F080911E0290911F028431910549F052
:1007400040F080911C0290911D028431910509F0C6
:1007500050F482E790E0FC01208182E790E02E7F58
:10076000FC0120830AC082E790E0FC01208182E73F
:1007700090E02160FC01208300000000DF91CF9118
:100780000895CF93DF93CDB7DEB78AE091E0FC0107
:1007900020818AE091E02860FC01208380E291E0E2
:1007A00021E8FC01208381E291E0FC01208181E2CB
:1007B00091E02460FC01208381E291E0FC01208132
:1007C00081E291E02860FC01208388E291E020EC46
:1007D00030E0FC01318320830000DF91CF91089548
:1007E000CF93DF93CDB7DEB780E291E0FC012081AB
:1007F00080E291E02068FC0120830000DF91CF912E
:100800000895CF93DF93CDB7DEB780E291E0FC018E
:10081000208180E291E02F77FC0120830000DF91AE
:10082000CF910895CF93DF93CDB7DEB7F89480EAE8
:1008300090E0FC01108281EA90E0FC01108284EAE1
:1008400090E026E030E0FC013183208380EA90E0F4
:10085000FC01208180EA90E02260FC01208381EA93
:1008600090E0FC01208181EA90E02360FC0120837C
:1008700082E790E0FC01208182E790E02160FC01AA
:10088000208378940000DF91CF9108958F929F92FA
:10089000AF92BF92CF92DF92EF92FF920F931F938E
:1008A000CF93DF930F920F92CDB7DEB79A838983F0
:1008B00089819A818130910599F580900A02909002
:1008C0000B02A0900C02B0900D02C0900E02D090CE
:1008D0000F02E0901002F0901102282D392D4A2DC0
:1008E0005B2D6C2D7D2D8E2D9F2DA1E00E943C0C4B
:1008F000822E932EA42EB52EC62ED72EE82EF92E9C
:1009000080920A0290920B02A0920C02B0920D0209
:10091000C0920E02D0920F02E0921002F0921102E9
:1009200000910A0210910B0220910C0230910D02ED
:1009300040910E0250910F026091100270911102CD
:10094000C8010F900F90DF91CF911F910F91FF90F1
:10095000EF90DF90CF90BF90AF909F908F900895D1
:100960001F920F920FB60F9211240BB60F922F9376
:100970003F934F935F936F937F938F939F93AF9327
:10098000BF93EF93FF93CF93DF93CDB7DEB784EAA6
:1009900090E026E030E0FC013183208381E090E0AC
:1009A0000E944604209112023091130280910202AB
:1009B00090910302820F931F90931302809312026F
:1009C0002091060230910702809102029091030269
:1009D000820F931F909307028093060220911402C6
:1009E000309115028091040290910502820F931FAD
:1009F000909315028093140220910802309109020D
:100A00008091040290910502820F931F9093090236
:100A10008093080280911202909113028F3F9807F1
:100A200039F487E090E090931302809312020BC098
:100A300080911202909113028830910521F4109256
:100A400013021092120280911402909115028F3FAE
:100A5000980739F487E090E0909315028093140290
:100A60000BC080911402909115028830910521F4F9
:100A700010921502109214028091120290911302AA
:100A8000092E000CAA0BBB0B0197A109B1098730F5
:100A90009105A105B10509F0B8F5FC018827EE55CF
:100AA000F24F8F4F0C94340C88E290E025E0FC016B
:100AB00020832AC088E290E024E0FC01208324C047
:100AC00088E290E024E1FC0120831EC088E290E0EF
:100AD00020E1FC01208318C088E290E020E5FC01C1
:100AE000208312C088E290E020E4FC0120830CC047
:100AF00088E290E021E4FC01208306C088E290E0D7
:100B000021E0FC01208300008091120290911302E9
:100B1000092E000CAA0BBB0B0197A109B109873064
:100B20009105A105B10509F0B8F5FC018827E65546
:100B3000F24F8F4F0C94340C82E290E02AE0FC01DB
:100B400020832AC082E290E022E0FC01208324C0BE
:100B500082E290E022E8FC0120831EC082E290E065
:100B600020E8FC01208318C082E290E020EAFC012A
:100B7000208312C082E290E020E2FC0120830CC0BE
:100B800082E290E028E2FC01208306C082E290E04D
:100B900028E0FC01208300000000DF91CF91FF914D
:100BA000EF91BF91AF919F918F917F916F915F91E5
:100BB0004F913F912F910F900BBE0F900FBE0F9052
:100BC0001F901895CF93DF93CDB7DEB71092070231
:100BD0001092060210920902109208020CC081E0E5
:100BE00090E0909303028093020281E090E0909362
:100BF00005028093040280910602909107028F30D3
:100C000022E0920761F35CF3109207021092060251
:100C100010920902109208020CC081E090E09093BB
:100C20000302809302028FEF9FEF9093050280935F
:100C3000040280910602909107028B3221E0920714
:100C400061F35CF3109207021092060210920902FF
:100C5000109208020CC081E090E090930302809310
:100C6000020281E090E0909305028093040280915B
:100C7000060290910702873E23E0920761F35CF33E
:100C800010920702109206021092090210920802B6
:100C90000CC081E090E090930302809302028FEFFA
:100CA0009FEF909305028093040280910602909139
:100CB00007028B3221E0920761F35CF30CC081E004
:100CC00090E0909303028093020281E090E0909381
:100CD00005028093040280910602909107028B33F3
:100CE00023E0920761F35CF3109207021092060270
:100CF000109209021092080210920302109202024E
:100D000010920502109204020000DF91CF91089525
:100D1000CF93DF93CDB7DEB7F89480E990E0FC0184
:100D2000208180E990E02268FC01208381E990E045
:100D3000FC01208181E990E02A61FC01208386E9A1
:100D400090E020E030E8FC013183208388E990E0E6
:100D500024E130E0FC01318320838AE990E024E93A
:100D600031E1FC01318320838DE290E0FC012081A0
:100D70008DE290E02860FC01208381E790E0FC0197
:100D8000208181E790E02462FC01208388E690E0E6
:100D9000FC01208188E690E02460FC0120837894A7
:100DA0000000DF91CF9108951F920F920FB60F921E
:100DB00011240BB60F922F938F939F93EF93FF9372
:100DC000CF93DF93CDB7DEB780910002880F809379
:100DD000000280910002803419F482E080930002C6
:100DE0008DE690E020910002FC01208381E790E0F5
:100DF000FC01208181E790E02460FC012083000059
:100E0000DF91CF91FF91EF919F918F912F910F9053
:100E10000BBE0F900FBE0F901F9018951F920F9250
:100E20000FB60F9211240BB60F922F933F934F934F
:100E30005F936F937F938F939F93AF93BF93EF9342
:100E4000FF93CF93DF93CDB7DEB7C456D109DEBF92
:100E5000CDBF80910002823009F043C086E990E066
:100E6000DC018D919C91865691419695879596953A
:100E700087959C0140E050E029A73AA74BA75CA7C3
:100E800069A57AA58BA59CA50E947C0C69837A83B1
:100E90008B839C8328E23EE74CE05DE369817A81A5
:100EA0008B819C810E940B0D6DA77EA78FA798ABAD
:100EB0008DA59EA5AFA5B8A98D839E83AF83B88766
:100EC0006D817E818F8198850E944D0C69AB7AABD4
:100ED0008BAB9CAB89A99AA99093190280931802B5
:100EE00045C180910002843009F045C086E990E058
:100EF000DC018D919C9186569141969587959695AA
:100F000087959C0140E050E02DAB3EAB4FAB58AF16
:100F10006DA97EA98FA998AD0E947C0C69877A87FC
:100F20008B879C8728E23EE74CE05DE369857A8504
:100F30008B859C850E940B0D69AF7AAF8BAF9CAF00
:100F400089AD9AADABADBCAD8D879E87AF87B88BB1
:100F50006D857E858F8598890E944D0C21966CAF9A
:100F60007DAF8EAF9FAF21978DAD9EAD9093170251
:100F700080931602FBC080910002883009F04FC0B8
:100F800086E990E0DC018D919C9186569141969581
:100F90008795969587959C0140E050E025962CAF6B
:100FA0003DAF4EAF5FAF259725966CAD7DAD8EAD55
:100FB0009FAD25970E947C0C698B7A8B8B8B9C8BC9
:100FC00028E23EE74CE05DE369897A898B899C8958
:100FD0000E940B0D29966CAF7DAF8EAF9FAF299706
:100FE00029968CAD9DADAEADBFAD29978D8B9E8BF7
:100FF000AF8BB88F6D897E898F89988D0E944D0C3B
:101000002D966CAF7DAF8EAF9FAF2D972B968EAD8B
:101010009FAD2B9790931F0280931E02A7C08091D3
:101020000002803109F04FC086E990E0DC018D912B
:101030009C918656914196958795969587959C01AA
:1010400040E050E061962CAF3DAF4EAF5FAF61978F
:1010500061966CAD7DAD8EAD9FAD61970E947C0CAD
:10106000698F7A8F8B8F9C8F28E23EE74CE05DE39F
:10107000698D7A8D8B8D9C8D0E940B0D65966CAF62
:101080007DAF8EAF9FAF659765968CAD9DADAEADD4
:10109000BFAD65978D8F9E8FAF8FB8A36D8D7E8D01
:1010A0008F8D98A10E944D0C69966CAF7DAF8EAF6D
:1010B0009FAF699767968EAD9FAD679790931D021E
:1010C00080931C0253C080910002803209F04EC010
:1010D00086E990E0DC018D919C9186569141969530
:1010E0008795969587959C0140E050E06D962CAFD2
:1010F0003DAF4EAF5FAF6D976D966CAD7DAD8EAD74
:101100009FAD6D970E947C0C69A37AA38BA39CA3CF
:1011100028E23EE74CE05DE369A17AA18BA19CA1A6
:101120000E940B0DA1966CAF7DAF8EAF9FAFA197C4
:10113000A1968CAD9DADAEADBFADA1978DA39EA385
:10114000AFA3B8A76DA17EA18FA198A50E944D0C59
:10115000A5966CAF7DAF8EAF9FAFA597A3968EADD2
:101160009FADA39790931B0280931A028DE690E0A7
:10117000DC011C920000CC59DF4F0FB6F894DEBFA3
:101180000FBECDBFDF91CF91FF91EF91BF91AF9196
:101190009F918F917F916F915F914F913F912F918F
:1011A0000F900BBE0F900FBE0F901F9018951F92BF
:1011B0000F920FB60F9211240BB60F922F933F93FD
:1011C0004F935F936F937F938F939F93AF93BF934F
:1011D000EF93FF93CF93DF93CDB7DEB7C456D1091A
:1011E000DEBFCDBF80910002823009F04CC084E99F
:1011F00090E0DC018D919C91865691419695879562
:10120000969587959C0140E050E029A73AA74BA707
:101210005CA769A57AA58BA59CA50E947C0C698317
:101220007A838B839C8328E23EE74CE05DE369810F
:101230007A818B819C810E940B0D6DA77EA78FA761
:1012400098AB8DA59EA5AFA5B8A98D839E83AF83CE
:10125000B8876D817E818F8198850E944D0C69AB26
:101260007AAB8BAB9CAB89A99AA990931902809316
:10127000180282E290E0DC012C9182E290E02E7F65
:10128000FC01208369C180910002843009F04EC0C6
:1012900084E990E0DC018D919C9186569141969570
:1012A0008795969587959C0140E050E02DAB3EAB2D
:1012B0004FAB58AF6DA97EA98FA998AD0E947C0C49
:1012C00069877A878B879C8728E23EE74CE05DE35D
:1012D00069857A858B859C850E940B0D69AF7AAFF5
:1012E0008BAF9CAF89AD9AADABADBCAD8D879E8702
:1012F000AF87B88B6D857E858F8598890E944D0C50
:1013000021966CAF7DAF8EAF9FAF21978DAD9EAD17
:10131000909317028093160282E290E0DC012C91F8
:1013200082E290E02D7FFC01208316C180910002B3
:10133000883009F058C084E990E0DC018D919C91DF
:101340008656914196958795969587959C0140E0A4
:1013500050E025962CAF3DAF4EAF5FAF2597259659
:101360006CAD7DAD8EAD9FAD25970E947C0C698BD9
:101370007A8B8B8B9C8B28E23EE74CE05DE369899E
:101380007A898B899C890E940B0D29966CAF7DAF61
:101390008EAF9FAF299729968CAD9DADAEADBFADF9
:1013A00029978D8B9E8BAF8BB88F6D897E898F89A6
:1013B000988D0E944D0C2D966CAF7DAF8EAF9FAF78
:1013C0002D972B968EAD9FAD2B9790931F028093F8
:1013D0001E0282E290E0DC012C9182E290E02B7F01
:1013E000FC012083B9C080910002803109F058C00F
:1013F00084E990E0DC018D919C918656914196950F
:101400008795969587959C0140E050E061962CAFBA
:101410003DAF4EAF5FAF619761966CAD7DAD8EAD68
:101420009FAD61970E947C0C698F7A8F8B8F9C8F08
:1014300028E23EE74CE05DE3698D7A8D8B8D9C8DD3
:101440000E940B0D65966CAF7DAF8EAF9FAF659719
:1014500065968CAD9DADAEADBFAD65978D8F9E8F02
:10146000AF8FB8A36D8D7E8D8F8D98A10E944D0C8E
:1014700069966CAF7DAF8EAF9FAF699767968EAD63
:101480009FAD679790931D0280931C0282E290E0CB
:10149000DC012C9182E290E0277FFC0120835CC07C
:1014A00080910002803209F057C084E990E0DC01AD
:1014B0008D919C91865691419695879596958795A5
:1014C0009C0140E050E06D962CAF3DAF4EAF5FAF5A
:1014D0006D976D966CAD7DAD8EAD9FAD6D970E9495
:1014E0007C0C69A37AA38BA39CA328E23EE74CE083
:1014F0005DE369A17AA18BA19CA10E940B0DA1962D
:101500006CAF7DAF8EAF9FAFA197A1968CAD9DAD17
:10151000AEADBFADA1978DA39EA3AFA3B8A76DA19C
:101520007EA18FA198A50E944D0CA5966CAF7DAFB2
:101530008EAF9FAFA597A3968EAD9FADA3979093C7
:101540001B0280931A0282E290E0DC012C9182E27D
:1015500090E02F7EFC01208381E790E0DC012C915C
:1015600081E790E02F7DFC0120838DE690E0DC0197
:101570001C920000CC59DF4F0FB6F894DEBF0FBEAF
:10158000CDBFDF91CF91FF91EF91BF91AF919F912F
:101590008F917F916F915F914F913F912F910F901C
:1015A0000BBE0F900FBE0F901F901895CF93DF9337
:1015B000CDB7DEB780911A0290911B02843191055C
:1015C00009F058F4109203021092020281E090E0B8
:1015D000909305028093040230C080911E02909186
:1015E0001F028431910509F058F481E090E0909356
:1015F00003028093020210920502109204021DC0A1
:1016000080911C0290911D028431910509F068F4CB
:1016100081E090E0909303028093020281E090E0E9
:10162000909305028093040208C010920302109266
:10163000020210920502109204020000DF91CF9185
:101640000895CF93DF9300D00F92CDB7DEB79A8382
:1016500089837C836B8389819A8187339105B9F172
:10166000B4F18B819C818733910589F184F180915C
:10167000200290912102009751F4109207021092DB
:10168000060281E090E090932102809320028091F5
:101690000602909107028330910509F05CF481E025
:1016A00090E0909303028093020210920502109240
:1016B00004028DC081E090E09093030280930202C7
:1016C00081E090E0909305028093040280C08981BC
:1016D0009A818C32910509F0B4F58B819C818C3212
:1016E000910509F084F580912202909123020097E0
:1016F00051F4109209021092080281E090E0909358
:101700002302809322028091080290910902833083
:10171000910509F05CF4109203021092020281E03C
:1017200090E0909305028093040251C081E090E024
:10173000909303028093020281E090E0909305026F
:101740008093040244C029813A818B819C812817AF
:10175000390769F481E090E09093030280930202DC
:1017600081E090E0909305028093040230C02981CB
:101770003A818B819C812817390791F08CF08981FF
:101780009A818133910519F114F181E090E09093F1
:10179000030280930202109205021092040217C005
:1017A00029813A818B819C812817390784F48981AA
:1017B0009A818133910509F054F41092030210923A
:1017C000020281E090E090930502809304028981F7
:1017D0009A818733910539F034F08B819C8187336E
:1017E000910509F044F4109207021092060210923B
:1017F00021021092200289819A818C32910509F090
:1018000034F48B819C818C32910549F044F0109224
:101810000902109208021092230210922202000084
:101820000F900F900F900F90DF91CF910895CF936D
:10183000DF93CDB7DEB781E090E090930302809311
:10184000020281E090E09093050280930402000080
:10185000DF91CF910895CF93DF93CDB7DEB780E0CE
:1018600090E0DF91CF910895EE0FFF1F881F8BBF8F
:101870000790F691E02D19940024A7FD00942A0FFB
:10188000301D401D501D601D701D801D901D089550
:101890000E94B90C08F481E008950E94E50C88F0DC
:1018A0009F5798F0B92F9927B751B0F0E1F0660F24
:1018B000771F881F991F1AF0BA95C9F714C0B13065
:1018C00091F00E94FF0CB1E008950C94FF0C672F7B
:1018D000782F8827B85F39F0B93FCCF38695779594
:1018E0006795B395D9F73EF490958095709561957D
:1018F0007F4F8F4F9F4F0895E89409C097FB3EF4A8
:1019000090958095709561957F4F8F4F9F4F99234C
:10191000A9F0F92F96E9BB279395F69587957795CA
:101920006795B795F111F8CFFAF4BB0F11F460FF8A
:101930001BC06F5F7F4F8F4F9F4F16C0882311F0E2
:1019400096E911C0772321F09EE8872F762F05C0F6
:10195000662371F096E8862F70E060E02AF09A9591
:10196000660F771F881FDAF7880F9695879597F986
:101970000895990F0008550FAA0BE0E8FEEF161620
:101980001706E807F907C0F012161306E407F50773
:1019900098F0621B730B840B950B39F40A2661F0E7
:1019A000232B242B252B21F408950A2609F4A1408A
:1019B000A6958FEF811D811D089557FD9058440F06
:1019C000551F59F05F3F71F04795880F97FB991F9E
:1019D00061F09F3F79F0879508951216130614065B
:1019E000551FF2CF4695F1DF08C0161617061806E8
:1019F000991FF1CF86957105610508940895E894C3
:101A0000BB2766277727CB0197F908950E94B90C69
:101A100008F48FEF08950E941E0D0C948F0D0E9404
:101A2000810D38F00E94880D20F0952311F00C9460
:101A3000780D0C947E0D11240C94000D0E94DD0C89
:101A400070F3959FC1F3950F50E0551F629FF00111
:101A5000729FBB27F00DB11D639FAA27F00DB11D2A
:101A6000AA1F649F6627B00DA11D661F829F2227B3
:101A7000B00DA11D621F739FB00DA11D621F839F3A
:101A8000A00D611D221F749F3327A00D611D231F10
:101A9000849F600D211D822F762F6A2F11249F575E
:101AA00050409AF0F1F088234AF0EE0FFF1FBB1F61
:101AB000661F771F881F91505040A9F79E3F510520
:101AC00080F00C94780D0C94000D5F3FE4F3983E89
:101AD000D4F3869577956795B795F795E7959F5FCA
:101AE000C1F7FE2B880F911D9695879597F908955C
:101AF00097F99F6780E870E060E008959FEF80ECC1
:101B0000089500240A941616170618060906089563
:101B100000240A9412161306140605060895092EC9
:101B20000394000C11F4882352F0BB0F40F4BF2B38
:101B300011F460FF04C06F5F7F4F8F4F9F4F089578
:101B4000F894FFCF54055A05600566056C057205CB
:101B500078057E059C05A205A805AE05B405BA0565
:041B6000C005C605F1
:021B640002007D
:00000001FF
