:100000000C9472000C9493000C9493000C94930045
:100010000C9493000C9493000C9493000C94930014
:100020000C9493000C9493000C9493000C94F1079F
:100030000C9493000C9493000C9493000C949300F4
:100040000C9493000C9493000C9493000C949300E4
:100050000C9493000C9493000C9493000C949300D4
:100060000C9493000C9493000C9493000C949300C4
:100070000C9493000C9493000C9493000C94E5065C
:100080000C9493000C94AD060C9493000C94930084
:100090000C9493000C9493000C9493000C94930094
:1000A0000C9493000C9493000C9493000C94930084
:1000B0000C9493000C9461040C9493000C949300A2
:1000C0000C9493000C9493000C9493000C94930064
:1000D0000C9493000C9493000C9493000C94930054
:1000E0000C94930011241FBECFEFD1E2DEBFCDBF31
:1000F00000E00CBF13E0A0E0B2E0EEEAF1E200E0C5
:100100000BBF02C007900D92AA30B107D9F713E0D8
:10011000AAE0B3E001C01D92AC32B107E1F70E9442
:100120006D0A0C94D5100C940000DF93CF93CDB7DB
:10013000DEB7E8970FB6F894DEBF0FBECDBF809153
:100140001E0390911F038B30910508F0F0C01092B0
:100150000B0310920A0310920D0310920C030E94DD
:10016000ED0280E090E0A8ECB3E48DAB9EABAFABCA
:10017000B8AF6DA97EA98FA998AD20E030E04AE71D
:1001800055E40E94520CDC01CB0189AB9AABABABBE
:10019000BCAB69A97AA98BA99CA920E030E040E812
:1001A0005FE30E94AC0D88232CF481E090E098ABD3
:1001B0008FA73FC069A97AA98BA99CA920E03FEF2E
:1001C0004FE757E40E944C0D18164CF56DA97EA917
:1001D0008FA998AD20E030E040E251E40E94520C3B
:1001E000DC01CB01BC01CD010E947C0ADC01CB010A
:1001F00098AB8FA70FC080E991E09EA78DA78DA532
:100200009EA50197F1F79EA78DA78FA598A90197A5
:1002100098AB8FA78FA598A9009769F714C069A913
:100220007AA98BA99CA90E947C0ADC01CB0198AB1E
:100230008FA78FA598A99CA78BA78BA59CA5019795
:10024000F1F79CA78BA70E94FB0280E090E0AAE751
:10025000B4E48FA398A7A9A7BAA76FA178A589A589
:100260009AA520E030E04AE755E40E94520CDC01F8
:10027000CB018BA39CA3ADA3BEA36BA17CA18DA13D
:100280009EA120E030E040E85FE30E94AC0D8823AF
:100290002CF481E090E09AA389A33FC06BA17CA1DC
:1002A0008DA19EA120E03FEF4FE757E40E944C0D47
:1002B00018164CF56FA178A589A59AA520E030E025
:1002C00040E251E40E94520CDC01CB01BC01CD01A3
:1002D0000E947C0ADC01CB019AA389A30FC080E9AC
:1002E00091E098A38F8F8F8D98A10197F1F798A334
:1002F0008F8F89A19AA101979AA389A389A19AA115
:10030000009769F714C06BA17CA18DA19EA10E94EA
:100310007C0ADC01CB019AA389A389A19AA19E8FB3
:100320008D8F8D8D9E8D0197F1F79E8F8D8F809192
:100330002003909121038B30910508F0F0C01092BA
:100340000B0310920A0310920D0310920C030E94EB
:10035000ED0280E090E0A8ECB3E4898F9A8FAB8F38
:10036000BC8F698D7A8D8B8D9C8D20E030E04AE7C3
:1003700055E40E94520CDC01CB018D8B9E8BAF8B20
:10038000B88F6D897E898F89988D20E030E040E8B4
:100390005FE30E94AC0D88232CF481E090E09C8BFD
:1003A0008B8B3FC06D897E898F89988D20E03FEFD0
:1003B0004FE757E40E944C0D18164CF5698D7A8D65
:1003C0008B8D9C8D20E030E040E251E40E94520C85
:1003D000DC01CB01BC01CD010E947C0ADC01CB0118
:1003E0009C8B8B8B0FC080E991E09A8B898B8989DC
:1003F0009A890197F1F79A8B898B8B899C89019750
:100400009C8B8B8B8B899C89009769F714C06D89B5
:100410007E898F89988D0E947C0ADC01CB019C8BA0
:100420008B8B8B899C89988B8F878F859889019777
:10043000F1F7988B8F870E94FB0280E090E0AAE79B
:10044000B4E48B879C87AD87BE876B857C858D8563
:100450009E8520E030E04AE755E40E94520CDC0122
:10046000CB018F839887A987BA876F817885898523
:100470009A8520E030E040E85FE30E94AC0D8823DD
:100480002CF481E090E09E838D833FC06F8178855E
:1004900089859A8520E03FEF4FE757E40E944C0D95
:1004A00018164CF56B857C858D859E8520E030E0A7
:1004B00040E251E40E94520CDC01CB01BC01CD01B1
:1004C0000E947C0ADC01CB019E838D830FC080E9F2
:1004D00091E09C838B838B819C810197F1F79C83B6
:1004E0008B838D819E8101979E838D838D819E81DB
:1004F000009769F714C06F81788589859A850E9475
:100500007C0ADC01CB019E838D838D819E819A8341
:10051000898389819A810197F1F79A838983E89683
:100520000FB6F894DEBF0FBECDBFCF91DF91089517
:10053000DF93CF93CDB7DEB780912403909125034D
:100540008830910570F080912603909127038830C0
:10055000910538F080912203909123038830910512
:1005600050F4A2E7B0E0E2E7F0E080818E7F8C9368
:100570000E94ED0209C0A2E7B0E0E2E7F0E080816E
:1005800081608C930E94FB02CF91DF910895DF93ED
:10059000CF93CDB7DEB7AAE0B1E0EAE0F1E0808129
:1005A00088608C93E0E2F1E081E08083A1E2B1E039
:1005B000E1E2F1E0808184608C93A1E2B1E0E1E2CC
:1005C000F1E0808188608C93E8E2F1E080EC90E0DB
:1005D00091838083CF91DF910895DF93CF93CDB73F
:1005E000DEB7A0E2B1E0E0E2F1E0808180688C93C8
:1005F000CF91DF910895DF93CF93CDB7DEB7A0E21F
:10060000B1E0E0E2F1E080818F778C93CF91DF91D0
:100610000895DF93CF93CDB7DEB7F894A1E2B0E0B1
:10062000E1E2F0E080818A6A8C93A7E2B0E0E7E241
:10063000F0E0808185658C93E0EAF0E01082E1EAE9
:10064000F0E01082E4EAF0E086E090E091838083BD
:10065000A0EAB0E0E0EAF0E0808182608C93A1EA59
:10066000B0E0E1EAF0E0808183608C93A2E7B0E043
:10067000E2E7F0E0808181608C937894CF91DF9104
:100680000895DF93CF93CDB7DEB7AD970FB6F8944B
:10069000DEBF0FBECDBF9A83898389819A81813065
:1006A000910509F0F4C0809112038B83909113039C
:1006B0009C83809114038D83909115039E83809178
:1006C00016038F8390911703988780911803898769
:1006D000909119039A8781E08B871C861D861E8660
:1006E0001F86188A198A1A8A9B818B85980F9B8B83
:1006F00091E09B8F8B899B81891708F01B8E8C81E1
:100700009C85890F8C8B81E08C8F9C898C819817BC
:1007100008F01C8E9B8D8C89980F9D8F91E09E8F89
:100720008D8D9C89891708F01E8E8C8D9E8D892B4E
:100730008C8F8D8D8C8B9D818D85980F9D8B91E0FD
:100740009F8F8D899D81891708F01F8E8C8D9D89C3
:10075000890F88A381E089A398A18D89981708F053
:1007600019A29F8D89A1982B9F8F98A19D8B8E8117
:100770009E85890F8E8B81E08AA39E898E81981732
:1007800008F01AA29F8D8E89980F9BA391E09CA3DD
:100790008BA19E89891708F01CA28AA19CA1892B94
:1007A0008AA38BA18E8B9F818F85980F9F8B91E061
:1007B0009DA38F899F81891708F01DA28AA19F8917
:1007C000890F8EA381E08FA39EA18F89981708F0CF
:1007D0001FA29DA18FA1982B9DA39EA19F8B888571
:1007E0009889890F888F81E088A7988D88859817C8
:1007F00008F018A69DA1888D980F99A791E09AA757
:1008000089A5988D891708F01AA688A59AA5892B1D
:1008100088A789A5888F99858989980F998F91E0F4
:100820009BA7898D9985891708F01BA688A5998DA6
:10083000890F8CA781E08DA79CA5898D981708F05A
:100840001DA69BA58DA5982B9BA79CA5998F8A85F6
:100850009A89890F8A8F8BA59A8D890F8A8F2B8908
:100860003C894D895E896F89788D898D9A8D209319
:1008700012033093130340931403509315036093B2
:100880001603709317038093180390931903209114
:10089000120330911303409114035091150360919A
:1008A0001603709117038091180390911903C901E1
:1008B000AD960FB6F894DEBF0FBECDBFCF91DF91DE
:1008C00008951F920F920FB60F9200905B000F9247
:1008D00011242F933F934F935F936F937F938F9345
:1008E0009F93AF93BF93EF93FF93DF93CF9300D08A
:1008F0000F92CDB7DEB7E4EAF0E086E090E09183B6
:10090000808381E090E00E94410320911C0330919C
:100910001D0380910A0390910B03A901481B590BF9
:10092000CA0190931D0380931C0320910E03309104
:100930000F0380910A0390910B03820F931F9093F2
:100940000F0380930E0320911A0330911B038091B3
:100950000C0390910D03820F931F90931B038093C0
:100960001A03209110033091110380910C03909190
:100970000D03820F931F90931103809310038091B6
:100980001C0390911D035FEF8F3F950739F487E0BB
:1009900090E090931D0380931C030BC080911C0377
:1009A00090911D038830910521F410921D0310923F
:1009B0001C0380911A0390911B032FEF8F3F920726
:1009C00039F487E090E090931B0380931A030BC0E7
:1009D00080911A0390911B038830910521F41092A5
:1009E0001B0310921A0340911C0350911D035C835A
:1009F0004B838B819C8184309105C9F14B815C8153
:100A00004530510584F48B819C818230910529F118
:100A10004B815C81433051052CF58B819C81813069
:100A20009105B1F03CC04B815C814630510549F1E4
:100A30008B819C8186309105FCF04B815C81473035
:100A4000510521F18B819C818830910521F127C0CE
:100A5000E8E2F0E085E0808322C0E8E2F0E084E0B4
:100A600080831DC0E8E2F0E084E1808318C0E8E202
:100A7000F0E080E1808313C0E8E2F0E080E580836D
:100A80000EC0E8E2F0E080E4808309C0E8E2F0E034
:100A900081E4808304C0E8E2F0E081E0808340915B
:100AA0001A0350911B035A83498389819A818430A8
:100AB0009105C9F149815A814530510584F48981F4
:100AC0009A818230910529F149815A81433051053B
:100AD0002CF589819A8181309105B1F03CC0498122
:100AE0005A814630510549F189819A8186309105B4
:100AF000FCF049815A814730510521F189819A8161
:100B00008830910521F127C0E2E2F0E08AE080839D
:100B100022C0E2E2F0E082E080831DC0E2E2F0E089
:100B200082E8808318C0E2E2F0E080E8808313C0AE
:100B3000E2E2F0E080EA80830EC0E2E2F0E080E2F0
:100B4000808309C0E2E2F0E088E2808304C0E2E250
:100B5000F0E088E080830F900F900F900F90CF917E
:100B6000DF91FF91EF91BF91AF919F918F917F9115
:100B70006F915F914F913F912F910F9000925B0089
:100B80000F900FBE0F901F901895DF93CF93CDB7A6
:100B9000DEB710920F0310920E0310921103109201
:100BA00010030EC081E090E090930B0380930A0342
:100BB00081E090E090930D0380930C030E949802D3
:100BC00080910E0390910F0320E18038920754F337
:100BD00010920F0310920E03109211031092100343
:100BE0000EC081E090E090930B0380930A038FEF97
:100BF0009FEF90930D0380930C030E9498028091C5
:100C00000E0390910F0329E08036920754F310925F
:100C10000F0310920E0310921103109210030EC0D6
:100C200081E090E090930B0380930A0381E090E0D1
:100C300090930D0380930C030E94980280910E0301
:100C400090910F032FE18034920754F310920F0319
:100C500010920E0310921103109210030EC081E047
:100C600090E090930B0380930A038FEF9FEF909394
:100C70000D0380930C030E94980280910E039091C3
:100C80000F0329E08036920754F30EC081E090E014
:100C900090930B0380930A0381E090E090930D03FF
:100CA00080930C030E94980280910E0390910F0391
:100CB00029E1803E920754F310920F0310920E0325
:100CC000109211031092100310920B0310920A035A
:100CD00010920D0310920C03CF91DF910895DF93D2
:100CE000CF93CDB7DEB7F894A0E9B0E0E0E9F0E04B
:100CF000808182688C93A1E9B0E0E1E9F0E0808135
:100D00008A618C93E6E9F0E080E090E8918380834B
:100D1000E8E9F0E084E190E091838083EAE9F0E0A3
:100D20008CE795E191838083ADE2B0E0EDE2F0E005
:100D3000808188608C93A1E7B0E0E1E7F0E08081FA
:100D400084628C93A8E6B0E0E8E6F0E080818460FD
:100D50008C937894CF91DF9108951F920F920FB6E4
:100D60000F9200905B000F9211248F93AF93BF936B
:100D7000EF93FF93DF93CF93CDB7DEB7809100025F
:100D8000880F8093000280910002803419F482E081
:100D900080930002EDE6F0E0809100028083A1E7FD
:100DA000B0E0E1E7F0E0808184608C93CF91DF9147
:100DB000FF91EF91BF91AF918F910F9000925B00E7
:100DC0000F900FBE0F901F9018951F920F920FB6A5
:100DD0000F9200905B000F9211242F933F934F933B
:100DE0005F936F937F938F939F93AF93BF93EF9393
:100DF000FF93DF93CF93CDB7DEB7809100028230AF
:100E000041F5E6E9F0E08081918186569141969521
:100E1000879596958795CC01A0E0B0E0BC01CD0107
:100E20000E94300EDC01CB01BC01CD0128E23EE77F
:100E30004CE05DE30E94520CDC01CB01BC01CD0112
:100E40000E947C0ADC01CB01909321038093200354
:100E5000AFC080910002843041F5E6E9F0E0808186
:100E60009181865691419695879596958795CC0167
:100E7000A0E0B0E0BC01CD010E94300EDC01CB014E
:100E8000BC01CD0128E23EE74CE05DE30E94520C3C
:100E9000DC01CB01BC01CD010E947C0ADC01CB014D
:100EA00090931F0380931E0383C0809100028830BB
:100EB00041F5E6E9F0E08081918186569141969571
:100EC000879596958795CC01A0E0B0E0BC01CD0157
:100ED0000E94300EDC01CB01BC01CD0128E23EE7CF
:100EE0004CE05DE30E94520CDC01CB01BC01CD0162
:100EF0000E947C0ADC01CB01909327038093260398
:100F000057C080910002803141F5E6E9F0E0808130
:100F10009181865691419695879596958795CC01B6
:100F2000A0E0B0E0BC01CD010E94300EDC01CB019D
:100F3000BC01CD0128E23EE74CE05DE30E94520C8B
:100F4000DC01CB01BC01CD010E947C0ADC01CB019C
:100F500090932503809324032BC08091000280325C
:100F600039F5E6E9F0E080819181865691419695C8
:100F7000879596958795CC01A0E0B0E0BC01CD01A6
:100F80000E94300EDC01CB01BC01CD0128E23EE71E
:100F90004CE05DE30E94520CDC01CB01BC01CD01B1
:100FA0000E947C0ADC01CB019093230380932203EF
:100FB000EDE6F0E01082CF91DF91FF91EF91BF91CC
:100FC000AF919F918F917F916F915F914F913F91E1
:100FD0002F910F9000925B000F900FBE0F901F900B
:100FE00018951F920F920FB60F9200905B000F9210
:100FF00011242F933F934F935F936F937F938F931E
:101000009F93AF93BF93EF93FF93DF93CF93CDB7AE
:10101000DEB780910002823079F5E4E9F0E080816A
:101020009181865691419695879596958795CC01A5
:10103000A0E0B0E0BC01CD010E94300EDC01CB018C
:10104000BC01CD0128E23EE74CE05DE30E94520C7A
:10105000DC01CB01BC01CD010E947C0ADC01CB018B
:101060009093210380932003A2E2B0E0E2E2F0E05B
:1010700080818E7F8C93CBC080910002843079F583
:10108000E4E9F0E0808191818656914196958795BB
:1010900096958795CC01A0E0B0E0BC01CD010E94FF
:1010A000300EDC01CB01BC01CD0128E23EE74CE073
:1010B0005DE30E94520CDC01CB01BC01CD010E941A
:1010C0007C0ADC01CB0190931F0380931E03A2E2F4
:1010D000B0E0E2E2F0E080818D7F8C9398C0809157
:1010E0000002883079F5E4E9F0E08081918186564C
:1010F00091419695879596958795CC01A0E0B0E0B3
:10110000BC01CD010E94300EDC01CB01BC01CD0140
:1011100028E23EE74CE05DE30E94520CDC01CB018B
:10112000BC01CD010E947C0ADC01CB019093270316
:1011300080932603A2E2B0E0E2E2F0E080818B7FC0
:101140008C9365C080910002803179F5E4E9F0E08C
:101150008081918186569141969587959695879540
:10116000CC01A0E0B0E0BC01CD010E94300EDC015A
:10117000CB01BC01CD0128E23EE74CE05DE30E94DB
:10118000520CDC01CB01BC01CD010E947C0ADC01C8
:10119000CB019093250380932403A2E2B0E0E2E226
:1011A000F0E08081877F8C9332C080910002803292
:1011B00071F5E4E9F0E08081918186569141969540
:1011C000879596958795CC01A0E0B0E0BC01CD0154
:1011D0000E94300EDC01CB01BC01CD0128E23EE7CC
:1011E0004CE05DE30E94520CDC01CB01BC01CD015F
:1011F0000E947C0ADC01CB0190932303809322039D
:10120000A2E2B0E0E2E2F0E080818F7E8C93A1E781
:10121000B0E0E1E7F0E080818F7D8C93EDE6F0E0D7
:101220001082CF91DF91FF91EF91BF91AF919F918C
:101230008F917F916F915F914F913F912F910F907F
:1012400000925B000F900FBE0F901F901895DF93D8
:10125000CF930F920F92CDB7DEB78091220390917A
:1012600023038531910558F410920B0310920A0361
:1012700081E090E090930D0380930C032EC0809149
:101280002603909127038531910558F481E090E081
:1012900090930B0380930A0310920D0310920C039A
:1012A0001CC080912403909125038531910568F439
:1012B00081E090E090930B0380930A0381E090E03B
:1012C00090930D0380930C0308C010920B031092AF
:1012D0000A0310920D0310920C030F900F90CF9100
:1012E000DF910895DF93CF9300D00F92CDB7DEB793
:1012F0009A8389837C836B8389819A818833910562
:10130000A4F18B819C81883391057CF18091280325
:1013100090912903009751F410920F0310920E033D
:1013200081E090E0909329038093280380910E033D
:1013300090910F03843091055CF481E090E09093EC
:101340000B0380930A0310920D0310920C0387C0C5
:1013500081E090E090930B0380930A0381E090E09A
:1013600090930D0380930C037AC089819A818D320A
:101370009105A4F58B819C818D3291057CF580913E
:101380002A0390912B03009751F4109211031092AD
:10139000100381E090E090932B0380932A038091C7
:1013A000100390911103843091055CF410920B03AB
:1013B00010920A0381E090E090930D0380930C0358
:1013C0004EC081E090E090930B0380930A0381E08C
:1013D00090E090930D0380930C0341C029813A81E2
:1013E0008B819C812817390769F481E090E0909304
:1013F0000B0380930A0381E090E090930D038093A8
:101400000C032DC029813A818B819C81821793071F
:1014100084F489819A81823391050CF181E090E016
:1014200090930B0380930A0310920D0310920C0308
:1014300016C029813A818B819C81281739077CF459
:1014400089819A818233910554F410920B03109292
:101450000A0381E090E090930D0380930C0389814F
:101460009A81883391052CF08B819C81883391057A
:1014700044F410920F0310920E031092290310925D
:10148000280389819A818D3291052CF48B819C816E
:101490008D32910544F010921103109210031092B6
:1014A0002B0310922A030F900F900F900F90CF9163
:1014B000DF910895DF93CF93CDB7DEB781E090E061
:1014C00090930B0380930A0381E090E090930D03C7
:1014D00080930C03CF91DF910895DF93CF93CDB725
:1014E000DEB70E94C7020E946F060E9409030E9495
:1014F000C5050E949802FDCFEF92FF920F931F93B4
:101500007B018C0120E030E040E05FE40E947C0D34
:1015100088238CF0C801B70120E030E040E05FE4B0
:101520000E94F40B0E94DC0D9B01AC012050304066
:101530004040504806C0C801B7010E94DC0D9B0125
:10154000AC01B901CA011F910F91FF90EF9008956E
:10155000A0E0B0E0EEEAFAE00C949E10DC012B0172
:10156000FA019C91923008F439C1EB0188818230F4
:1015700008F433C1943069F4843009F02FC1119616
:101580009C9111978981981709F428C1A1E0B2E0D4
:1015900025C1843009F421C18230A9F4923009F0C8
:1015A0001DC19A01AD0188E0EA010990AE01E9018F
:1015B00009929E018150C1F7E201898111969C91A7
:1015C0008923818308C1923009F407C112962D90B6
:1015D0003C901397EB018A819B811496AD90BD904E
:1015E000CD90DC901797EC80FD800E811F819101DA
:1015F000281B390BB90137FF04C066277727621B08
:10160000730B603271050CF061C0121613066CF595
:1016100037014801062E04C0969487947794679406
:101620000A94D2F721E030E040E050E004C0220FFD
:10163000331F441F551F6A95D2F721503040404058
:1016400050402E213F2140235123211531054105D2
:10165000510521F021E030E040E050E079018A01BD
:10166000E628F728082919293CC0232BD1F1260E9A
:10167000371E35014601062E04C096948794779450
:1016800067940A94D2F721E030E040E050E004C0D3
:10169000220F331F441F551F6A95D2F72150304047
:1016A000404050402A213B214C215D21211531052C
:1016B0004105510521F021E030E040E050E05901C2
:1016C0006A01A628B728C828D9280BC08215930517
:1016D0002CF01C01AA24BB24650103C0EE24FF24C6
:1016E000870111969C91D20111968C91981709F45B
:1016F00045C0992339F0A80197012A193B094C09E3
:101700005D0906C0A60195012E193F09400B510B3A
:1017100057FD08C011823382228224833583468399
:1017200057831DC081E081833382228288279927D5
:10173000DC01821B930BA40BB50B84839583A683DA
:10174000B7830DC0220F331F441F551F24833583D9
:101750004683578382819381019793838283248177
:10176000358146815781DA01C9010197A109B10983
:101770008F5F9F4FAF4FBF4328F30BC091833382DE
:101780002282EA0CFB1C0C1D1D1DE482F5820683DF
:10179000178383E08083248135814681578157FFF9
:1017A0001AC0C901AA2797FDA095BA2F8170907021
:1017B000A070B0705695479537952795822B932B3F
:1017C000A42BB52B84839583A683B78382819381D1
:1017D000019693838283DF0101C0D201CD01CDB791
:1017E000DEB7E2E10C94BA10A0E2B0E0EAEFFBE071
:1017F0000C94AA1069837A838B839C832D833E8308
:101800004F835887E9E0EE2EF12CEC0EFD1ECE0141
:101810000196B7010E94CD0F8E010F5E1F4FCE01C2
:101820000596B8010E94CD0F8A8991E089278A8B9D
:10183000C701B801AE01475E5F4F0E94A80A0E942F
:10184000F80EA096E6E00C94C610A0E2B0E0EBE241
:10185000FCE00C94AA1069837A838B839C832D838C
:101860003E834F835887F9E0EF2EF12CEC0EFD1EDE
:10187000CE010196B7010E94CD0F8E010F5E1F4F62
:10188000CE010596B8010E94CD0FC701B801AE0187
:10189000475E5F4F0E94A80A0E94F80EA096E6E0FD
:1018A0000C94C610A0E2B0E0E8E5FCE00C949E10B9
:1018B00069837A838B839C832D833E834F835887F0
:1018C000CE010196BE01675F7F4F0E94CD0FCE0112
:1018D0000596BE016F5E7F4F0E94CD0F99859230B5
:1018E00088F089898230C8F0943019F4823051F43C
:1018F00004C0843029F4923081F481E092E0C6C0C3
:10190000923049F420E09A858A89981321E02A8749
:10191000CE010996BBC0823049F420E09A858A89BD
:10192000981321E02A8BCE014196B0C02D843E84CD
:101930004F8458886D887E888F88988CEE24FF2489
:101940008701AA24BB24650140E050E060E070E01C
:10195000E0E0F0E0C10181709070892BE9F0E60CC5
:10196000F71C081D191D9A01AB012A0D3B1D4C1DCA
:101970005D1D80E090E0A0E0B0E0E614F70408050B
:10198000190520F481E090E0A0E0B0E0BA01A901DF
:10199000480F591F6A1F7B1FAA0CBB1CCC1CDD1CE7
:1019A00097FE08C081E090E0A0E0B0E0A82AB92A44
:1019B000CA2ADB2A3196E032F10549F0660C771C21
:1019C000881C991C5694479437942794C3CFFA8562
:1019D000EA892B893C898B859C85280F391F2E5FCE
:1019E0003F4F17C0CA0181709070892B61F0169526
:1019F0000795F794E79480E090E0A0E0B0E8E82A4B
:101A0000F92A0A2B1B2B76956795579547952F5FDB
:101A10003F4F77FDE7CF0CC0440F551F661F771F60
:101A200017FD4160EE0CFF1C001F111F21503040BC
:101A3000403090E0590790E0690790E4790760F33F
:101A40002B8F3C8FDB01CA018F779070A070B07034
:101A500080349105A105B10561F447FD0AC0E11488
:101A6000F1040105110529F0405C5F4F6F4F7F4F76
:101A700040781A8EFE1711F081E08A8F4D8F5E8FAD
:101A80006F8F78A383E0898FCE0149960E94F80E6C
:101A9000A096E2E10C94BA10A8E1B0E0E2E5FDE026
:101AA0000C94AA1069837A838B839C832D833E8355
:101AB0004F83588789E0E82EF12CEC0EFD1ECE01F5
:101AC0000196B7010E94CD0F8E010F5E1F4FCE0110
:101AD0000596B8010E94CD0F8985823040F0898932
:101AE000823028F0C701B8010E94451001C08FEF75
:101AF0006896E6E00C94C610A8E1B0E0E2E8FDE0EC
:101B00000C94AA1069837A838B839C832D833E83F4
:101B10004F83588789E0E82EF12CEC0EFD1ECE0194
:101B20000196B7010E94CD0F8E010F5E1F4FCE01AF
:101B30000596B8010E94CD0F8985823040F08989D1
:101B4000823028F0C701B8010E94451001C08FEF14
:101B50006896E6E00C94C610A8E1B0E0E2EBFDE088
:101B60000C94AA1069837A838B839C832D833E8394
:101B70004F83588789E0E82EF12CEC0EFD1ECE0134
:101B80000196B7010E94CD0F8E010F5E1F4FCE014F
:101B90000596B8010E94CD0F8985823040F0898971
:101BA000823028F0C701B8010E94451001C081E0D1
:101BB0006896E6E00C94C610ACE0B0E0E2EEFDE022
:101BC0000C94AE1069837A838B839C83CE0101963B
:101BD000BE016B5F7F4F0E94CD0F8D81823061F11E
:101BE000823050F1843021F48E81882351F12EC04F
:101BF0002F81388537FD20C06E812F3131051CF0D3
:101C00006623F9F023C08EE190E0821B930B2985B7
:101C10003A854B855C8504C0569547953795279541
:101C20008A95D2F76623B1F050954095309521956D
:101C30003F4F4F4F5F4F0EC020E030E040E050E09C
:101C400009C02FEF3FEF4FEF5FE704C020E030E027
:101C500040E050E8B901CA012C96E2E00C94CA10A9
:101C6000A8E0B0E0E6E3FEE00C94A6107B018C0156
:101C7000611571058105910519F482E0898360C0C1
:101C800083E089838EE1C82ED12CDC82CB82ED8269
:101C9000FE820F831887C801B7010E94A90EFC01BC
:101CA0003197F7FF3BC0222733272E1B3F0B5701ED
:101CB0006801022E04C0D694C794B794A7940A94DE
:101CC000D2F740E050E060E070E081E090E0A0E01A
:101CD000B0E004C0880F991FAA1FBB1F2A95D2F736
:101CE0000197A109B1098E219F21A023B12300975B
:101CF000A105B10521F041E050E060E070E04A2923
:101D00005B296C297D294D835E836F8378878EE103
:101D100090E08E1B9F0B9C838B8312C0309781F0C9
:101D20000E2E04C0EE0CFF1C001F111F0A94D2F7E8
:101D3000ED82FE820F831887CE1ADF0ADC82CB8207
:101D40001A82CE0101960E94F80E2896EAE00C94C1
:101D5000C210EF92FF920F931F937B018C0180E0E2
:101D6000E81680E0F80681E0080780E0180788F4AC
:101D70008FEFE816F1040105110531F028F088E035
:101D800090E0A0E0B0E017C080E090E0A0E0B0E01C
:101D900012C080E0E81680E0F80680E0080781E0E5
:101DA000180728F088E190E0A0E0B0E004C080E1EE
:101DB00090E0A0E0B0E020E230E040E050E0281BFE
:101DC000390B4A0B5B0B04C016950795F794E79403
:101DD0008A95D2F7F701E75FFD4F8081281B310913
:101DE00041095109C9011F910F91FF90EF9008958A
:101DF000DF92EF92FF920F931F93FC01E480F58036
:101E000006811781D1808081823048F480E090E0A3
:101E1000A0E1B0E0E82AF92A0A2B1B2BA5C08430E8
:101E200009F49FC0823021F4EE24FF24870105C00D
:101E3000E114F1040105110519F4E0E0F0E096C0A9
:101E4000628173819FEF623879070CF05BC022E8F2
:101E50003FEF261B370B2A3131052CF020E030E014
:101E600040E050E02AC0B801A701022E04C07695D8
:101E70006795579547950A94D2F781E090E0A0E0E6
:101E8000B0E004C0880F991FAA1FBB1F2A95D2F784
:101E90000197A109B1098E219F21A023B1230097A9
:101EA000A105B10521F081E090E0A0E0B0E09A0149
:101EB000AB01282B392B4A2B5B2BDA01C9018F7719
:101EC0009070A070B07080349105A105B10539F40F
:101ED00027FF09C0205C3F4F4F4F5F4F04C0215C7C
:101EE0003F4F4F4F5F4FE0E0F0E02030A0E03A0777
:101EF000A0E04A07A0E45A0710F0E1E0F0E0790121
:101F00008A0127C06038710564F5FB01E158FF4F75
:101F1000D801C7018F779070A070B07080349105A0
:101F2000A105B10539F4E7FE0DC080E490E0A0E022
:101F3000B0E004C08FE390E0A0E0B0E0E80EF91E4E
:101F40000A1F1B1F17FF05C016950795F794E79406
:101F5000319687E016950795F794E7948A95D1F71F
:101F600005C0EE24FF248701EFEFF0E06E2F6795A8
:101F700066276795902F9F77D794DD24D7948E2F6F
:101F80008695492F462B582F5D29B701CA011F910D
:101F90000F91FF90EF90DF900895FC01DB014081ED
:101FA00051812281622F6F7770E0221F2227221F2A
:101FB0009381892F880F822B282F30E0991F992732
:101FC000991F11969C93119721153105A9F541157B
:101FD00051056105710511F482E037C082E89FEF79
:101FE00013969C938E9312979A01AB0167E0220F90
:101FF000331F441F551F6A95D1F783E08C930DC0A2
:10200000220F331F441F551F12968D919C911397D9
:10201000019713969C938E931297203080E0380797
:1020200080E0480780E4580758F314962D933D93B9
:102030004D935C93179708952F3F310579F441151F
:1020400051056105710519F484E08C93089564FFCE
:1020500003C081E08C9312C01C9210C02F573040F7
:1020600013963C932E93129783E08C9387E0440F52
:10207000551F661F771F8A95D1F7706414964D938C
:102080005D936D937C93179708951F93DC01FB017B
:102090009C91923008F447C08081823008F443C09C
:1020A000943051F411961C91843099F58181682FF8
:1020B00070E0611B71093FC0843021F0923031F42F
:1020C0008230B9F18181882389F12DC011961C914C
:1020D00011978230F1F081811817D9F412962D9161
:1020E0003C911397828193818217930794F028176C
:1020F0003907BCF014968D919D910D90BC91A02D47
:102100002481358146815781281739074A075B07A3
:1021100018F4112341F00AC082179307A407B507EA
:1021200040F4112319F061E070E005C06FEF7FEF1C
:1021300002C060E070E0CB011F9108952F923F92A2
:102140004F925F926F927F928F929F92AF92BF92C7
:10215000CF92DF92EF92FF920F931F93CF93DF9373
:10216000CDB7DEB7CA1BDB0B0FB6F894DEBF0FBED0
:10217000CDBF19942A88398848885F846E847D840D
:102180008C849B84AA84B984C884DF80EE80FD801F
:102190000C811B81AA81B981CE0FD11D0FB6F89495
:0E21A000DEBF0FBECDBFED010895F894FFCF56
:1021AE000200000000000000000001020203030311
:1021BE0003040404040404040405050505050505CB
:1021CE0005050505050505050506060606060606AA
:1021DE000606060606060606060606060606060691
:1021EE00060606060606060606070707070707077A
:1021FE000707070707070707070707070707070761
:10220E000707070707070707070707070707070750
:10221E000707070707070707070707070707070740
:10222E000707070707070707070808080808080829
:10223E000808080808080808080808080808080810
:10224E000808080808080808080808080808080800
:10225E0008080808080808080808080808080808F0
:10226E0008080808080808080808080808080808E0
:10227E0008080808080808080808080808080808D0
:10228E0008080808080808080808080808080808C0
:10229E0008080808080808080808080808080808B0
:0A22AE0008080808080808080800DE
:00000001FF
