:100000000C9492000C94B3000C94B3000C94B300C5
:100010000C94B3000C94B3000C94B3000C94B30094
:100020000C94B3000C94B3000C94B3000C94490AE4
:100030000C94B3000C94B3000C94B3000C94B30074
:100040000C94B3000C94B3000C94B3000C94B30064
:100050000C94B3000C94B3000C94B3000C94B30054
:100060000C94B3000C94B3000C94B3000C94B30044
:100070000C94B3000C94B3000C94B3000C9480085F
:100080000C94B3000C9446080C94B3000C94B30089
:100090000C94B3000C94B3000C94B3000C94B30014
:1000A0000C94B3000C94B3000C94B3000C94B30004
:1000B0000C94B3000C9416060C94B3000C94B3008B
:1000C0000C94B3000C94B3000C94B3000C94B300E4
:1000D0000C94B3000C94B3000C94B3000C94B300D4
:1000E0000C94B3000C9428070C94C2060C94DA0606
:1000F0000C94E6060C9422070C9416070C94BC068C
:100100000C940A070C94CE060C941C070C9404075C
:100110000C94C8060C94E0060C94D4060C941007BA
:100120000C942E0711241FBECFEFD1E2DEBFCDBF4E
:1001300000E00CBF12E0A0E0B2E0E0ECF0E200E092
:100140000BBF02C007900D92A230B107D9F722E091
:10015000A2E0B2E001C01D92A433B207E1F70E9411
:10016000B10E0C944E100C9400002F923F924F92BF
:100170005F926F927F928F929F92AF92BF92CF9237
:10018000DF92EF92FF920F931F93CF93DF93CDB740
:10019000DEB7C05AD1090FB6F894DEBF0FBECDBF8F
:1001A00080912602909127028A30910511F008F083
:1001B000CDC180E090E00E94AC055C01892F880FE2
:1001C000880BC82ED82EE82EF82E082F182F209036
:1001D00002023090030240900402509005026090A9
:1001E00006027090070280900802909009022A2D62
:1001F0003B2D4C2D5D2D6E2D7F2D802F912FA22C10
:10020000B32CC42CD52CE62CF72C082D192D0E94CC
:10021000ED0E822E932EA42EB52EC62ED72EE82EAE
:10022000F92E282D392D4A2D5B2D6C2D7D2D8E2DEF
:100230009F2D263DA6E03A07410551056105710550
:100240008105910509F008F481C110921302109202
:10025000120210921502109214020E94440580E0CE
:1002600090E0A8ECB3E48F87988BA98BBA8B20E041
:1002700030E04AE755E46F85788989899A890E9438
:10028000B90FA5966CAF7DAF8EAF9FAFA597A59622
:100290008CAD9DADAEADBFADA5978B8B9C8BAD8B63
:1002A000BE8B20E030E040E85FE36B897C898D897C
:1002B0009E890E94F60E88232CF481E090E0988FAE
:1002C0008F8B66C020E03FEF4FE757E46B897C8956
:1002D0008D899E890E94B40F882309F00CF446C0D2
:1002E00020E030E040E251E46F85788989899A897D
:1002F0000E94B90FA9966CAF7DAF8EAF9FAFA99743
:10030000A9968CAD9DADAEADBFADA99769968CAFEA
:100310009DAFAEAFBFAF699769966CAD7DAD8EAD49
:100320009FAD69970E94FB0EAD966CAF7DAF8EAF0F
:100330009FAFAD97AB96AEADBFADAB97B88FAF8B60
:1003400010C080E991E09A8F898F898D9A8D0197ED
:10035000F1F79A8F898F00008F89988D0197988F78
:100360008F8B8F89988D009761F71DC06B897C8971
:100370008D899E890E94FB0EE1966CAF7DAF8EAF9A
:100380009FAFE197AF968EAD9FADAF97988F8F8B54
:100390008F89988D9C8F8B8F8B8D9C8D0197F1F71A
:1003A0009C8F8B8F00000E94550580E090E0AAE7AB
:1003B000B4E489839A83AB83BC8320E030E04AE7CE
:1003C00055E469817A818B819C810E94B90FE59601
:1003D0006CAF7DAF8EAF9FAFE597E5968CAD9DADD1
:1003E000AEADBFADE5978D839E83AF83B88720E028
:1003F00030E040E85FE36D817E818F8198850E94C7
:10040000F60E88232CF481E090E09A87898768C0F3
:1004100020E03FEF4FE757E46D817E818F81988523
:100420000E94B40F882309F00CF446C020E030E0AD
:1004300040E251E469817A818B819C810E94B90FED
:10044000E9966CAF7DAF8EAF9FAFE997E9968CAD23
:100450009DADAEADBFADE99765968CAF9DAFAEAF2C
:10046000BFAF659765966CAD7DAD8EAD9FAD659761
:100470000E94FB0EED966CAF7DAF8EAF9FAFED97F8
:10048000EB96AEADBFADEB97BA87A98710C080E9F8
:1004900091E09C878B878B859C850197F1F79C87E2
:1004A0008B87000089859A8501979A878987898536
:1004B0009A85009761F71FC06D817E818F81988535
:1004C0000E94FB0EC358DF4F688379838A839B8326
:1004D000CD57D040EF968EAD9FADEF979A87898725
:1004E00089859A859E878D878D859E850197F1F7F1
:1004F0009E878D87000080E090E00E94AC059AAF57
:1005000089AF892F880F880B8BAF8CAF8DAF8EAFE3
:100510008FAF21968FAF219799AD90930202AAAD2C
:10052000A0930302BBADB0930402ECADE0930502CF
:100530008DAD809306029EAD90930702AFADA09360
:1005400008022196BFAD2197B0930902809128023D
:10055000909129028A30910511F008F024C280E0C0
:1005600090E00E94AC0523969FAF8EAF2397892F12
:10057000880F880B24968FAF249725968FAF2597E9
:1005800026968FAF269727968FAF279728968FAFFF
:10059000289729968FAF299720900A0230900B0256
:1005A00040900C0250900D0260900E0270900F026D
:1005B000809010029090110222962FAD22972396E0
:1005C0003FAD239724964FAD249725965FAD259791
:1005D00026966FAD269727967FAD279728968FADE5
:1005E000289729969FAD2997A22CB32CC42CD52CE3
:1005F000E62CF72C082D192D0E94ED0E822E932E3D
:10060000A42EB52EC62ED72EE82EF92E282D392D44
:100610004A2D5B2D6C2D7D2D8E2D9F2D263DE6E0E8
:100620003E0741055105610571058105910509F0F8
:1006300008F4B9C11092130210921202109215021E
:10064000109214020E94440580E090E0A8ECB3E40C
:100650008BA79CA7ADA7BEA720E030E04AE755E4F2
:100660006BA57CA58DA59EA50E94B90FCF57DF4F26
:10067000688379838A839B83C158D040CF57DF4FEB
:1006800088819981AA81BB81C158D0408FA798AB3E
:10069000A9ABBAAB20E030E040E85FE36FA578A9F2
:1006A00089A99AA90E94F60E88232CF481E090E093
:1006B0009CAB8BAB72C020E03FEF4FE757E46FA5D8
:1006C00078A989A99AA90E94B40F882309F00CF48B
:1006D0004EC020E030E040E251E46BA57CA58DA542
:1006E0009EA50E94B90FCB57DF4F688379838A8319
:1006F0009B83C558D040CB57DF4F88819981AA8111
:10070000BB81C558D040A1968CAF9DAFAEAFBFAFF7
:10071000A197A1966CAD7DAD8EAD9FADA1970E94C6
:10072000FB0EC757DF4F688379838A839B83C95841
:10073000D040C757DF4FA881B981C958D040BCAB62
:10074000ABAB10C080E991E09EAB8DAB8DA99EA9AB
:100750000197F1F79EAB8DAB00008BA99CA9019787
:100760009CAB8BAB8BA99CA9009761F721C06FA5AF
:1007700078A989A99AA90E94FB0EC357DF4F688305
:1007800079838A839B83CD58D040C357DF4F8881BC
:100790009981CD58D0409CAB8BAB8BA99CA998AFCD
:1007A0008FAB8FA998AD0197F1F798AF8FAB000091
:1007B0000E94550580E090E0AAE7B4E48D8F9E8FFB
:1007C000AF8FB8A320E030E04AE755E46D8D7E8D11
:1007D0008F8D98A10E94B90FCF56DF4F6883798320
:1007E0008A839B83C159D040CF56DF4F888199813E
:1007F000AA81BB81C159D04089A39AA3ABA3BCA352
:1008000020E030E040E85FE369A17AA18BA19CA1E0
:100810000E94F60E88232CF481E090E09EA38DA325
:1008200072C020E03FEF4FE757E469A17AA18BA1A6
:100830009CA10E94B40F882309F00CF44EC020E064
:1008400030E040E251E46D8D7E8D8F8D98A10E9445
:10085000B90FCB56DF4F688379838A839B83C55951
:10086000D040CB56DF4F88819981AA81BB81C55981
:10087000D0406D968CAF9DAFAEAFBFAF6D976D960C
:100880006CAD7DAD8EAD9FAD6D970E94FB0EC756D2
:10089000DF4F688379838A839B83C959D040C756C9
:1008A000DF4FA881B981C959D040BEA3ADA310C004
:1008B00080E991E098A78FA38FA198A50197F1F700
:1008C00098A78FA300008DA19EA101979EA38DA341
:1008D0008DA19EA1009761F721C069A17AA18BA18A
:1008E0009CA10E94FB0EC356DF4F688379838A83E5
:1008F0009B83CD59D040C356DF4F88819981CD5914
:10090000D0409EA38DA38DA19EA19AA789A789A55A
:100910009AA50197F1F79AA789A7000080E090E0D7
:100920000E94AC052B969FAF8EAF2B97892F880F17
:10093000880B2C968FAF2C972D968FAF2D972E96D8
:100940008FAF2E972F968FAF2F9760968FAF6097B0
:1009500061968FAF61972A969FAD2A9790930A026E
:100960002B96AFAD2B97A0930B022C96BFAD2C9777
:10097000B0930C022D96EFAD2D97E0930D022E96BD
:100980008FAD2E9780930E022F969FAD2F97909349
:100990000F026096AFAD6097A09310026196BFAD55
:1009A0006197B09311020000C056DF4F0FB6F89464
:1009B000DEBF0FBECDBFDF91CF911F910F91FF9092
:1009C000EF90DF90CF90BF90AF909F908F907F90EF
:1009D0006F905F904F903F902F900895CF93DF934B
:1009E000CDB7DEB780912C0290912D028730910512
:1009F00009F060F482E790E0FC01208182E790E05A
:100A00002E7FFC0120830E9444050BC082E790E00A
:100A1000FC01208182E790E02160FC0120830E949C
:100A200055050000DF91CF910895CF93DF93CDB7A7
:100A3000DEB78AE091E0FC0120818AE091E0286045
:100A4000FC01208380E291E021E0FC01208381E22F
:100A500091E0FC01208181E291E02460FC0120838F
:100A600081E291E0FC01208181E291E02860FC01BB
:100A7000208388E291E020EC30E0FC013183208388
:100A80000000DF91CF910895CF93DF93CDB7DEB70C
:100A900080E291E0FC01208180E291E02068FC018D
:100AA00020830000DF91CF910895CF93DF93CDB7DE
:100AB000DEB780E291E0FC01208180E291E02F77B7
:100AC000FC0120830000DF91CF910895CF93DF9345
:100AD000CDB7DEB7F89481E290E0FC01208181E29D
:100AE00090E02A6AFC01208387E290E0FC012081EB
:100AF00087E290E02565FC01208380EA90E0FC011C
:100B0000108281EA90E0FC01108284EA90E026E005
:100B100030E0FC013183208380EA90E0FC012081F9
:100B200080EA90E02260FC01208381EA90E0FC01F1
:100B3000208181EA90E02360FC01208382E790E03D
:100B4000FC01208182E790E02160FC012083789401
:100B50000000DF91CF9108958F929F92AF92BF9244
:100B6000CF92DF92EF92FF920F931F93CF93DF9379
:100B70000F920F92CDB7DEB79A83898389819A81CC
:100B80008130910599F580901A0290901B02A090F7
:100B90001C02B0901D02C0901E02D0901F02E09077
:100BA0002002F0902102282D392D4A2D5B2D6C2D2D
:100BB0007D2D8E2D9F2DA1E00E94E10E822E932E81
:100BC000A42EB52EC62ED72EE82EF92E80921A020C
:100BD00090921B02A0921C02B0921D02C0921E02B3
:100BE000D0921F02E0922002F092210200911A029C
:100BF00010911B0220911C0230911D0240911E0297
:100C000050911F026091200270912102C8010F9043
:100C10000F90DF91CF911F910F91FF90EF90DF9098
:100C2000CF90BF90AF909F908F9008951F920F929A
:100C30000FB60F9211240BB60F922F933F934F9341
:100C40005F936F937F938F939F93AF93BF93EF9334
:100C5000FF93CF93DF93CDB7DEB784EA90E026E031
:100C600030E0FC013183208381E090E00E94AC05FC
:100C7000209122023091230280911202909113025E
:100C8000A901481B590BCA019093230280932202A9
:100C90002091160230911702809112029091130256
:100CA000820F931F909317028093160220912402C3
:100CB000309125028091140290911502820F931FAA
:100CC00090932502809324022091180230911902FA
:100CD0008091140290911502820F931F9093190234
:100CE0008093180280912202909123028F3F9807EF
:100CF00039F487E090E090932302809322020BC0A6
:100D000080912202909123028830910521F4109263
:100D100023021092220280912402909125028F3F9B
:100D2000980739F487E090E090932502809324029D
:100D30000BC080912402909125028830910521F406
:100D40001092250210922402809122029091230297
:100D5000092E000CAA0BBB0B0197A109B109873022
:100D60009105A105B10509F0B8F5FC018827E05B04
:100D7000FF4E8F4F0C94D90E88E290E025E0FC01E5
:100D800020832AC088E290E024E0FC01208324C074
:100D900088E290E024E1FC0120831EC088E290E01C
:100DA00020E1FC01208318C088E290E020E5FC01EE
:100DB000208312C088E290E020E4FC0120830CC074
:100DC00088E290E021E4FC01208306C088E290E004
:100DD00021E0FC01208300008091240290912502F3
:100DE000092E000CAA0BBB0B0197A109B109873092
:100DF0009105A105B10509F0B8F5FC018827E85A6D
:100E0000FF4E8F4F0C94D90E82E290E02AE0FC0155
:100E100020832AC082E290E022E0FC01208324C0EB
:100E200082E290E022E8FC0120831EC082E290E092
:100E300020E8FC01208318C082E290E020EAFC0157
:100E4000208312C082E290E020E2FC0120830CC0EB
:100E500082E290E028E2FC01208306C082E290E07A
:100E600028E0FC01208300000000DF91CF91FF917A
:100E7000EF91BF91AF919F918F917F916F915F9112
:100E80004F913F912F910F900BBE0F900FBE0F907F
:100E90001F901895CF93DF93CDB7DEB7109217024E
:100EA0001092160210921902109218020EC081E0E0
:100EB00090E0909313028093120281E090E090936F
:100EC0001502809314020E94EE0480911602909104
:100ED00017028F3720E1920751F34CF3109217025B
:100EE0001092160210921902109218020EC081E0A0
:100EF00090E090931302809312028FEF9FEF9093F4
:100F00001502809314020E94EE04809116029091C3
:100F100017028F3529E0920751F34CF31092170214
:100F20001092160210921902109218020EC081E05F
:100F300090E0909313028093120281E090E09093EE
:100F40001502809314020E94EE0480911602909183
:100F500017028F332FE1920751F34CF310921702CF
:100F60001092160210921902109218020EC081E01F
:100F700090E090931302809312028FEF9FEF909373
:100F80001502809314020E94EE0480911602909143
:100F900017028F3529E0920751F34CF30EC081E020
:100FA00090E0909313028093120281E090E090937E
:100FB0001502809314020E94EE0480911602909113
:100FC00017028F3D29E1920751F34CF3109217025B
:100FD0001092160210921902109218021092130227
:100FE0001092120210921502109214020000DF916A
:100FF000CF910895CF93DF93CDB7DEB7F89480E912
:1010000090E0FC01208180E990E02268FC012083CF
:1010100081E990E0FC01208181E990E02A61FC01F6
:10102000208386E990E020E030E8FC0131832083D2
:1010300088E990E024E130E0FC01318320838AE9F3
:1010400090E02CE735E1FC01318320838DE290E0D4
:10105000FC0120818DE290E02860FC01208381E783
:1010600090E0FC01208181E790E02462FC01208374
:1010700088E690E0FC01208188E690E02460FC0195
:10108000208378940000DF91CF9108951F920F92F2
:101090000FB60F9211240BB60F922F938F939F933D
:1010A000EF93FF93CF93DF93CDB7DEB7809100022C
:1010B000880F8093000280910002803419F482E04E
:1010C000809300028DE690E020910002FC012083D5
:1010D00081E790E0FC01208181E790E02460FC0141
:1010E00020830000DF91CF91FF91EF919F918F912D
:1010F0002F910F900BBE0F900FBE0F901F90189561
:101100001F920F920FB60F9211240BB60F922F93CE
:101110003F934F935F936F937F938F939F93AF937F
:10112000BF93EF93FF93CF93DF93CDB7DEB7C45652
:10113000D109DEBFCDBF80910002823009F043C0EB
:1011400086E990E0DC018D919C91865691419695BF
:101150008795969587959C0140E050E029A73AA78E
:101160004BA75CA769A57AA58BA59CA50E942A0F11
:1011700069837A838B839C8328E23EE74CE05DE3BE
:1011800069817A818B819C810E94B90F6DA77EA7AE
:101190008FA798AB8DA59EA5AFA5B8A98D839E837B
:1011A000AF83B8876D817E818F8198850E94FB0E09
:1011B00069AB7AAB8BAB9CAB89A99AA990932902B6
:1011C0008093280245C180910002843009F045C017
:1011D00086E990E0DC018D919C918656914196952F
:1011E0008795969587959C0140E050E02DAB3EABEE
:1011F0004FAB58AF6DA97EA98FA998AD0E942A0F59
:1012000069877A878B879C8728E23EE74CE05DE31D
:1012100069857A858B859C850E94B90F69AF7AAF05
:101220008BAF9CAF89AD9AADABADBCAD8D879E87C2
:10123000AF87B88B6D857E858F8598890E94FB0E60
:1012400021966CAF7DAF8EAF9FAF21978DAD9EADD8
:101250009093270280932602FBC080910002883081
:1012600009F04FC086E990E0DC018D919C91865693
:10127000914196958795969587959C0140E050E021
:1012800025962CAF3DAF4EAF5FAF259725966CAD41
:101290007DAD8EAD9FAD25970E942A0F698B7A8B0D
:1012A0008B8B9C8B28E23EE74CE05DE369897A8971
:1012B0008B899C890E94B90F29966CAF7DAF8EAF48
:1012C0009FAF299729968CAD9DADAEADBFAD299747
:1012D0008D8B9E8BAF8BB88F6D897E898F89988D12
:1012E0000E94FB0E2D966CAF7DAF8EAF9FAF2D97FA
:1012F0002B968EAD9FAD2B9790932F0280932E024D
:10130000A7C080910002803109F04FC086E990E0CB
:10131000DC018D919C918656914196958795969585
:1013200087959C0140E050E061962CAF3DAF4EAFF9
:101330005FAF619761966CAD7DAD8EAD9FAD6197EE
:101340000E942A0F698F7A8F8B8F9C8F28E23EE74D
:101350004CE05DE3698D7A8D8B8D9C8D0E94B90F79
:1013600065966CAF7DAF8EAF9FAF659765968CAD80
:101370009DADAEADBFAD65978D8F9E8FAF8FB8A37E
:101380006D8D7E8D8F8D98A10E94FB0E69966CAF3E
:101390007DAF8EAF9FAF699767968EAD9FAD679714
:1013A00090932D0280932C0253C0809100028032D2
:1013B00009F04EC086E990E0DC018D919C91865643
:1013C000914196958795969587959C0140E050E0D0
:1013D0006D962CAF3DAF4EAF5FAF6D976D966CAD18
:1013E0007DAD8EAD9FAD6D970E942A0F69A37AA344
:1013F0008BA39CA328E23EE74CE05DE369A17AA1C0
:101400008BA19CA10E94B90FA1966CAF7DAF8EAF4E
:101410009FAFA197A1968CAD9DADAEADBFADA1978D
:101420008DA39EA3AFA3B8A76DA17EA18FA198A500
:101430000E94FB0EA5966CAF7DAF8EAF9FAFA597B8
:10144000A3968EAD9FADA39790932B0280932A0213
:101450008DE690E0DC011C920000CC59DF4F0FB606
:10146000F894DEBF0FBECDBFDF91CF91FF91EF911A
:10147000BF91AF919F918F917F916F915F914F91AC
:101480003F912F910F900BBE0F900FBE0F901F90AA
:1014900018951F920F920FB60F9211240BB60F9250
:1014A0002F933F934F935F936F937F938F939F936C
:1014B000AF93BF93EF93FF93CF93DF93CDB7DEB797
:1014C000C456D109DEBFCDBF80910002823009F041
:1014D0004CC084E990E0DC018D919C91865691414D
:1014E00096958795969587959C0140E050E029A7B1
:1014F0003AA74BA75CA769A57AA58BA59CA50E94D6
:101500002A0F69837A838B839C8328E23EE74CE031
:101510005DE369817A818B819C810E94B90F6DA7FF
:101520007EA78FA798AB8DA59EA5AFA5B8A98D83E3
:101530009E83AF83B8876D817E818F8198850E945D
:10154000FB0E69AB7AAB8BAB9CAB89A99AA9909344
:1015500029028093280282E290E0DC012C9182E251
:1015600090E02E7FFC01208369C1809100028430CD
:1015700009F04EC084E990E0DC018D919C91865683
:10158000914196958795969587959C0140E050E00E
:101590002DAB3EAB4FAB58AF6DA97EA98FA998ADCF
:1015A0000E942A0F69877A878B879C8728E23EE70B
:1015B0004CE05DE369857A858B859C850E94B90F37
:1015C00069AF7AAF8BAF9CAF89AD9AADABADBCAD17
:1015D0008D879E87AF87B88B6D857E858F8598892F
:1015E0000E94FB0E21966CAF7DAF8EAF9FAF21970F
:1015F0008DAD9EAD909327028093260282E290E00B
:10160000DC012C9182E290E02D7FFC01208316C149
:1016100080910002883009F058C084E990E0DC0134
:101620008D919C9186569141969587959695879533
:101630009C0140E050E025962CAF3DAF4EAF5FAF30
:10164000259725966CAD7DAD8EAD9FAD25970E94FB
:101650002A0F698B7A8B8B8B9C8B28E23EE74CE0C0
:101660005DE369897A898B899C890E94B90F2996E3
:101670006CAF7DAF8EAF9FAF299729968CAD9DAD96
:10168000AEADBFAD29978D8B9E8BAF8BB88F6D891B
:101690007E898F89988D0E94FB0E2D966CAF7DAF51
:1016A0008EAF9FAF2D972B968EAD9FAD2B979093BE
:1016B0002F0280932E0282E290E0DC012C9182E2E4
:1016C00090E02B7FFC012083B9C080910002803123
:1016D00009F058C084E990E0DC018D919C91865618
:1016E000914196958795969587959C0140E050E0AD
:1016F00061962CAF3DAF4EAF5FAF619761966CAD19
:101700007DAD8EAD9FAD61970E942A0F698F7A8F54
:101710008B8F9C8F28E23EE74CE05DE3698D7A8DEC
:101720008B8D9C8D0E94B90F65966CAF7DAF8EAF8F
:101730009FAF659765968CAD9DADAEADBFAD65971E
:101740008D8F9E8FAF8FB8A36D8D7E8D8F8D98A15D
:101750000E94FB0E69966CAF7DAF8EAF9FAF69970D
:1017600067968EAD9FAD679790932D0280932C0264
:1017700082E290E0DC012C9182E290E0277FFC0184
:1017800020835CC080910002803209F057C084E958
:1017900090E0DC018D919C918656914196958795BC
:1017A000969587959C0140E050E06D962CAF3DAF3B
:1017B0004EAF5FAF6D976D966CAD7DAD8EAD9FAD4D
:1017C0006D970E942A0F69A37AA38BA39CA328E29A
:1017D0003EE74CE05DE369A17AA18BA19CA10E9448
:1017E000B90FA1966CAF7DAF8EAF9FAFA197A196B9
:1017F0008CAD9DADAEADBFADA1978DA39EA3AFA3A4
:10180000B8A76DA17EA18FA198A50E94FB0EA596F9
:101810006CAF7DAF8EAF9FAFA597A3968EAD9FADFA
:10182000A39790932B0280932A0282E290E0DC013E
:101830002C9182E290E02F7EFC01208381E790E0F2
:10184000DC012C9181E790E02F7DFC0120838DE667
:1018500090E0DC011C920000CC59DF4F0FB6F894E9
:10186000DEBF0FBECDBFDF91CF91FF91EF91BF9152
:10187000AF919F918F917F916F915F914F913F9128
:101880002F910F900BBE0F900FBE0F901F901895C9
:10189000CF93DF93CDB7DEB780912A0290912B02D0
:1018A0008431910509F058F410921302109212023B
:1018B00081E090E0909315028093140230C08091F3
:1018C0002E0290912F028431910509F058F481E0A5
:1018D00090E09093130280931202109215021092DE
:1018E00014021DC080912C0290912D02843191052B
:1018F00009F068F481E090E0909313028093120263
:1019000081E090E0909315028093140208C0109239
:10191000130210921202109215021092140200008B
:10192000DF91CF910895CF93DF93CDB7DEB789EBE9
:1019300090E021E0FC01208388EB90E022E1FC01B3
:1019400020838CEB90E024E0FC0120830000DF91F9
:10195000CF910895CF93DF93CDB7DEB78CEB90E0B6
:1019600024EAFC01208300008CEB90E0FC018081E4
:101970008823D4F700000000DF91CF910895CF9322
:10198000DF93CDB7DEB78CEB90E024E9FC01208338
:101990000000DF91CF910895CF93DF930F92CDB7E1
:1019A000DEB789838BEB90E02981FC0120838CEBEF
:1019B00090E024E8FC01208300008CEB90E0FC0127
:1019C00080818823D4F7000000000F90DF91CF9131
:1019D0000895CF93DF93CDB7DEB78CEB90E024EC86
:1019E000FC01208300008CEB90E0FC0180818823C7
:1019F000D4F78BEB90E0FC018081DF91CF910895CB
:101A0000CF93DF93CDB7DEB78CEB90E024E8FC01F9
:101A1000208300008CEB90E0FC0180818823D4F7C8
:101A20008BEB90E0FC018081DF91CF910895CF9303
:101A3000DF930F92CDB7DEB789EB90E0FC01808198
:101A4000887F898389810F90DF91CF910895CF930B
:101A5000DF9300D0CDB7DEB789836A834B830E94C2
:101A6000AA0C0E94170D883011F081E01EC08981F8
:101A70000E94CC0C0E94170D883111F081E015C036
:101A80008A810E94CC0C0E94170D883211F081E0EF
:101A90000CC08B810E94CC0C0E94170D883211F073
:101AA00081E003C00E94BF0C80E00F900F900F9068
:101AB000DF91CF910895CF93DF9300D00F92CDB7F0
:101AC000DEB789836A835C834B830E94AA0C0E94E1
:101AD000170D883011F081E033C089810E94CC0C51
:101AE0000E94170D883111F081E02AC08A810E947E
:101AF000CC0C0E94170D883211F081E021C00E94A9
:101B0000AA0C0E94170D803111F081E019C0898163
:101B10000E94CC0C0E94170D803411F081E010C09F
:101B20000E94000D282F8B819C81FC0120830E9444
:101B3000170D883511F081E003C00E94BF0C80E0D2
:101B40000F900F900F900F90DF91CF910895CF934A
:101B5000DF9300D00F92CDB7DEB79A8389837C8361
:101B60006B8389819A8187339105B9F1B4F18B81B7
:101B70009C818733910589F184F1809130029091A5
:101B80003102009751F4109217021092160281E070
:101B900090E09093310280933002809116029091F0
:101BA00017028330910509F05CF481E090E0909396
:101BB00013028093120210921502109214028DC02B
:101BC00081E090E0909313028093120281E090E014
:101BD000909315028093140280C089819A818C327F
:101BE000910509F0B4F58B819C818C32910509F047
:101BF00084F58091320290913302009751F4109253
:101C000019021092180281E090E0909333028093C1
:101C1000320280911802909119028330910509F0E7
:101C20005CF4109213021092120281E090E0909303
:101C300015028093140251C081E090E0909313024A
:101C40008093120281E090E0909315028093140239
:101C500044C029813A818B819C812817390769F416
:101C600081E090E0909313028093120281E090E073
:101C7000909315028093140230C029813A818B81A0
:101C80009C812817390791F08CF089819A818133E2
:101C9000910519F114F181E090E090931302809383
:101CA0001202109215021092140217C029813A8173
:101CB0008B819C812817390784F489819A8181332B
:101CC000910509F054F4109213021092120281E06F
:101CD00090E0909315028093140289819A81873352
:101CE000910539F034F08B819C818733910509F09F
:101CF00044F41092170210921602109231021092C0
:101D0000300289819A818C32910509F034F48B81FB
:101D10009C818C32910549F044F010921902109286
:101D20001802109233021092320200000F900F90AE
:101D30000F900F90DF91CF910895CF93DF93CDB7A0
:101D4000DEB781E090E0909313028093120281E06D
:101D500090E090931502809314020000DF91CF91E0
:101D60000895CF93DF93CDB7DEB70E9415050E948B
:101D7000FA070E94660581E090E090931302809339
:101D8000120281E090E090931502809314020E9469
:101D9000B50081E090E0909313028093120281E0FD
:101DA00090E090931502809314020E94EE040000CC
:101DB000EECFEE0FFF1F881F8BBF0790F691E02D2F
:101DC00019940024A7FD00942A0F301D401D501DBA
:101DD000601D701D801D901D08952A193B094C0936
:101DE0005D096E097F09800B910B08950E94670FB2
:101DF00008F481E008950E94930F88F09F5798F0AF
:101E0000B92F9927B751B0F0E1F0660F771F881FFF
:101E1000991F1AF0BA95C9F714C0B13091F00E9419
:101E2000AD0FB1E008950C94AD0F672F782F882780
:101E3000B85F39F0B93FCCF3869577956795B39540
:101E4000D9F73EF490958095709561957F4F8F4FAF
:101E50009F4F0895E89409C097FB3EF490958095B4
:101E6000709561957F4F8F4F9F4F9923A9F0F92F60
:101E700096E9BB279395F695879577956795B795DE
:101E8000F111F8CFFAF4BB0F11F460FF1BC06F5FC4
:101E90007F4F8F4F9F4F16C0882311F096E911C0D6
:101EA000772321F09EE8872F762F05C0662371F0F7
:101EB00096E8862F70E060E02AF09A95660F771F0B
:101EC000881FDAF7880F9695879597F90895990FE7
:101ED0000008550FAA0BE0E8FEEF16161706E807F4
:101EE000F907C0F012161306E407F50798F0621B15
:101EF000730B840B950B39F40A2661F0232B242BEA
:101F0000252B21F408950A2609F4A140A6958FEF08
:101F1000811D811D089557FD9058440F551F59F09C
:101F20005F3F71F04795880F97FB991F61F09F3FC6
:101F300079F087950895121613061406551FF2CFEF
:101F40004695F1DF08C0161617061806991FF1CF3F
:101F500086957105610508940895E894BB27662766
:101F60007727CB0197F908950E94670F08F48FEF48
:101F700008950E94CC0F0C943D100E942F1038F051
:101F80000E94361020F0952311F00C9426100C942A
:101F90002C1011240C94AE0F0E948B0F70F3959FA0
:101FA000C1F3950F50E0551F629FF001729FBB2750
:101FB000F00DB11D639FAA27F00DB11DAA1F649FEC
:101FC0006627B00DA11D661F829F2227B00DA11D9F
:101FD000621F739FB00DA11D621F839FA00D611D25
:101FE000221F749F3327A00D611D231F849F600D46
:101FF000211D822F762F6A2F11249F5750409AF06F
:10200000F1F088234AF0EE0FFF1FBB1F661F771FFA
:10201000881F91505040A9F79E3F510580F00C94C5
:1020200026100C94AE0F5F3FE4F3983ED4F38695F0
:1020300077956795B795F795E7959F5FC1F7FE2B65
:10204000880F911D9695879597F9089597F99F6741
:1020500080E870E060E008959FEF80EC0895002430
:102060000A941616170618060906089500240A94FD
:1020700012161306140605060895092E0394000C83
:1020800011F4882352F0BB0F40F4BF2B11F460FF12
:1020900004C06F5F7F4F8F4F9F4F0895F894FFCF1D
:1020A000BC06C206C806CE06D406DA06E006E60678
:1020B00004070A07100716071C07220728072E0720
:0220C00002001C
:00000001FF
