:100000000C9492000C94B3000C94B3000C94B300C5
:100010000C94B3000C94B3000C94B3000C94B30094
:100020000C94B3000C94B3000C94B3000C94560AD7
:100030000C94B3000C94B3000C94B3000C94B30074
:100040000C94B3000C94B3000C94B3000C94B30064
:100050000C94B3000C94B3000C94B3000C94B30054
:100060000C94B3000C94B3000C94B3000C94B30044
:100070000C94B3000C94B3000C94B3000C948D0852
:100080000C94B3000C9453080C94B3000C94B3007C
:100090000C94B3000C94B3000C94B3000C94B30014
:1000A0000C94B3000C94B3000C94B3000C94B30004
:1000B0000C94B3000C9423060C94B3000C94B3007E
:1000C0000C94B3000C94B3000C94B3000C94B300E4
:1000D0000C94B3000C94B3000C94B3000C94B300D4
:1000E0000C94B3000C9435070C94CF060C94E706DF
:1000F0000C94F3060C942F070C9423070C94C90658
:100100000C9417070C94DB060C9429070C94110728
:100110000C94D5060C94ED060C94E1060C941D0786
:100120000C943B0711241FBECFEFD1E2DEBFCDBF41
:1001300000E00CBF12E0A0E0B2E0EAEDF0E200E087
:100140000BBF02C007900D92A230B107D9F722E091
:10015000A2E0B2E001C01D92A533B207E1F70E9410
:10016000BE0E0C945B100C9400002F923F924F92A5
:100170005F926F927F928F929F92AF92BF92CF9237
:10018000DF92EF92FF920F931F93CF93DF93CDB740
:10019000DEB7C05AD1090FB6F894DEBF0FBECDBF8F
:1001A00080912702909128028A30910511F008F081
:1001B000DAC180E090E00E94B9055C01892F880FC8
:1001C000880BC82ED82EE82EF82E082F182F209036
:1001D00002023090030240900402509005026090A9
:1001E00006027090070280900802909009022A2D62
:1001F0003B2D4C2D5D2D6E2D7F2D802F912FA22C10
:10020000B32CC42CD52CE62CF72C082D192D0E94CC
:10021000FA0E822E932EA42EB52EC62ED72EE82EA1
:10022000F92E282D392D4A2D5B2D6C2D7D2D8E2DEF
:100230009F2D203DA7E03A07410551056105710555
:100240008105910509F008F48EC1109214021092F4
:10025000130210921602109215020E94510580E0BE
:1002600090E0A8ECB3E48F87988BA98BBA8B20E041
:1002700030E04AE755E46F85788989899A890E9438
:10028000C60FA5966CAF7DAF8EAF9FAFA597A59615
:100290008CAD9DADAEADBFADA5978B8B9C8BAD8B63
:1002A000BE8B20E030E040E85FE36B897C898D897C
:1002B0009E890E94030F88232CF481E090E0988FA0
:1002C0008F8B66C020E03FEF4FE757E46B897C8956
:1002D0008D899E890E94C10F882309F00CF446C0C5
:1002E00020E030E040E251E46F85788989899A897D
:1002F0000E94C60FA9966CAF7DAF8EAF9FAFA99736
:10030000A9968CAD9DADAEADBFADA99769968CAFEA
:100310009DAFAEAFBFAF699769966CAD7DAD8EAD49
:100320009FAD69970E94080FAD966CAF7DAF8EAF01
:100330009FAFAD97AB96AEADBFADAB97B88FAF8B60
:1003400010C080E991E09A8F898F898D9A8D0197ED
:10035000F1F79A8F898F00008F89988D0197988F78
:100360008F8B8F89988D009761F71DC06B897C8971
:100370008D899E890E94080FE1966CAF7DAF8EAF8C
:100380009FAFE197AF968EAD9FADAF97988F8F8B54
:100390008F89988D9C8F8B8F8B8D9C8D0197F1F71A
:1003A0009C8F8B8F00000E94620580E090E0AAE79E
:1003B000B4E489839A83AB83BC8320E030E04AE7CE
:1003C00055E469817A818B819C810E94C60FE596F4
:1003D0006CAF7DAF8EAF9FAFE597E5968CAD9DADD1
:1003E000AEADBFADE5978D839E83AF83B88720E028
:1003F00030E040E85FE36D817E818F8198850E94C7
:10040000030F88232CF481E090E09A87898768C0E5
:1004100020E03FEF4FE757E46D817E818F81988523
:100420000E94C10F882309F00CF446C020E030E0A0
:1004300040E251E469817A818B819C810E94C60FE0
:10044000E9966CAF7DAF8EAF9FAFE997E9968CAD23
:100450009DADAEADBFADE99765968CAF9DAFAEAF2C
:10046000BFAF659765966CAD7DAD8EAD9FAD659761
:100470000E94080FED966CAF7DAF8EAF9FAFED97EA
:10048000EB96AEADBFADEB97BA87A98710C080E9F8
:1004900091E09C878B878B859C850197F1F79C87E2
:1004A0008B87000089859A8501979A878987898536
:1004B0009A85009761F71FC06D817E818F81988535
:1004C0000E94080FC358DF4F688379838A839B8318
:1004D000CD57D040EF968EAD9FADEF979A87898725
:1004E00089859A859E878D878D859E850197F1F7F1
:1004F0009E878D87000080910A028F5F80930A0299
:1005000080910A02853021F410920A020E94570756
:1005100080E090E00E94B9059AAF89AF892F880FDB
:10052000880B8BAF8CAF8DAF8EAF8FAF21968FAF17
:10053000219799AD90930202AAADA0930302BBAD9F
:10054000B0930402ECADE09305028DAD80930602FA
:100550009EAD90930702AFADA09308022196BFAD68
:100560002197B09309028091290290912A028A3042
:10057000910511F008F024C280E090E00E94B905D6
:1005800023969FAF8EAF2397892F880F880B2496D1
:100590008FAF249725968FAF259726968FAF2697F6
:1005A00027968FAF279728968FAF289729968FAFDA
:1005B000299720900B0230900C0240900D02509031
:1005C0000E0260900F0270901002809011029090C5
:1005D000120222962FAD229723963FAD23972496A1
:1005E0004FAD249725965FAD259726966FAD26973C
:1005F00027967FAD279728968FAD289729969FAD90
:100600002997A22CB32CC42CD52CE62CF72C082D22
:10061000192D0E94FA0E822E932EA42EB52EC62ED0
:10062000D72EE82EF92E282D392D4A2D5B2D6C2D35
:100630007D2D8E2D9F2D203DE7E03E074105510584
:10064000610571058105910509F008F4B9C11092A1
:1006500014021092130210921602109215020E94B8
:10066000510580E090E0A8ECB3E48BA79CA7ADA770
:10067000BEA720E030E04AE755E46BA57CA58DA538
:100680009EA50E94C60FCF57DF4F688379838A8368
:100690009B83C158D040CF57DF4F88819981AA8171
:1006A000BB81C158D0408FA798ABA9ABBAAB20E0B3
:1006B00030E040E85FE36FA578A989A99AA90E9474
:1006C000030F88232CF481E090E09CAB8BAB72C0CD
:1006D00020E03FEF4FE757E46FA578A989A99AA9D1
:1006E0000E94C10F882309F00CF44EC020E030E0D6
:1006F00040E251E46BA57CA58DA59EA50E94C60F86
:10070000CB57DF4F688379838A839B83C558D0405A
:10071000CB57DF4F88819981AA81BB81C558D040D2
:10072000A1968CAF9DAFAEAFBFAFA197A1966CADB8
:100730007DAD8EAD9FADA1970E94080FC757DF4FCB
:10074000688379838A839B83C958D040C757DF4F1A
:10075000A881B981C958D040BCABABAB10C080E90F
:1007600091E09EAB8DAB8DA99EA90197F1F79EAB51
:100770008DAB00008BA99CA901979CAB8BAB8BA97F
:100780009CA9009761F721C06FA578A989A99AA9AA
:100790000E94080FC357DF4F688379838A839B8346
:1007A000CD58D040C357DF4F88819981CD58D04074
:1007B0009CAB8BAB8BA99CA998AF8FAB8FA998AD45
:1007C0000197F1F798AF8FAB00000E94620580E0BF
:1007D00090E0AAE7B4E48D8F9E8FAF8FB8A320E09E
:1007E00030E04AE755E46D8D7E8D8F8D98A10E9493
:1007F000C60FCF56DF4F688379838A839B83C159A5
:10080000D040CF56DF4F88819981AA81BB81C159E1
:10081000D04089A39AA3ABA3BCA320E030E040E87A
:100820005FE369A17AA18BA19CA10E94030F882399
:100830002CF481E090E09EA38DA372C020E03FEFF6
:100840004FE757E469A17AA18BA19CA10E94C10F37
:10085000882309F00CF44EC020E030E040E251E47F
:100860006D8D7E8D8F8D98A10E94C60FCB56DF4F68
:10087000688379838A839B83C559D040CB56DF4FE9
:1008800088819981AA81BB81C559D0406D968CAF72
:100890009DAFAEAFBFAF6D976D966CAD7DAD8EADBC
:1008A0009FAD6D970E94080FC756DF4F688379830D
:1008B0008A839B83C959D040C756DF4FA881B9812D
:1008C000C959D040BEA3ADA310C080E991E098A75C
:1008D0008FA38FA198A50197F1F798A78FA3000088
:1008E0008DA19EA101979EA38DA38DA19EA100978E
:1008F00061F721C069A17AA18BA19CA10E94080F78
:10090000C356DF4F688379838A839B83CD59D04058
:10091000C356DF4F88819981CD59D0409EA38DA3C6
:100920008DA19EA19AA789A789A59AA50197F1F7FC
:100930009AA789A7000080E090E00E94B9052B9655
:100940009FAF8EAF2B97892F880F880B2C968FAF78
:100950002C972D968FAF2D972E968FAF2E972F9683
:100960008FAF2F9760968FAF609761968FAF61972B
:100970002A969FAD2A9790930B022B96AFAD2B979B
:10098000A0930C022C96BFAD2C97B0930D022D9620
:10099000EFAD2D97E0930E022E968FAD2E9780939C
:1009A0000F022F969FAD2F97909310026096AFADD8
:1009B0006097A09311026196BFAD6197B093120248
:1009C0000000C056DF4F0FB6F894DEBF0FBECDBF9C
:1009D000DF91CF911F910F91FF90EF90DF90CF901B
:1009E000BF90AF909F908F907F906F905F904F904F
:1009F0003F902F900895CF93DF93CDB7DEB78091CE
:100A00002D0290912E028730910509F060F482E763
:100A100090E0FC01208182E790E02E7FFC012083A2
:100A20000E9451050BC082E790E0FC01208182E723
:100A300090E02160FC0120830E9462050000DF91AC
:100A4000CF910895CF93DF93CDB7DEB78AE091E0E1
:100A5000FC0120818AE091E02860FC01208380E293
:100A600091E021E0FC01208381E291E0FC01208102
:100A700081E291E02460FC01208381E291E0FC01AD
:100A8000208181E291E02860FC01208388E291E0EE
:100A900020EC30E0FC01318320830000DF91CF9116
:100AA0000895CF93DF93CDB7DEB780E291E0FC01EC
:100AB000208180E291E02068FC0120830000DF912A
:100AC000CF910895CF93DF93CDB7DEB780E291E069
:100AD000FC01208180E291E02F77FC01208300005F
:100AE000DF91CF910895CF93DF93CDB7DEB7F89420
:100AF00081E290E0FC01208181E290E02A6AFC0121
:100B0000208387E290E0FC01208187E290E0256568
:100B1000FC01208380EA90E0FC01108281EA90E0F1
:100B2000FC01108284EA90E026E030E0FC01318391
:100B3000208380EA90E0FC01208180EA90E022603E
:100B4000FC01208381EA90E0FC01208181EA90E0B1
:100B50002360FC01208382E790E0FC01208182E792
:100B600090E02160FC01208378940000DF91CF9118
:100B700008958F929F92AF92BF92CF92DF92EF92A1
:100B8000FF920F931F93CF93DF930F920F92CDB7E6
:100B9000DEB79A83898389819A818130910599F59D
:100BA00080901B0290901C02A0901D02B0901E022B
:100BB000C0901F02D0902002E0902102F09022020B
:100BC000282D392D4A2D5B2D6C2D7D2D8E2D9F2DA1
:100BD000A1E00E94EE0E822E932EA42EB52EC62EDC
:100BE000D72EE82EF92E80921B0290921C02A09222
:100BF0001D02B0921E02C0921F02D0922002E0920B
:100C00002102F092220200911B0210911C022091FD
:100C10001D0230911E0240911F02509120026091EE
:100C2000210270912202C8010F900F90DF91CF91A5
:100C30001F910F91FF90EF90DF90CF90BF90AF90FA
:100C40009F908F9008951F920F920FB60F921124CC
:100C50000BB60F922F933F934F935F936F937F93B6
:100C60008F939F93AF93BF93EF93FF93CF93DF93B4
:100C7000CDB7DEB784EA90E026E030E0FC013183B6
:100C8000208381E090E00E94B905209123023091F9
:100C900024028091130290911402A901481B590B60
:100CA000CA0190932402809323022091170230916D
:100CB00018028091130290911402820F931F909357
:100CC000180280931702209125023091260280910C
:100CD000150290911602820F931F90932602809323
:100CE00025022091190230911A02809115029091EB
:100CF0001602820F931F90931A028093190280911B
:100D00002302909124028F3F980739F487E090E006
:100D100090932402809323020BC080912302909130
:100D200024028830910521F41092240210922302AB
:100D300080912502909126028F3F980739F487E031
:100D400090E090932602809325020BC080912502AB
:100D5000909126028830910521F41092260210927B
:100D600025028091230290912402092E000CAA0BE7
:100D7000BB0B0197A109B10987309105A105B10508
:100D800009F0B8F5FC018827E35AFF4E8F4F0C9409
:100D9000E60E88E290E025E0FC0120832AC088E28C
:100DA00090E024E0FC01208324C088E290E024E16C
:100DB000FC0120831EC088E290E020E1FC0120833A
:100DC00018C088E290E020E5FC01208312C088E290
:100DD00090E020E4FC0120830CC088E290E021E454
:100DE000FC01208306C088E290E021E0FC01208322
:100DF00000008091250290912602092E000CAA0B7A
:100E0000BB0B0197A109B10987309105A105B10577
:100E100009F0B8F5FC018827EB59FF4E8F4F0C9471
:100E2000E60E82E290E02AE0FC0120832AC082E202
:100E300090E022E0FC01208324C082E290E022E8DE
:100E4000FC0120831EC082E290E020E8FC012083A8
:100E500018C082E290E020EAFC01208312C082E206
:100E600090E020E2FC0120830CC082E290E028E2C6
:100E7000FC01208306C082E290E028E0FC01208390
:100E800000000000DF91CF91FF91EF91BF91AF91F2
:100E90009F918F917F916F915F914F913F912F9192
:100EA0000F900BBE0F900FBE0F901F901895CF9311
:100EB000DF93CDB7DEB7109218021092170210928E
:100EC0001A02109219020EC081E090E09093140271
:100ED0008093130281E090E09093160280931502B4
:100EE0000E94FB0480911702909118028F392FE025
:100EF000920751F34CF310921802109217021092BD
:100F00001A02109219020EC081E090E09093140230
:100F1000809313028FEF9FEF909316028093150238
:100F20000E94FB0480911702909118028F3529E0EE
:100F3000920751F34CF3109218021092170210927C
:100F40001A02109219020EC081E090E090931402F0
:100F50008093130281E090E0909316028093150233
:100F60000E94FB0480911702909118028F3A26E3A9
:100F7000920751F34CF3109218021092170210923C
:100F80001A02109219020EC081E090E090931402B0
:100F9000809313028FEF9FEF9093160280931502B8
:100FA0000E94FB0480911702909118028F3529E06E
:100FB000920751F34CF30EC081E090E0909314023D
:100FC0008093130281E090E09093160280931502C3
:100FD0000E94FB0480911702909118028F392FE034
:100FE000920751F34CF310921802109217021092CC
:100FF0001A02109219021092140210921302109207
:101000001602109215020000DF91CF910895CF9340
:10101000DF93CDB7DEB7F89480E990E0FC01208142
:1010200080E990E02268FC01208381E990E0FC01E6
:10103000208181E990E02A61FC01208386E990E02B
:1010400020E030E8FC013183208388E990E024E14E
:1010500030E0FC01318320838AE990E02CE735E120
:10106000FC01318320838DE290E0FC0120818DE240
:1010700090E02860FC01208381E790E0FC01208162
:1010800081E790E02462FC01208388E690E0FC0187
:10109000208188E690E02460FC01208378940000A1
:1010A000DF91CF9108951F920F920FB60F921124E6
:1010B0000BB60F922F938F939F93EF93FF93CF9342
:1010C000DF93CDB7DEB780910002880F80930002D6
:1010D00080910002803419F482E0809300028DE652
:1010E00090E020910002FC01208381E790E0FC0168
:1010F000208181E790E02460FC0120830000DF91E3
:10110000CF91FF91EF919F918F912F910F900BBEF7
:101110000F900FBE0F901F9018951F920F920FB651
:101120000F9211240BB60F922F933F934F935F931F
:101130006F937F938F939F93AF93BF93EF93FF939F
:10114000CF93DF93CDB7DEB7C456D109DEBFCDBF95
:1011500080910002823009F043C086E990E0DC0112
:101160008D919C91865691419695879596958795F8
:101170009C0140E050E029A73AA74BA75CA769A5CE
:101180007AA58BA59CA50E94370F69837A838B83F0
:101190009C8328E23EE74CE05DE369817A818B81A4
:1011A0009C810E94C60F6DA77EA78FA798AB8DA5C7
:1011B0009EA5AFA5B8A98D839E83AF83B8876D81A7
:1011C0007E818F8198850E94080F69AB7AAB8BABCB
:1011D0009CAB89A99AA990932A028093290245C1C0
:1011E00080910002843009F045C086E990E0DC017E
:1011F0008D919C9186569141969587959695879568
:101200009C0140E050E02DAB3EAB4FAB58AF6DA919
:101210007EA98FA998AD0E94370F69877A878B873F
:101220009C8728E23EE74CE05DE369857A858B8503
:101230009C850E94C60F69AF7AAF8BAF9CAF89AD1A
:101240009AADABADBCAD8D879E87AF87B88B6D85F2
:101250007E858F8598890E94080F21966CAF7DAF9F
:101260008EAF9FAF21978DAD9EAD90932802809356
:101270002702FBC080910002883009F04FC086E948
:1012800090E0DC018D919C918656914196958795D1
:10129000969587959C0140E050E025962CAF3DAF98
:1012A0004EAF5FAF259725966CAD7DAD8EAD9FADF2
:1012B00025970E94370F698B7A8B8B8B9C8B28E24A
:1012C0003EE74CE05DE369897A898B899C890E94BD
:1012D000C60F29966CAF7DAF8EAF9FAF2997299629
:1012E0008CAD9DADAEADBFAD29978D8B9E8BAF8B79
:1012F000B88F6D897E898F89988D0E94080F2D96F1
:101300006CAF7DAF8EAF9FAF2D972B968EAD9FADFF
:101310002B979093300280932F02A7C080910002F8
:10132000803109F04FC086E990E0DC018D919C91FD
:101330008656914196958795969587959C0140E0B4
:1013400050E061962CAF3DAF4EAF5FAF61976196B5
:101350006CAD7DAD8EAD9FAD61970E94370F698FEB
:101360007A8F8B8F9C8F28E23EE74CE05DE3698D9E
:101370007A8D8B8D9C8D0E94C60F65966CAF7DAF6C
:101380008EAF9FAF659765968CAD9DADAEADBFAD91
:1013900065978D8F9E8FAF8FB8A36D8D7E8D8F8D4E
:1013A00098A10E94080F69966CAF7DAF8EAF9FAF7A
:1013B000699767968EAD9FAD679790932E02809345
:1013C0002D0253C080910002803209F04EC086E9A0
:1013D00090E0DC018D919C91865691419695879580
:1013E000969587959C0140E050E06D962CAF3DAFFF
:1013F0004EAF5FAF6D976D966CAD7DAD8EAD9FAD11
:101400006D970E94370F69A37AA38BA39CA328E250
:101410003EE74CE05DE369A17AA18BA19CA10E940B
:10142000C60FA1966CAF7DAF8EAF9FAFA197A1966F
:101430008CAD9DADAEADBFADA1978DA39EA3AFA367
:10144000B8A76DA17EA18FA198A50E94080FA596AF
:101450006CAF7DAF8EAF9FAFA597A3968EAD9FADBE
:10146000A39790932C0280932B028DE690E0DC01F1
:101470001C920000CC59DF4F0FB6F894DEBF0FBEB0
:10148000CDBFDF91CF91FF91EF91BF91AF919F9130
:101490008F917F916F915F914F913F912F910F901D
:1014A0000BBE0F900FBE0F901F9018951F920F92BA
:1014B0000FB60F9211240BB60F922F933F934F93B9
:1014C0005F936F937F938F939F93AF93BF93EF93AC
:1014D000FF93CF93DF93CDB7DEB7C456D109DEBFFC
:1014E000CDBF80910002823009F04CC084E990E0C9
:1014F000DC018D919C9186569141969587959695A4
:1015000087959C0140E050E029A73AA74BA75CA72C
:1015100069A57AA58BA59CA50E94370F69837A835C
:101520008B839C8328E23EE74CE05DE369817A810E
:101530008B819C810E94C60F6DA77EA78FA798AB59
:101540008DA59EA5AFA5B8A98D839E83AF83B887CF
:101550006D817E818F8198850E94080F69AB7AAB7F
:101560008BAB9CAB89A99AA990932A0280932902FC
:1015700082E290E0DC012C9182E290E02E7FFC017F
:10158000208369C180910002843009F04EC084E953
:1015900090E0DC018D919C918656914196958795BE
:1015A000969587959C0140E050E02DAB3EAB4FAB4C
:1015B00058AF6DA97EA98FA998AD0E94370F698792
:1015C0007A878B879C8728E23EE74CE05DE369855C
:1015D0007A858B859C850E94C60F69AF7AAF8BAFE9
:1015E0009CAF89AD9AADABADBCAD8D879E87AF8703
:1015F000B88B6D857E858F8598890E94080F21960E
:101600006CAF7DAF8EAF9FAF21978DAD9EAD9093A8
:1016100028028093270282E290E0DC012C9182E292
:1016200090E02D7FFC01208316C18091000288305C
:1016300009F058C084E990E0DC018D919C918656B8
:10164000914196958795969587959C0140E050E04D
:1016500025962CAF3DAF4EAF5FAF259725966CAD6D
:101660007DAD8EAD9FAD25970E94370F698B7A8B2C
:101670008B8B9C8B28E23EE74CE05DE369897A899D
:101680008B899C890E94C60F29966CAF7DAF8EAF67
:101690009FAF299729968CAD9DADAEADBFAD299773
:1016A0008D8B9E8BAF8BB88F6D897E898F89988D3E
:1016B0000E94080F2D966CAF7DAF8EAF9FAF2D9718
:1016C0002B968EAD9FAD2B979093300280932F0277
:1016D00082E290E0DC012C9182E290E02B7FFC0121
:1016E0002083B9C080910002803109F058C084E99C
:1016F00090E0DC018D919C9186569141969587955D
:10170000969587959C0140E050E061962CAF3DAFE7
:101710004EAF5FAF619761966CAD7DAD8EAD9FAD05
:1017200061970E94370F698F7A8F8B8F9C8F28E289
:101730003EE74CE05DE3698D7A8D8B8D9C8D0E9438
:10174000C60F65966CAF7DAF8EAF9FAF6597659600
:101750008CAD9DADAEADBFAD65978D8F9E8FAF8FBC
:10176000B8A36D8D7E8D8F8D98A10E94080F69960C
:101770006CAF7DAF8EAF9FAF699767968EAD9FAD13
:10178000679790932E0280932D0282E290E0DC0115
:101790002C9182E290E0277FFC0120835CC0809145
:1017A0000002803209F057C084E990E0DC018D919D
:1017B0009C918656914196958795969587959C0123
:1017C00040E050E06D962CAF3DAF4EAF5FAF6D97F0
:1017D0006D966CAD7DAD8EAD9FAD6D970E94370F50
:1017E00069A37AA38BA39CA328E23EE74CE05DE3C8
:1017F00069A17AA18BA19CA10E94C60FA1966CAF92
:101800007DAF8EAF9FAFA197A1968CAD9DADAEADD4
:10181000BFADA1978DA39EA3AFA3B8A76DA17EA1D5
:101820008FA198A50E94080FA5966CAF7DAF8EAFD3
:101830009FAFA597A3968EAD9FADA39790932C02D3
:1018400080932B0282E290E0DC012C9182E290E016
:101850002F7EFC01208381E790E0DC012C9181E761
:1018600090E02F7DFC0120838DE690E0DC011C924E
:101870000000CC59DF4F0FB6F894DEBF0FBECDBFCE
:10188000DF91CF91FF91EF91BF91AF919F918F9198
:101890007F916F915F914F913F912F910F900BBE70
:1018A0000F900FBE0F901F901895CF93DF93CDB779
:1018B000DEB780912B0290912C028431910509F0C2
:1018C00058F4109214021092130281E090E0909369
:1018D00016028093150230C080912F029091300241
:1018E0008431910509F058F481E090E0909314025E
:1018F0008093130210921602109215021DC080915F
:101900002D0290912E028431910509F068F481E056
:1019100090E0909314028093130281E090E0909302
:1019200016028093150208C010921402109213023E
:1019300010921602109215020000DF91CF910895C7
:10194000CF93DF93CDB7DEB789EB90E021E0FC01C8
:10195000208388EB90E022E1FC0120838CEB90E077
:1019600024E0FC0120830000DF91CF910895CF9304
:10197000DF93CDB7DEB78CEB90E024EAFC01208347
:1019800000008CEB90E0FC0180818823D4F70000FC
:101990000000DF91CF910895CF93DF93CDB7DEB7ED
:1019A0008CEB90E024E9FC0120830000DF91CF91D3
:1019B0000895CF93DF930F92CDB7DEB789838BEB7A
:1019C00090E02981FC0120838CEB90E024E8FC016D
:1019D000208300008CEB90E0FC0180818823D4F709
:1019E000000000000F90DF91CF910895CF93DF9317
:1019F000CDB7DEB78CEB90E024ECFC012083000037
:101A00008CEB90E0FC0180818823D4F78BEB90E095
:101A1000FC018081DF91CF910895CF93DF93CDB703
:101A2000DEB78CEB90E024E8FC01208300008CEB17
:101A300090E0FC0180818823D4F78BEB90E0FC01DF
:101A40008081DF91CF910895CF93DF930F92CDB72F
:101A5000DEB789EB90E0FC018081887F89838981F2
:101A60000F90DF91CF910895CF93DF9300D0CDB742
:101A7000DEB789836A834B830E94B70C0E94240DD2
:101A8000883011F081E01EC089810E94D90C0E942B
:101A9000240D883111F081E015C08A810E94D90C93
:101AA0000E94240D883211F081E00CC08B810E94CD
:101AB000D90C0E94240D883211F081E003C00E94ED
:101AC000CC0C80E00F900F900F90DF91CF91089594
:101AD000CF93DF9300D00F92CDB7DEB789836A83AF
:101AE0005C834B830E94B70C0E94240D883011F058
:101AF00081E033C089810E94D90C0E94240D883175
:101B000011F081E02AC08A810E94D90C0E94240D24
:101B1000883211F081E021C00E94B70C0E94240D90
:101B2000803111F081E019C089810E94D90C0E9496
:101B3000240D803411F081E010C00E940D0D282F7B
:101B40008B819C81FC0120830E94240D883511F03B
:101B500081E003C00E94CC0C80E00F900F900F90AA
:101B60000F90DF91CF910895CF93DF9300D00F9224
:101B7000CDB7DEB79A8389837C836B8389819A8111
:101B800087339105B9F1B4F18B819C81873391053D
:101B900089F184F18091310290913202009751F4E1
:101BA000109218021092170281E090E09093320296
:101BB0008093310280911702909118028330910531
:101BC00009F05CF481E090E090931402809313029A
:101BD00010921602109215028DC081E090E0909351
:101BE00014028093130281E090E090931602809398
:101BF000150280C089819A818C32910509F0B4F573
:101C00008B819C818C32910509F084F5809133029F
:101C100090913402009751F410921A021092190216
:101C200081E090E090933402809333028091190216
:101C300090911A028330910509F05CF4109214021D
:101C40001092130281E090E09093160280931502A7
:101C500051C081E090E0909314028093130281E0E0
:101C600090E0909316028093150244C029813A8136
:101C70008B819C812817390769F481E090E090936B
:101C800014028093130281E090E0909316028093F7
:101C9000150230C029813A818B819C812817390730
:101CA00091F08CF089819A818133910519F114F1B9
:101CB00081E090E090931402809313021092160238
:101CC0001092150217C029813A818B819C812817B7
:101CD000390784F489819A818133910509F054F49C
:101CE000109214021092130281E090E09093160279
:101CF0008093150289819A818733910539F034F0F8
:101D00008B819C818733910509F044F4109218026D
:101D100010921702109232021092310289819A8138
:101D20008C32910509F034F48B819C818C329105C1
:101D300049F044F010921A021092190210923402E3
:101D40001092330200000F900F900F900F90DF91D0
:101D5000CF910895CF93DF93CDB7DEB781E090E0C8
:101D6000909314028093130281E090E09093160206
:101D7000809315020000DF91CF910895CF93DF93F8
:101D8000CDB7DEB70E9422050E9407080E947305A6
:101D900081E090E0909314028093130281E090E040
:101DA00090931602809315020E94B50081E090E0A6
:101DB000909314028093130281E090E090931602B6
:101DC000809315020E94FB040000EECFEE0FFF1F70
:101DD000881F8BBF0790F691E02D19940024A7FD72
:101DE00000942A0F301D401D501D601D701D801D68
:101DF000901D08952A193B094C095D096E097F0958
:101E0000800B910B08950E94740F08F481E00895EF
:101E10000E94A00F88F09F5798F0B92F9927B751CB
:101E2000B0F0E1F0660F771F881F991F1AF0BA957E
:101E3000C9F714C0B13091F00E94BA0FB1E0089513
:101E40000C94BA0F672F782F8827B85F39F0B93F05
:101E5000CCF3869577956795B395D9F73EF4909531
:101E60008095709561957F4F8F4F9F4F0895E894AF
:101E700009C097FB3EF490958095709561957F4FD2
:101E80008F4F9F4F9923A9F0F92F96E9BB27939580
:101E9000F695879577956795B795F111F8CFFAF490
:101EA000BB0F11F460FF1BC06F5F7F4F8F4F9F4FC1
:101EB00016C0882311F096E911C0772321F09EE81F
:101EC000872F762F05C0662371F096E8862F70E085
:101ED00060E02AF09A95660F771F881FDAF7880F5F
:101EE0009695879597F90895990F0008550FAA0BB5
:101EF000E0E8FEEF16161706E807F907C0F012161D
:101F00001306E407F50798F0621B730B840B950B1F
:101F100039F40A2661F0232B242B252B21F4089574
:101F20000A2609F4A140A6958FEF811D811D089511
:101F300057FD9058440F551F59F05F3F71F047957A
:101F4000880F97FB991F61F09F3F79F0879508955F
:101F5000121613061406551FF2CF4695F1DF08C07E
:101F6000161617061806991FF1CF8695710561059B
:101F700008940895E894BB2766277727CB0197F943
:101F800008950E94740F08F48FEF08950E94D90FEE
:101F90000C944A100E943C1038F00E94431020F02C
:101FA000952311F00C9433100C94391011240C94D7
:101FB000BB0F0E94980F70F3959FC1F3950F50E0EF
:101FC000551F629FF001729FBB27F00DB11D639FEB
:101FD000AA27F00DB11DAA1F649F6627B00DA11D91
:101FE000661F829F2227B00DA11D621F739FB00D37
:101FF000A11D621F839FA00D611D221F749F3327A7
:10200000A00D611D231F849F600D211D822F762F3F
:102010006A2F11249F5750409AF0F1F088234AF01C
:10202000EE0FFF1FBB1F661F771F881F9150504088
:10203000A9F79E3F510580F00C9433100C94BB0F10
:102040005F3FE4F3983ED4F3869577956795B7950F
:10205000F795E7959F5FC1F7FE2B880F911D969529
:10206000879597F9089597F99F6780E870E060E099
:1020700008959FEF80EC089500240A941616170621
:1020800018060906089500240A9412161306140669
:1020900005060895092E0394000C11F4882352F0CC
:1020A000BB0F40F4BF2B11F460FF04C06F5F7F4F84
:1020B0008F4F9F4F0895F894FFCFC906CF06D506DE
:1020C000DB06E106E706ED06F306110717071D0715
:0A20D000230729072F0735073B07F8
:0220DA00020002
:00000001FF
