:100000000C9472000C9493000C9493000C94930045
:100010000C9493000C9493000C9493000C94930014
:100020000C9493000C9493000C9493000C94F1079F
:100030000C9493000C9493000C9493000C949300F4
:100040000C9493000C9493000C9493000C949300E4
:100050000C9493000C9493000C9493000C949300D4
:100060000C9493000C9493000C9493000C949300C4
:100070000C9493000C9493000C9493000C94E5065C
:100080000C9493000C94AD060C9493000C94930084
:100090000C9493000C9493000C9493000C94930094
:1000A0000C9493000C9493000C9493000C94930084
:1000B0000C9493000C9461040C9493000C949300A2
:1000C0000C9493000C9493000C9493000C94930064
:1000D0000C9493000C9493000C9493000C94930054
:1000E0000C94930011241FBECFEFD1E2DEBFCDBF31
:1000F00000E00CBF12E0A0E0B2E0E6EBF7E100E0C8
:100100000BBF02C007900D92A230B107D9F722E0D1
:10011000A2E0B2E001C01D92A432B207E1F70E9452
:100120006D0A0C94D90B0C940000DF93CF93CDB7DC
:10013000DEB7E8970FB6F894DEBF0FBECDBF809153
:100140001602909117028B30910508F0F0C01092C2
:1001500003021092020210920502109204020E9401
:10016000ED0280E090E0A8ECB3E48DAB9EABAFABCA
:10017000B8AF6DA97EA98FA998AD20E030E04AE71D
:1001800055E40E94440BDC01CB0189AB9AABABABCD
:10019000BCAB69A97AA98BA99CA920E030E040E812
:1001A0005FE30E94810A88232CF481E090E098AB01
:1001B0008FA73FC069A97AA98BA99CA920E03FEF2E
:1001C0004FE757E40E943F0B18164CF56DA97EA926
:1001D0008FA998AD20E030E040E251E40E94440B4A
:1001E000DC01CB01BC01CD010E94860ADC01CB0100
:1001F00098AB8FA70FC080E991E09EA78DA78DA532
:100200009EA50197F1F79EA78DA78FA598A90197A5
:1002100098AB8FA78FA598A9009769F714C069A913
:100220007AA98BA99CA90E94860ADC01CB0198AB14
:100230008FA78FA598A99CA78BA78BA59CA5019795
:10024000F1F79CA78BA70E94FB0280E090E0AAE751
:10025000B4E48FA398A7A9A7BAA76FA178A589A589
:100260009AA520E030E04AE755E40E94440BDC0107
:10027000CB018BA39CA3ADA3BEA36BA17CA18DA13D
:100280009EA120E030E040E85FE30E94810A8823DD
:100290002CF481E090E09AA389A33FC06BA17CA1DC
:1002A0008DA19EA120E03FEF4FE757E40E943F0B56
:1002B00018164CF56FA178A589A59AA520E030E025
:1002C00040E251E40E94440BDC01CB01BC01CD01B2
:1002D0000E94860ADC01CB019AA389A30FC080E9A2
:1002E00091E098A38F8F8F8D98A10197F1F798A334
:1002F0008F8F89A19AA101979AA389A389A19AA115
:10030000009769F714C06BA17CA18DA19EA10E94EA
:10031000860ADC01CB019AA389A389A19AA19E8FA9
:100320008D8F8D8D9E8D0197F1F79E8F8D8F809192
:100330001802909119028B30910508F0F0C01092CC
:1003400003021092020210920502109204020E940F
:10035000ED0280E090E0A8ECB3E4898F9A8FAB8F38
:10036000BC8F698D7A8D8B8D9C8D20E030E04AE7C3
:1003700055E40E94440BDC01CB018D8B9E8BAF8B2F
:10038000B88F6D897E898F89988D20E030E040E8B4
:100390005FE30E94810A88232CF481E090E09C8B2B
:1003A0008B8B3FC06D897E898F89988D20E03FEFD0
:1003B0004FE757E40E943F0B18164CF5698D7A8D74
:1003C0008B8D9C8D20E030E040E251E40E94440B94
:1003D000DC01CB01BC01CD010E94860ADC01CB010E
:1003E0009C8B8B8B0FC080E991E09A8B898B8989DC
:1003F0009A890197F1F79A8B898B8B899C89019750
:100400009C8B8B8B8B899C89009769F714C06D89B5
:100410007E898F89988D0E94860ADC01CB019C8B96
:100420008B8B8B899C89988B8F878F859889019777
:10043000F1F7988B8F870E94FB0280E090E0AAE79B
:10044000B4E48B879C87AD87BE876B857C858D8563
:100450009E8520E030E04AE755E40E94440BDC0131
:10046000CB018F839887A987BA876F817885898523
:100470009A8520E030E040E85FE30E94810A88230B
:100480002CF481E090E09E838D833FC06F8178855E
:1004900089859A8520E03FEF4FE757E40E943F0BA4
:1004A00018164CF56B857C858D859E8520E030E0A7
:1004B00040E251E40E94440BDC01CB01BC01CD01C0
:1004C0000E94860ADC01CB019E838D830FC080E9E8
:1004D00091E09C838B838B819C810197F1F79C83B6
:1004E0008B838D819E8101979E838D838D819E81DB
:1004F000009769F714C06F81788589859A850E9475
:10050000860ADC01CB019E838D838D819E819A8337
:10051000898389819A810197F1F79A838983E89683
:100520000FB6F894DEBF0FBECDBFCF91DF91089517
:10053000DF93CF93CDB7DEB780911C0290911D025F
:100540008830910570F080911E0290911F028830D2
:10055000910538F080911A0290911B028830910524
:1005600050F4A2E7B0E0E2E7F0E080818E7F8C9368
:100570000E94ED0209C0A2E7B0E0E2E7F0E080816E
:1005800081608C930E94FB02CF91DF910895DF93ED
:10059000CF93CDB7DEB7AAE0B1E0EAE0F1E0808129
:1005A00088608C93E0E2F1E081E08083A1E2B1E039
:1005B000E1E2F1E0808184608C93A1E2B1E0E1E2CC
:1005C000F1E0808188608C93E8E2F1E080EC90E0DB
:1005D00091838083CF91DF910895DF93CF93CDB73F
:1005E000DEB7A0E2B1E0E0E2F1E0808180688C93C8
:1005F000CF91DF910895DF93CF93CDB7DEB7A0E21F
:10060000B1E0E0E2F1E080818F778C93CF91DF91D0
:100610000895DF93CF93CDB7DEB7F894A1E2B0E0B1
:10062000E1E2F0E080818A6A8C93A7E2B0E0E7E241
:10063000F0E0808185658C93E0EAF0E01082E1EAE9
:10064000F0E01082E4EAF0E086E090E091838083BD
:10065000A0EAB0E0E0EAF0E0808182608C93A1EA59
:10066000B0E0E1EAF0E0808183608C93A2E7B0E043
:10067000E2E7F0E0808181608C937894CF91DF9104
:100680000895DF93CF93CDB7DEB7AD970FB6F8944B
:10069000DEBF0FBECDBF9A83898389819A81813065
:1006A000910509F0F4C080910A028B8390910B02AE
:1006B0009C8380910C028D8390910D029E8380918A
:1006C0000E028F8390910F02988780911002898784
:1006D000909111029A8781E08B871C861D861E8669
:1006E0001F86188A198A1A8A9B818B85980F9B8B83
:1006F00091E09B8F8B899B81891708F01B8E8C81E1
:100700009C85890F8C8B81E08C8F9C898C819817BC
:1007100008F01C8E9B8D8C89980F9D8F91E09E8F89
:100720008D8D9C89891708F01E8E8C8D9E8D892B4E
:100730008C8F8D8D8C8B9D818D85980F9D8B91E0FD
:100740009F8F8D899D81891708F01F8E8C8D9D89C3
:10075000890F88A381E089A398A18D89981708F053
:1007600019A29F8D89A1982B9F8F98A19D8B8E8117
:100770009E85890F8E8B81E08AA39E898E81981732
:1007800008F01AA29F8D8E89980F9BA391E09CA3DD
:100790008BA19E89891708F01CA28AA19CA1892B94
:1007A0008AA38BA18E8B9F818F85980F9F8B91E061
:1007B0009DA38F899F81891708F01DA28AA19F8917
:1007C000890F8EA381E08FA39EA18F89981708F0CF
:1007D0001FA29DA18FA1982B9DA39EA19F8B888571
:1007E0009889890F888F81E088A7988D88859817C8
:1007F00008F018A69DA1888D980F99A791E09AA757
:1008000089A5988D891708F01AA688A59AA5892B1D
:1008100088A789A5888F99858989980F998F91E0F4
:100820009BA7898D9985891708F01BA688A5998DA6
:10083000890F8CA781E08DA79CA5898D981708F05A
:100840001DA69BA58DA5982B9BA79CA5998F8A85F6
:100850009A89890F8A8F8BA59A8D890F8A8F2B8908
:100860003C894D895E896F89788D898D9A8D209319
:100870000A0230930B0240930C0250930D026093D6
:100880000E0270930F028093100290931102209138
:100890000A0230910B0240910C0250910D026091BE
:1008A0000E0270910F028091100290911102C90105
:1008B000AD960FB6F894DEBF0FBECDBFCF91DF91DE
:1008C00008951F920F920FB60F9200905B000F9247
:1008D00011242F933F934F935F936F937F938F9345
:1008E0009F93AF93BF93EF93FF93DF93CF9300D08A
:1008F0000F92CDB7DEB7E4EAF0E086E090E09183B6
:10090000808381E090E00E944103209114023091A5
:1009100015028091020290910302A901481B590B14
:10092000CA0190931502809314022091060230911F
:1009300007028091020290910302820F931F90930D
:1009400007028093060220911202309113028091D7
:10095000040290910502820F931F909313028093DB
:1009600012022091080230910902809104029091B4
:100970000502820F931F90930902809308028091D1
:100980001402909115025FEF8F3F950739F487E0CD
:1009900090E090931502809314020BC08091140292
:1009A000909115028830910521F410921502109251
:1009B000140280911202909113022FEF8F3F920741
:1009C00039F487E090E090931302809312020BC0F9
:1009D00080911202909113028830910521F41092B7
:1009E00013021092120240911402509115025C837E
:1009F0004B838B819C8184309105C9F14B815C8153
:100A00004530510584F48B819C818230910529F118
:100A10004B815C81433051052CF58B819C81813069
:100A20009105B1F03CC04B815C814630510549F1E4
:100A30008B819C8186309105FCF04B815C81473035
:100A4000510521F18B819C818830910521F127C0CE
:100A5000E8E2F0E085E0808322C0E8E2F0E084E0B4
:100A600080831DC0E8E2F0E084E1808318C0E8E202
:100A7000F0E080E1808313C0E8E2F0E080E580836D
:100A80000EC0E8E2F0E080E4808309C0E8E2F0E034
:100A900081E4808304C0E8E2F0E081E0808340915B
:100AA0001202509113025A83498389819A818430BA
:100AB0009105C9F149815A814530510584F48981F4
:100AC0009A818230910529F149815A81433051053B
:100AD0002CF589819A8181309105B1F03CC0498122
:100AE0005A814630510549F189819A8186309105B4
:100AF000FCF049815A814730510521F189819A8161
:100B00008830910521F127C0E2E2F0E08AE080839D
:100B100022C0E2E2F0E082E080831DC0E2E2F0E089
:100B200082E8808318C0E2E2F0E080E8808313C0AE
:100B3000E2E2F0E080EA80830EC0E2E2F0E080E2F0
:100B4000808309C0E2E2F0E088E2808304C0E2E250
:100B5000F0E088E080830F900F900F900F90CF917E
:100B6000DF91FF91EF91BF91AF919F918F917F9115
:100B70006F915F914F913F912F910F9000925B0089
:100B80000F900FBE0F901F901895DF93CF93CDB7A6
:100B9000DEB710920702109206021092090210921C
:100BA00008020EC081E090E090930302809302025D
:100BB00081E090E090930502809304020E949802E5
:100BC000809106029091070220E18038920754F349
:100BD0001092070210920602109209021092080267
:100BE0000EC081E090E090930302809302028FEFA9
:100BF0009FEF90930502809304020E9498028091D7
:100C000006029091070229E08036920754F3109271
:100C100007021092060210920902109208020EC0FA
:100C200081E090E0909303028093020281E090E0E3
:100C300090930502809304020E949802809106021C
:100C4000909107022FE18034920754F3109207022B
:100C50001092060210920902109208020EC081E062
:100C600090E090930302809302028FEF9FEF9093A6
:100C70000502809304020E949802809106029091DE
:100C8000070229E08036920754F30EC081E090E01D
:100C9000909303028093020281E090E0909305021A
:100CA000809304020E9498028091060290910702AC
:100CB00029E1803E920754F3109207021092060237
:100CC000109209021092080210920302109202027E
:100CD0001092050210920402CF91DF910895DF93E4
:100CE000CF93CDB7DEB7F894A0E9B0E0E0E9F0E04B
:100CF000808182688C93A1E9B0E0E1E9F0E0808135
:100D00008A618C93E6E9F0E080E090E8918380834B
:100D1000E8E9F0E084E190E091838083EAE9F0E0A3
:100D20008CE795E191838083ADE2B0E0EDE2F0E005
:100D3000808188608C93A1E7B0E0E1E7F0E08081FA
:100D400084628C93A8E6B0E0E8E6F0E080818460FD
:100D50008C937894CF91DF9108951F920F920FB6E4
:100D60000F9200905B000F9211248F93AF93BF936B
:100D7000EF93FF93DF93CF93CDB7DEB7809100025F
:100D8000880F8093000280910002803419F482E081
:100D900080930002EDE6F0E0809100028083A1E7FD
:100DA000B0E0E1E7F0E0808184608C93CF91DF9147
:100DB000FF91EF91BF91AF918F910F9000925B00E7
:100DC0000F900FBE0F901F9018951F920F920FB6A5
:100DD0000F9200905B000F9211242F933F934F933B
:100DE0005F936F937F938F939F93AF93BF93EF9393
:100DF000FF93DF93CF93CDB7DEB7809100028230AF
:100E000041F5E6E9F0E08081918186569141969521
:100E1000879596958795CC01A0E0B0E0BC01CD0107
:100E20000E94B50ADC01CB01BC01CD0128E23EE7FE
:100E30004CE05DE30E94440BDC01CB01BC01CD0121
:100E40000E94860ADC01CB0190931902809318025C
:100E5000AFC080910002843041F5E6E9F0E0808186
:100E60009181865691419695879596958795CC0167
:100E7000A0E0B0E0BC01CD010E94B50ADC01CB01CD
:100E8000BC01CD0128E23EE74CE05DE30E94440B4B
:100E9000DC01CB01BC01CD010E94860ADC01CB0143
:100EA000909317028093160283C0809100028830CD
:100EB00041F5E6E9F0E08081918186569141969571
:100EC000879596958795CC01A0E0B0E0BC01CD0157
:100ED0000E94B50ADC01CB01BC01CD0128E23EE74E
:100EE0004CE05DE30E94440BDC01CB01BC01CD0171
:100EF0000E94860ADC01CB0190931F0280931E02A0
:100F000057C080910002803141F5E6E9F0E0808130
:100F10009181865691419695879596958795CC01B6
:100F2000A0E0B0E0BC01CD010E94B50ADC01CB011C
:100F3000BC01CD0128E23EE74CE05DE30E94440B9A
:100F4000DC01CB01BC01CD010E94860ADC01CB0192
:100F500090931D0280931C022BC08091000280326E
:100F600039F5E6E9F0E080819181865691419695C8
:100F7000879596958795CC01A0E0B0E0BC01CD01A6
:100F80000E94B50ADC01CB01BC01CD0128E23EE79D
:100F90004CE05DE30E94440BDC01CB01BC01CD01C0
:100FA0000E94860ADC01CB0190931B0280931A02F7
:100FB000EDE6F0E01082CF91DF91FF91EF91BF91CC
:100FC000AF919F918F917F916F915F914F913F91E1
:100FD0002F910F9000925B000F900FBE0F901F900B
:100FE00018951F920F920FB60F9200905B000F9210
:100FF00011242F933F934F935F936F937F938F931E
:101000009F93AF93BF93EF93FF93DF93CF93CDB7AE
:10101000DEB780910002823079F5E4E9F0E080816A
:101020009181865691419695879596958795CC01A5
:10103000A0E0B0E0BC01CD010E94B50ADC01CB010B
:10104000BC01CD0128E23EE74CE05DE30E94440B89
:10105000DC01CB01BC01CD010E94860ADC01CB0181
:101060009093190280931802A2E2B0E0E2E2F0E06D
:1010700080818E7F8C93CBC080910002843079F583
:10108000E4E9F0E0808191818656914196958795BB
:1010900096958795CC01A0E0B0E0BC01CD010E94FF
:1010A000B50ADC01CB01BC01CD0128E23EE74CE0F2
:1010B0005DE30E94440BDC01CB01BC01CD010E9429
:1010C000860ADC01CB019093170280931602A2E2FC
:1010D000B0E0E2E2F0E080818D7F8C9398C0809157
:1010E0000002883079F5E4E9F0E08081918186564C
:1010F00091419695879596958795CC01A0E0B0E0B3
:10110000BC01CD010E94B50ADC01CB01BC01CD01BF
:1011100028E23EE74CE05DE30E94440BDC01CB019A
:10112000BC01CD010E94860ADC01CB0190931F0215
:1011300080931E02A2E2B0E0E2E2F0E080818B7FC9
:101140008C9365C080910002803179F5E4E9F0E08C
:101150008081918186569141969587959695879540
:10116000CC01A0E0B0E0BC01CD010E94B50ADC01D9
:10117000CB01BC01CD0128E23EE74CE05DE30E94DB
:10118000440BDC01CB01BC01CD010E94860ADC01CD
:10119000CB0190931D0280931C02A2E2B0E0E2E238
:1011A000F0E08081877F8C9332C080910002803292
:1011B00071F5E4E9F0E08081918186569141969540
:1011C000879596958795CC01A0E0B0E0BC01CD0154
:1011D0000E94B50ADC01CB01BC01CD0128E23EE74B
:1011E0004CE05DE30E94440BDC01CB01BC01CD016E
:1011F0000E94860ADC01CB0190931B0280931A02A5
:10120000A2E2B0E0E2E2F0E080818F7E8C93A1E781
:10121000B0E0E1E7F0E080818F7D8C93EDE6F0E0D7
:101220001082CF91DF91FF91EF91BF91AF919F918C
:101230008F917F916F915F914F913F912F910F907F
:1012400000925B000F900FBE0F901F901895DF93D8
:10125000CF930F920F92CDB7DEB780911A02909183
:101260001B028531910558F410920302109202027C
:1012700081E090E090930502809304022EC080915B
:101280001E0290911F028531910558F481E090E093
:1012900090930302809302021092050210920402BE
:1012A0001CC080911C0290911D028531910568F44B
:1012B00081E090E0909303028093020281E090E04D
:1012C000909305028093040208C0109203021092CA
:1012D000020210920502109204020F900F90CF911B
:1012E000DF910895DF93CF9300D00F92CDB7DEB793
:1012F0009A8389837C836B8389819A818833910562
:10130000A4F18B819C81883391057CF1809120022E
:1013100090912102009751F4109207021092060258
:1013200081E090E090932102809320028091060258
:1013300090910702843091055CF481E090E09093F5
:10134000030280930202109205021092040287C0E9
:1013500081E090E0909303028093020281E090E0AC
:1013600090930502809304027AC089819A818D321C
:101370009105A4F58B819C818D3291057CF580913E
:10138000220290912302009751F4109209021092C8
:10139000080281E090E090932302809322028091E2
:1013A000080290910902843091055CF410920302C6
:1013B0001092020281E090E0909305028093040273
:1013C0004EC081E090E0909303028093020281E09E
:1013D00090E0909305028093040241C029813A81F4
:1013E0008B819C812817390769F481E090E0909304
:1013F00003028093020281E090E0909305028093C3
:1014000004022DC029813A818B819C818217930728
:1014100084F489819A81823391050CF181E090E016
:10142000909303028093020210920502109204022C
:1014300016C029813A818B819C81281739077CF459
:1014400089819A818233910554F41092030210929B
:10145000020281E090E0909305028093040289816A
:101460009A81883391052CF08B819C81883391057A
:1014700044F4109207021092060210922102109278
:10148000200289819A818D3291052CF48B819C8177
:101490008D32910544F010920902109208021092C8
:1014A0002302109222020F900F900F900F90CF9175
:1014B000DF910895DF93CF93CDB7DEB781E090E061
:1014C000909303028093020281E090E090930502E2
:1014D00080930402CF91DF910895CF93DF93CDB72E
:1014E000DEB70E94C7020E946F060E9409030E9495
:1014F000C5050E9409030E9495000E949802000001
:10150000FACF0E94F20A08F481E008950E941E0BAF
:1015100088F09F5798F0B92F9927B751B0F0E1F0B4
:10152000660F771F881F991F1AF0BA95C9F714C064
:10153000B13091F00E94380BB1E008950C94380B53
:10154000672F782F8827B85F39F0B93FCCF386959D
:1015500077956795B395D9F73EF4909580957095FA
:1015600061957F4F8F4F9F4F0895E89409C097FB77
:101570003EF490958095709561957F4F8F4F9F4F6A
:101580009923A9F0F92F96E9BB279395F6958795AE
:1015900077956795B795F111F8CFFAF4BB0F11F471
:1015A00060FF1BC06F5F7F4F8F4F9F4F16C0882318
:1015B00011F096E911C0772321F09EE8872F762F4E
:1015C00005C0662371F096E8862F70E060E02AF08F
:1015D0009A95660F771F881FDAF7880F969587957B
:1015E00097F90895990F0008550FAA0BE0E8FEEF50
:1015F00016161706E807F907C0F012161306E407D7
:10160000F50798F0621B730B840B950B39F40A26CF
:1016100061F0232B242B252B21F408950A2609F4AD
:10162000A140A6958FEF811D811D089557FD90580B
:10163000440F551F59F05F3F71F04795880F97FB96
:10164000991F61F09F3F79F0879508951216130650
:101650001406551FF2CF4695F1DF08C0161617067F
:101660001806991FF1CF86957105610508940895B4
:10167000E894BB2766277727CB0197F908950E9446
:10168000F20A08F48FEF08950E94570B0C94C80BD0
:101690000E94BA0B38F00E94C10B20F0952311F084
:1016A0000C94B10B0C94B70B11240C94390B0E94C1
:1016B000160B70F3959FC1F3950F50E0551F629F75
:1016C000F001729FBB27F00DB11D639FAA27F00D9B
:1016D000B11DAA1F649F6627B00DA11D661F829FC2
:1016E0002227B00DA11D621F739FB00DA11D621FA7
:1016F000839FA00D611D221F749F3327A00D611DC4
:10170000231F849F600D211D822F762F6A2F1124A5
:101710009F5750409AF0F1F088234AF0EE0FFF1FD8
:10172000BB1F661F771F881F91505040A9F79E3F2F
:10173000510580F00C94B10B0C94390B5F3FE4F32E
:10174000983ED4F3869577956795B795F795E79585
:101750009F5FC1F7FE2B880F911D9695879597F98E
:10176000089597F99F6780E870E060E008959FEF23
:1017700080EC089500240A94161617061806090628
:10178000089500240A9412161306140605060895F7
:10179000092E0394000C11F4882352F0BB0F40F47F
:1017A000BF2B11F460FF04C06F5F7F4F8F4F9F4FBF
:0617B0000895F894FFCF3C
:0217B60002002F
:00000001FF
