:100000000C9472000C947E000C947E000C947E0084
:100010000C947E000C947E000C947E000C947E0068
:100020000C947E000C947E000C947E000C947E0058
:100030000C947E000C947E000C947E000C947E0048
:100040000C947E000C947E000C947E000C947E0038
:100050000C947E000C947E000C947E000C947E0028
:100060000C947E000C947E000C947E000C947E0018
:100070000C947E000C947E000C947E000C947E0008
:100080000C947E000C947E000C947E000C947E00F8
:100090000C947E000C947E000C947E000C947E00E8
:1000A0000C947E000C947E000C947E000C947E00D8
:1000B0000C947E000C947E000C947E000C947E00C8
:1000C0000C947E000C947E000C947E000C947E00B8
:1000D0000C947E000C947E000C947E000C947E00A8
:1000E0000C947E0011241FBECFEFD1E2DEBFCDBF46
:1000F00000E00CBF0E9480000C94FD080C940000EE
:100100000F931F93CF93DF93CDB7DEB7C451D14088
:100110000FB6F894DEBF0FBECDBF81E290E0DC01E8
:100120002C9181E290E02F60FC01208389E091E036
:100130009C838B831A8219822FC782E290E023E38B
:10014000DC012C939E0129593F4F80E090E0A0E80C
:10015000BFE3F90180839183A283B3838E010559A4
:100160001F4FCE0189599F4F20E030E04AE755E408
:10017000DC016D917D918D919C910E946808CB5618
:10018000DF4F688379838A839B83C559D040CB56E0
:10019000DF4F88819981AA81BB81C559D040F80180
:1001A00080839183A283B383CE0185599F4F20E042
:1001B00030E040E85FE3DC016D917D918D919C9191
:1001C0000E94E20788234CF4CE0181599F4F21E021
:1001D00030E0FC0131832083A5C0CE0185599F4FBB
:1001E00020E03FEF4FE757E4DC016D917D918D9169
:1001F0009C910E946308882309F00CF475C0CE011D
:1002000089599F4F20E030E040E251E4FC016081D9
:100210007181828193810E946808C756DF4F68838D
:1002200079838A839B83C959D040C756DF4F888121
:100230009981AA81BB81C959D040CF56DF4F8883AD
:100240009983AA83BB83C159D0408E0101591F4FA6
:10025000CF56DF4F688179818A819B81C159D04017
:100260000E94E707C356DF4F688379838A839B83A5
:10027000CD59D040C356DF4FE881F981CD59D040E8
:10028000D8011196FC93EE9326C0CE018F589F4F54
:1002900020E931E0DC012D933C93CE018F589F4F34
:1002A000FC01808191810197F1F79E012F583F4F0A
:1002B000D9018D939C930000CE0181599F4F9E01DF
:1002C00021593F4FF9012081318121503109DC0151
:1002D00011963C932E93CE0181599F4FFC01808152
:1002E0009181009791F639C08E0101591F4FCE01BF
:1002F00085599F4FDC016D917D918D919C910E945C
:10030000E707CF55DF4F688379838A839B83C15A80
:10031000D040CF55DF4F88819981C15AD040F80134
:1003200091838083CE018D589F4F9E0121593F4F6D
:10033000D9012D913C91FC0131832083CE018D5850
:100340009F4FDC018D919C910197F1F79E012D58F3
:100350003F4FF90191838083000082E290E022E226
:10036000DC012C939E01275A3F4F80E090E0A0E8EB
:10037000BFE3F90180839183A283B3838E01035A83
:100380001F4FCE01875A9F4F20E030E04AE755E4E7
:10039000DC016D917D918D919C910E946808CB55F7
:1003A000DF4F688379838A839B83C55AD040CB55BE
:1003B000DF4F88819981AA81BB81C55AD040F8015D
:1003C00080839183A283B383CE01835A9F4F20E021
:1003D00030E040E85FE3DC016D917D918D919C916F
:1003E0000E94E20788234CF4CE018F599F4F21E0F1
:1003F00030E0FC0131832083A5C0CE01835A9F4F9A
:1004000020E03FEF4FE757E4DC016D917D918D9146
:100410009C910E946308882309F00CF475C0CE01FA
:10042000875A9F4F20E030E040E251E4FC016081B8
:100430007181828193810E946808C755DF4F68836C
:1004400079838A839B83C95AD040C755DF4F8881FF
:100450009981AA81BB81C95AD040C357DF4F888395
:100460009983AA83BB83CD58D0408E010F591F4F6B
:10047000C357DF4F688179818A819B81CD58D040F5
:100480000E94E707C355DF4F688379838A839B8384
:10049000CD5AD040C355DF4FE881F981CD5AD040C5
:1004A000D8011196FC93EE9326C0CE018D599F4F33
:1004B00020E931E0DC012D933C93CE018D599F4F13
:1004C000FC01808191810197F1F79E012D593F4FE9
:1004D000D9018D939C930000CE018F599F4F9E01AF
:1004E0002F593F4FF9012081318121503109DC0121
:1004F00011963C932E93CE018F599F4FFC01808122
:100500009181009791F639C08E010F591F4FCE018E
:10051000835A9F4FDC016D917D918D919C910E943A
:10052000E707CF54DF4F688379838A839B83C15B5E
:10053000D040CF54DF4F88819981C15BD040F80112
:1005400091838083CE018B599F4F9E012F593F4F3E
:10055000D9012D913C91FC0131832083CE018B592F
:100560009F4FDC018D919C910197F1F79E012B59D2
:100570003F4FF90191838083000082E290E026E6FC
:10058000DC012C939E01255B3F4F80E090E0A0E8CA
:10059000BFE3F90180839183A283B3838E01015B62
:1005A0001F4FCE01855B9F4F20E030E04AE755E4C6
:1005B000DC016D917D918D919C910E946808CB54D6
:1005C000DF4F688379838A839B83C55BD040CB549C
:1005D000DF4F88819981AA81BB81C55BD040F8013A
:1005E00080839183A283B383CE01815B9F4F20E000
:1005F00030E040E85FE3DC016D917D918D919C914D
:100600000E94E20788234CF4CE018D5A9F4F21E0CF
:1006100030E0FC0131832083A5C0CE01815B9F4F78
:1006200020E03FEF4FE757E4DC016D917D918D9124
:100630009C910E946308882309F00CF475C0CE01D8
:10064000855B9F4F20E030E040E251E4FC01608197
:100650007181828193810E946808C754DF4F68834B
:1006600079838A839B83C95BD040C754DF4F8881DD
:100670009981AA81BB81C95BD040C757DF4F88836E
:100680009983AA83BB83C958D0408E010D5A1F4F4E
:10069000C757DF4F688179818A819B81C958D040D3
:1006A0000E94E707C354DF4F688379838A839B8363
:1006B000CD5BD040C354DF4FE881F981CD5BD040A2
:1006C000D8011196FC93EE9326C0CE018B5A9F4F12
:1006D00020E931E0DC012D933C93CE018B5A9F4FF2
:1006E000FC01808191810197F1F79E012B5A3F4FC8
:1006F000D9018D939C930000CE018D5A9F4F9E018E
:100700002D5A3F4FF9012081318121503109DC01FF
:1007100011963C932E93CE018D5A9F4FFC01808100
:100720009181009791F639C08E010D5A1F4FCE016D
:10073000815B9F4FDC016D917D918D919C910E9419
:10074000E707CF53DF4F688379838A839B83C15C3C
:10075000D040CF53DF4F88819981C15CD040F801F0
:1007600091838083CE01895A9F4F9E012D5A3F4F1E
:10077000D9012D913C91FC0131832083CE01895A0E
:100780009F4FDC018D919C910197F1F79E01295AB1
:100790003F4FF90191838083000082E290E024E4DE
:1007A000DC012C9380E090E0A0E8BFE39E01235C95
:1007B0003F4FF90180839183A283B3838E010F5B46
:1007C0001F4F20E030E04AE755E4CE01CD96DC0132
:1007D0006D917D918D919C910E946808CB53DF4F64
:1007E000688379838A839B83C55CD040CB53DF4F7A
:1007F00088819981AA81BB81C55CD040F801808342
:100800009183A283B383CE018F5B9F4F20E030E0C2
:1008100040E85FE3DC016D917D918D919C910E9498
:10082000E20788234CF4CE018B5B9F4F21E030E040
:10083000FC0131832083A4C0CE018F5B9F4F20E059
:100840003FEF4FE757E4DC016D917D918D919C91D5
:100850000E946308882309F00CF474C020E030E0A3
:1008600040E251E4CE01CD96FC016081718182812C
:1008700093810E946808C753DF4F688379838A8316
:100880009B83C95CD040C753DF4F88819981AA817F
:10089000BB81C95CD040CB57DF4F88839983AA8343
:1008A000BB83C558D0408E010B5B1F4FCB57DF4F2A
:1008B000688179818A819B81C558D0400E94E70771
:1008C000C353DF4F688379838A839B83CD5CD04099
:1008D000C353DF4FE881F981CD5CD040D801119638
:1008E000FC93EE9326C0CE01895B9F4F20E931E057
:1008F000DC012D933C93CE01895B9F4FFC018081ED
:1009000091810197F1F79E01295B3F4FD9018D93AA
:100910009C930000CE018B5B9F4F9E012B5B3F4F52
:10092000F9012081318121503109DC0111963C937C
:100930002E93CE018B5B9F4FFC01808191810097AC
:1009400091F639C08E010B5B1F4FCE018F5B9F4F1D
:10095000DC016D917D918D919C910E94E707CF52B2
:10096000DF4F688379838A839B83C15DD040CF52F8
:10097000DF4F88819981C15DD040F80191838083E8
:10098000CE01875B9F4F9E012B5B3F4FD9012D917D
:100990003C91FC0131832083CE01875B9F4FDC01BA
:1009A0008D919C910197F1F79E01275B3F4FF901D3
:1009B00091838083000082E290E02CECDC012C9398
:1009C00080E090E0A0E8BFE38FA798ABA9ABBAABFB
:1009D00020E030E04AE755E46FA578A989A99AA9F3
:1009E0000E946808CB52DF4F688379838A839B8398
:1009F000C55DD040CB52DF4F88819981AA81BB81F0
:100A0000C55DD0408BAB9CABADABBEAB20E030E066
:100A100040E85FE36BA97CA98DA99EA90E94E2072B
:100A200088232CF481E090E098AF8FAB76C020E073
:100A30003FEF4FE757E46BA97CA98DA99EA90E94BF
:100A40006308882309F00CF452C020E030E040E253
:100A500051E46FA578A989A99AA90E946808C7528C
:100A6000DF4F688379838A839B83C95DD040C752F7
:100A7000DF4F88819981AA81BB81C95DD040CF5762
:100A8000DF4F88839983AA83BB83C158D040CF5757
:100A9000DF4F688179818A819B81C158D0400E9453
:100AA000E707C352DF4F688379838A839B83CD5DD9
:100AB000D040C352DF4FA881B981CD5DD040B8AFDF
:100AC000AFAB10C080E991E09AAF89AF89AD9AAD24
:100AD0000197F1F79AAF89AF00008FA998AD019700
:100AE00098AF8FAB8FA998AD009761F721C06BA924
:100AF0007CA98DA99EA90E94E707CF51DF4F68838B
:100B000079838A839B83C15ED040CF51DF4FE881D8
:100B1000F981C15ED040F8AFEFAB8FA998AD9CAF23
:100B20008BAF8BAD9CAD0197F1F79CAF8BAF000005
:100B300082E290E028E8DC012C9380E090E0A0E8DD
:100B4000BFE389A39AA3ABA3BCA320E030E04AE7AC
:100B500055E469A17AA18BA19CA10E946808CB51A0
:100B6000DF4F688379838A839B83C55ED040CB51F6
:100B7000DF4F88819981AA81BB81C55ED0408DA35A
:100B80009EA3AFA3B8A720E030E040E85FE36DA1EB
:100B90007EA18FA198A50E94E20788232CF481E012
:100BA00090E09AA789A776C020E03FEF4FE757E48F
:100BB0006DA17EA18FA198A50E946308882309F0EA
:100BC0000CF452C020E030E040E251E469A17AA187
:100BD0008BA19CA10E946808C751DF4F688379836D
:100BE0008A839B83C95ED040C751DF4F888199813A
:100BF000AA81BB81C95ED040C358DF4F88839983E7
:100C0000AA83BB83CD57D040C358DF4F6881798119
:100C10008A819B81CD57D0400E94E707C351DF4FA7
:100C2000688379838A839B83CD5ED040C351DF4F35
:100C3000A881B981CD5ED040BAA7A9A710C080E92C
:100C400091E09CA78BA78BA59CA50197F1F79CA78A
:100C50008BA7000089A59AA501979AA789A789A5BE
:100C60009AA5009761F721C06DA17EA18FA198A5DB
:100C70000E94E707CF50DF4F688379838A839B8385
:100C8000C15FD040CF50DF4FE881F981C15FD040D4
:100C9000FAA7E9A789A59AA59EA78DA78DA59EA5C8
:100CA0000197F1F79EA78DA7000082E290E029E965
:100CB000DC012C9380E090E0A0E8BFE38B8B9C8B61
:100CC000AD8BBE8B20E030E04AE755E46B897C8930
:100CD0008D899E890E946808CB50DF4F6883798395
:100CE0008A839B83C55FD040CB50DF4F8881998139
:100CF000AA81BB81C55FD0408F8B988FA98FBA8F97
:100D000020E030E040E85FE36F89788D898D9A8D2F
:100D10000E94E20788232CF481E090E09C8F8B8F67
:100D200072C020E03FEF4FE757E46F89788D898DDF
:100D30009A8D0E946308882309F00CF44EC020E0CD
:100D400030E040E251E46B897C898D899E890E9464
:100D50006808C750DF4F688379838A839B83C95FA4
:100D6000D040C750DF4F88819981AA81BB81C95F7C
:100D7000D040ED968CAF9DAFAEAFBFAFED97ED9687
:100D80006CAD7DAD8EAD9FADED970E94E707C35072
:100D9000DF4F688379838A839B83CD5FD040C350C4
:100DA000DF4FA881B981CD5FD040BC8FAB8F10C021
:100DB00080E991E09E8F8D8F8D8D9E8D0197F1F74B
:100DC0009E8F8D8F00008B8D9C8D01979C8F8B8FBC
:100DD0008B8D9C8D009761F721C06F89788D898DEF
:100DE0009A8D0E94E707CF5FDE4F688379838A83FD
:100DF0009B83C150D140CF5FDE4FE881F981C15064
:100E0000D140FC8FEB8F8B8D9C8D98A38F8F8F8D16
:100E100098A10197F1F798A38F8F000082E290E0EC
:100E200021E1DC012C9380E090E0A0E8BFE38D831A
:100E30009E83AF83B88720E030E04AE755E46D81B8
:100E40007E818F8198850E946808CB5FDE4F688322
:100E500079838A839B83C550D140CB5FDE4F8881E5
:100E60009981AA81BB81C550D14089879A87AB8778
:100E7000BC8720E030E040E85FE369857A858B85B8
:100E80009C850E94E20788232CF481E090E09E87F5
:100E90008D8772C020E03FEF4FE757E469857A8580
:100EA0008B859C850E946308882309F00CF44EC052
:100EB00020E030E040E251E46D817E818F819885B1
:100EC0000E946808C75FDE4F688379838A839B83AB
:100ED000C950D140C75FDE4F88819981AA81BB810B
:100EE000C950D140E9968CAF9DAFAEAFBFAFE99787
:100EF000E9966CAD7DAD8EAD9FADE9970E94E70799
:100F0000C35FDE4F688379838A839B83CD50D14052
:100F1000C35FDE4FA881B981CD50D140BE87AD8778
:100F200010C080E991E0988B8F878F859889019711
:100F3000F1F7988B8F8700008D859E8501979E879E
:100F40008D878D859E85009761F721C069857A859B
:100F50008B859C850E94E707CF5EDE4F688379838F
:100F60008A839B83C151D140CF5EDE4FE881F981F6
:100F7000C151D140FE87ED878D859E859A8B898BE7
:100F800089899A890197F1F79A8B898B0000898169
:100F90009A8101969A83898329813A818B819C81E8
:100FA000281739070CF4C9C880E090E0CC5EDE4F0A
:100FB0000FB6F894DEBF0FBECDBFDF91CF911F916A
:100FC0000F9108950E94160808F481E008950E9488
:100FD000420888F09F5798F0B92F9927B751B0F081
:100FE000E1F0660F771F881F991F1AF0BA95C9F7AD
:100FF00014C0B13091F00E945C08B1E008950C94E7
:101000005C08672F782F8827B85F39F0B93FCCF399
:10101000869577956795B395D9F73EF49095809529
:10102000709561957F4F8F4F9F4F0895990F0008DE
:10103000550FAA0BE0E8FEEF16161706E807F907AA
:10104000C0F012161306E407F50798F0621B730B45
:10105000840B950B39F40A2661F0232B242B252BC6
:1010600021F408950A2609F4A140A6958FEF811D69
:10107000811D089557FD9058440F551F59F05F3F4B
:1010800071F04795880F97FB991F61F09F3F79F0AA
:1010900087950895121613061406551FF2CF46952C
:1010A000F1DF08C0161617061806991FF1CF8695AE
:1010B0007105610508940895E894BB276627772792
:1010C000CB0197F908950E94160808F48FEF089550
:1010D0000E947B080C94EC080E94DE0838F00E9405
:1010E000E50820F0952311F00C94D5080C94DB084A
:1010F00011240C945D080E943A0870F3959FC1F387
:10110000950F50E0551F629FF001729FBB27F00DB5
:10111000B11D639FAA27F00DB11DAA1F649F66270A
:10112000B00DA11D661F829F2227B00DA11D621F59
:10113000739FB00DA11D621F839FA00D611D221F13
:10114000749F3327A00D611D231F849F600D211DF7
:10115000822F762F6A2F11249F5750409AF0F1F07A
:1011600088234AF0EE0FFF1FBB1F661F771F881FE3
:1011700091505040A9F79E3F510580F00C94D5083E
:101180000C945D085F3FE4F3983ED4F38695779521
:101190006795B795F795E7959F5FC1F7FE2B880F89
:1011A000911D9695879597F9089597F99F6780E81F
:1011B00070E060E008959FEF80EC089500240A94A9
:1011C0001616170618060906089500240A94121622
:1011D0001306140605060895092E0394000C11F455
:1011E000882352F0BB0F40F4BF2B11F460FF04C002
:0E11F0006F5F7F4F8F4F9F4F0895F894FFCF92
:00000001FF
